:100000000C942E060C944B060C944B060C944B0649
:100010000C944B060C944B060C944B060C944B061C
:100020000C944B060C944B060C940B110C942C1551
:100030000C94A51E0C944B060C944B060C944B068A
:100040000C944B060C944B060C944B060C944B06EC
:100050000C944B060C94E4110C944B060C944B0638
:100060000C944B060C944B060C944B060C944B06CC
:100070000C944B060C944B060C944B060C944B06BC
:100080000C944B060C944B060C944B060C944B06AC
:100090000C944B060C944B060C944B060C944B069C
:1000A0000C944B060C944B060C944B06A800530082
:1000B00054005500560000005F00600061005700CA
:1000C00000005C005D005E000000000059005A0066
:1000D0005B00000001526200000063005800010054
:1000E0000100010001000100000001000100010009
:1000F0001B010000010004010100000000000601D6
:1001000019010100000002521D0100000100010060
:100110000100010001000100010000001E001F009D
:1001200020000100000014001A0008000000000078
:100130000400160007000000035201000000010047
:1001400001000100010001000100010000000100A8
:100150000100010001000000010001000100000099
:10016000000035010E0338010000005201000000BC
:100170000100010000AF00AE406060F0F0F0F8F860
:10018000F8FCFCFEFEFEFFFFFFFFFEFEFCFCFCF8A1
:10019000F8F0F0E0E0E0C0402030707848C98D878A
:1001A000070707070F0F0F1F1F0F0F0F070707077F
:1001B0000F8B9991D17060201018182C246446C3BD
:1001C00083830202060404080804040402028383F1
:1001D00087C54C4868383010080C1C161232236151
:1001E00041C1818183020204040202028181C14172
:1001F00043622624341C18080000000000000000A0
:1002000000000000010103020203010101000000DF
:100210000000000000000000406060B090901808EE
:10022000080C0406020203010103020604040C0880
:1002300018103020A0C0C0402030307878F9FDFF81
:10024000FEFEFCFCFCF8F8F0F0F8F8F8FCFCFEFE12
:10025000FEFBF9F1F16060201018182C246446C3ED
:10026000838303030707070F0F070707030383832E
:1002700087C54C4868303010080C0C1E12322361C0
:1002800041C1818183020204040202028181C141D1
:100290004362262434181808000000000000000003
:1002A000000000000101030202030101010000003F
:1002B0000000000000000000006060A0909018089E
:1002C000080C0404020203010103020604040808E6
:1002D00018103020A0C0C0400030305048C98D8771
:1002E000060604040C080810100808080404060692
:1002F0000E8B999150606020001818383C7C7EFF6E
:10030000FFFFFEFEFEFCFCF8F8FCFCFCFEFEFFFF1F
:10031000FFFD7C7838303010000C0C141232236151
:100320004141818183030307070303038181C141A5
:100330004362262414181808000000000000000082
:10034000000000000101030202030101000000009F
:100350000000000000000000004060A09090100825
:10036000080C040402020201010202060404080847
:1003700010103020A0C0400000203050484889852F
:10038000060604040C0808101008080804040606F1
:100390000A8991915060600000101828242444427A
:1003A000838302020604040808040404020283830F
:1003B00085444C4828301000000C0C1C1E1E3E3F8B
:1003C0007F7FFFFFFFFEFEFCFCFEFEFEFFFF7F7F48
:1003D0007E3E3C3C1C1808000000000000000000AD
:1003E0000000000001010103030101010000000001
:1003F0000000000000000000000000F806F2F2F427
:10040000E4D83070C0C0C040601010101010080454
:1004100002797D02FC00000000000000030C33C7DD
:100420008F9F87C1E02004040E8A84800000002092
:1004300022858200070810E0000000000000000193
:100440008F7F7F67300000000081C0C0E0E0E0E106
:10045000E1F0F008E4100E010000000080601806D2
:100460000100000000003CFEFFFFFFFFFFFFFFFF59
:10047000FFFFFFFEC13EC00000F00C0201000000C3
:10048000000000000000000003FFFFFFFFFFFFFF70
:10049000FFFFFFFFFFF0FF0007000000000000006B
:1004A000000000000000000000070707070707071B
:1004B00007070707070707000038E404E4E4E8C873
:1004C00010202040404020201010101010181C1A3E
:1004D00045C10EF0000000000000030E11E78F9FE1
:1004E0009FC00000000283E1F1F0F8FCFDFDFCFC80
:1004F000FCFCF8F0E1C20CF0000000000000010F6D
:10050000FF39000000000F1F3F3F7FFFFFFFFFFF8D
:10051000FF7F7F3F0F83700F00000080601806018F
:100520000000000000000E1EFCFCFCFCFCFCFCFCBF
:10053000FCFC827EC1000000C03806010000000003
:1005400000000000000000001FFFFFFFFFFFFFFF93
:10055000FFFFFFFEC1FE00000700000000000000DA
:10056000000000000000000000070707070707075A
:100570000707070707070000556E646566696E6523
:100580006400436F64650047616D650046756E6386
:1005900000426173650005010902A101850209019C
:1005A000A100050919012908150025019508750103
:1005B00081020501093009311581257F95027508F1
:1005C000810609381581257F950175088106050C7E
:1005D0000A38021581257F950175088106C0C0057E
:1005E000010980A101850319012AB700150126B769
:1005F00000950175108100C0050C0901A101850459
:1006000019012AA002150126A0029501751081008A
:10061000C005010906A1018506050719E029E715AE
:100620000025019508750181020507190029EF15BC
:1006300000250195F075018102050819012905952C
:100640000575019102950175039101C00501090627
:10065000A101050719E029E7150025019508750195
:1006600081029501750881010507190029FF150010
:1006700026FF009506750881000508190129051552
:10068000002501950575019102950175039101C041
:1006900009023B00020100A0FA0904000001030165
:1006A000010009211101000122440007058103080E
:1006B00000010904010001030000000921110100EB
:1006C0000122B6000705820320000112010002008A
:1006D0000000084E4402000001010200010C036EFC
:1006E0000064006B0031003600000008036E0064F7
:1006F000006B0000000403090407087F0807003EA0
:100700005B4F5B3E003E6B4F6B3E001C3E7C3E1CD5
:1007100000183C7E3C18001C577D571C001C5E7F57
:100720005E1C0000183C180000FFE7C3E7FF000054
:100730001824180000FFE7DBE7FF0030483A060EF8
:1007400000262979292600407F05050700407F05FE
:10075000253F005A3CE73C5A007F3E1C1C0800081D
:100760001C1C3E7F0014227F2214005F5F005F5F2D
:100770000006097F017F00006689956A006060605D
:1007800060600094A2FFA2940008047E0408001098
:10079000207E20100008082A1C0800081C2A0808CF
:1007A000001E10101010000C1E0C1E0C0030383EE5
:1007B000383000060E3E0E0600000000000000006B
:1007C000005F000000000700070000147F147F1482
:1007D00000242A7F2A120023130864620036495637
:1007E000205000000807030000001C224100000008
:1007F00041221C00002A1C7F1C2A0008083E080811
:100800000000807030000008080808080000006040
:100810006000002010080402003E5149453E0000DF
:10082000427F4000007249494946002141494D3309
:10083000001814127F10002745454539003C4A49ED
:10084000493100412111090700364949493600461E
:100850004949291E00000014000000004034000037
:100860000000081422410014141414140000412242
:100870001408000201590906003E415D594E007CF2
:100880001211127C007F49494936003E4141412204
:10089000007F4141413E007F49494941007F0909AC
:1008A0000901003E41415173007F0808087F0000A4
:1008B000417F4100002040413F01007F0814224158
:1008C000007F40404040007F021C027F007F040800
:1008D000107F003E4141413E007F09090906003E6C
:1008E0004151215E007F09192946002649494932B4
:1008F0000003017F0103003F4040403F001F2040B4
:10090000201F003F4038403F006314081463000379
:1009100004780403006159494D4300007F4141417F
:1009200000020408102000004141417F0004020140
:10093000020400404040404000000307080000203F
:1009400054547840007F28444438003844444428B4
:1009500000384444287F0038545454180000087E5E
:1009600009020018A4A49C78007F08040478000001
:10097000447D4000002040403D00007F102844009E
:100980000000417F4000007C04780478007C08046B
:10099000047800384444443800FC18242418001813
:1009A000242418FC007C08040408004854545424EF
:1009B0000004043F4424003C4040207C001C2040B4
:1009C000201C003C4030403C004428102844004C8F
:1009D0009090907C004464544C44000008364100E0
:1009E000000000770000000041360800000201020C
:1009F0000402003C2623263C0000000000000040CA
:100A00004040F0F8F8FF38FFF8F83FF8F8FF38FFFB
:100A1000F8F8F040404000000000000080C0C0C076
:100A2000800000C0C08000000080C0C000C0C000C6
:100A30000080C0C00000000000C0C0C0C0C000C036
:100A4000C0000000000000000000000000000000E6
:100A50000000000000000000000000000000000096
:100A60000000000000000000000000000000000086
:100A70000000000000000000C0F0F8FC3E1E06016F
:100A80000000007F4141417F007F4141417F0000E4
:100A900080C0E07E5B4F5BFEC00000C000DCD7DEA4
:100AA000DEDED7DC00C00000000000000000000017
:100AB00000000000000000000000000000000049ED
:100AC0004949FFFFFFFFE0DFBFBF00BFBFDFE0FF1F
:100AD000FFFFFF49494900000000001F3F6060E040
:100AE000BF1F007F7F071E381E077F7F007F7F0E9E
:100AF0001F3B716000000000007F7F0C0C0C007E2B
:100B00007E007F7E0303007F7E03037E7E03037FE0
:100B10007E000F3E703C063C703E0F00327B494920
:100B20003F7E007F7E0303001E3F69696F26000041
:100B30000000000000000000030F1F3F3C787060C1
:100B40000000007F4141417F007F4141417F0030F3
:100B50007B7F7830202030787F3B0003000F7F0FB1
:100B60000F0F7F0F000300000000000000000000D6
:100B70000000000000000000000000000000000174
:100B80000101070F0F7F0F7F0F0F7E0F0F7F0F7F6A
:100B90000F0F07010101000000000000000000002D
:100BA0000101000000000000000000000000000043
:100BB0000000000000000000000000000000000035
:100BC0000000000000000000000000000000000025
:100BD0000000000000000000000000000000000015
:100BE0000000000000000000000000000000000005
:100BF00000000000000000000000000000000000F5
:100C000000000000000000000000000000000000E4
:100C100000000000000000000000000000000000D4
:100C200000000000000000000000000000000000C4
:100C300000000000000000000000DA0281FFD9F18E
:100C4000DB20A4A62EAF00A0C0D30000A1C8D30013
:100C500000AED580A81F408D1420000011241FBEB7
:100C6000CFEFDAE0DEBFCDBF11E0A0E0B1E0E0E61B
:100C7000F8E402C005900D92AE36B107D9F724E032
:100C8000AEE6B1E001C01D92AD39B207E1F70E94B6
:100C9000CC1E0C94EF230C940000482F2091860268
:100CA00090914D0257E0291302C080E0089530E092
:100CB000529FF001539FF00D1124E25BFD4F8181A3
:100CC000681306C08081481303C085818111EECF6F
:100CD0002F5F3F4F2770E7CFE8EDF0E080818E7FF8
:100CE00080831092E2001092DA001092E100A0EEF0
:100CF000B0E08C9181608C9380818F77808319BC68
:100D0000A7EDB0E08C918E7F8C9380818F7E808365
:100D10001092360208952091E4003091E50095E6A6
:100D2000A9012091EC00822F817020FF06C08091E4
:100D3000E80080FF06C080E008952091E80022FDD1
:100D40001AC080914302882389F0853089F0809110
:100D5000EB0085FD0FC02091E4003091E5004217C3
:100D60005307F9F29150E1F684E0089582E0089586
:100D700083E0089581E008958091450287FF13C0C4
:100D80008091E80082FF06C08091E8008B77809315
:100D9000E80004C0809143028111F2CF0895809150
:100DA00043028823D9F38091E80080FFF8CF809137
:100DB000E8008E77ECCF982F9093E900242F762FC0
:100DC00050E0891731F07091EC002091ED005091C6
:100DD000F00021FD07C09F5F973071F78093E90015
:100DE00081E008953091EB003E7F3093EB0030912D
:100DF000ED003D7F3093ED003091EB00316030939A
:100E0000EB007093EC002093ED005093F0002091E4
:100E1000EE0027FDE0CF80E00895B0E0A0E0E3E140
:100E2000F7E00C943423C8EDD0E088818F7E88836E
:100E3000E7EDF0E080818160808384E082BF81E023
:100E40008093360288818E7F888302EE10E0F8015D
:100E500010821092DA0081EEC82ED12CF601108299
:100E600088818F77888388818068888388818F7D57
:100E7000888319BC109243021092440210924202DD
:100E80001092410290EEE92EF12CF70180818B7FC8
:100E9000808388818160888342E060E080E00E94F6
:100EA000DB06F60180818E7F8083F801808181607E
:100EB0008083808188608083F70180818E7F80833A
:100EC000888180618883CDB7DEB7E8E00C94502339
:100ED000FC0180914B0290914C0286179707A0F07D
:100EE0006115710529F49091E8009E779093E800D0
:100EF00090E06115710551F4911108C08091E800EE
:100F000082FF34C080E00895BC01F2CF809143029B
:100F10008823C1F18530C1F18091E80083FD30C0A4
:100F20008091E80082FDEACF8091E80080FFE1CF68
:100F30008091F3002091F200382F6115710519F0AE
:100F40002830310558F091E02830310509F090E063
:100F50002091E8002E772093E800CBCF81918093F9
:100F6000F100615071092F5F3F4FE7CF809143023D
:100F7000882341F0853041F08091E80083FFBECFA7
:100F800081E0089582E0089583E008958091380219
:100F9000089587E797E7909301088093000888E118
:100FA0009AE00FB6F894A895809360000FBE9093D6
:100FB0006000FFCF2FB7F894609132027091330236
:100FC00080913402909135022FBF089590911101C4
:100FD0009923D1F090912F0297FF16C0E82FE69544
:100FE000E695E695EE31E0F4F0E0E858FE4F282F64
:100FF000277081E090E001C0880F2A95EAF780957C
:101000009281892382830895E2E7F1E09191891327
:1010100003C0DF0111971C9291E0E837F907B1F79F
:101020000895909111019923C1F090912F0297FF9B
:1010300014C0E82FE695E695E695EE31F8F4F0E079
:10104000E858FE4F877021E030E001C0220F8A95FA
:10105000EAF78281822B82830895A2E7B1E0EFEF65
:1010600090E02D91821751F0EF3F19F4211101C04A
:10107000E92F9F5F9630A9F7EF3F09F408950E2EF0
:10108000000CFF0BE059FE4FE6CFA3E0B0E0EBE42D
:10109000F8E00C943A2320912D0230912E0228176B
:1010A0003907A1F090932E0280932D02E0912B023C
:1010B000F0912C02309751F024E029839B838A839E
:1010C0000084F185E02DCE01019609952396E2E09A
:1010D0000C945623A3E0B0E0E0E7F8E00C943A2348
:1010E0002091290230912A0228173907A1F0909304
:1010F0002A0280932902E0912B02F0912C02309772
:1011000051F023E029839B838A830084F185E02DBD
:10111000CE01019609952396E2E00C945623E091C6
:101120002B02F0912C02309729F00190F081E02DF4
:101130000995089580E0089580911E0280FD16C0F3
:1011400081FD16C082FD16C080911D028823A1F08A
:10115000883280F428E0829FC001112468E270E0A8
:101160000E946D23862F672B39F0089582E0089541
:1011700084E0089588E0089581E0089580911E023A
:1011800080FD14C081FD14C082FD16C080911C0238
:10119000882381F08E3180F420E5829FC0011124E4
:1011A0006EE170E00E946D23862F089584E108951A
:1011B00088E2089588E0089580E50895282F35EBAA
:1011C0002303C001112497FF04C080589109892F7F
:1011D000089580589F4FFBCFCF93DF9320919202C9
:1011E0003091930224593240A901460F571F4130D4
:1011F000524020F060E072E0621B730B409190025D
:1012000050919102FC01C901620F731FC1E0D0E04F
:101210008617970738F05093910240939002DF9120
:10122000CF9108952491DC01AC56BD4F3C9132170B
:1012300081F02C939C01A5E036952795AA95E1F7BE
:10124000DE0102C0AA0FBB1F2A95E2F79D014A2BBF
:10125000532B01963196DCCF20919B0436E0839F7F
:10126000C0011124629F800D911D1124811522E07F
:10127000920714F090E080E08C569D4F909393027B
:1012800080939202089580E00895F894E82FE29503
:10129000EF70F0E031A1282F2F7081E090E001C0C5
:1012A000880F2A95EAF7982F9095932391A392A1FE
:1012B000892B82A37894089590912F0292FF10C0F9
:1012C00041E0282F2471243009F040E031E0282F3C
:1012D0002871283009F030E0431711F02CE0822704
:1012E00093FF10C041E0282F2471243109F040E021
:1012F00031E0282F2871283109F030E0431711F030
:101300002CE082273091300230FF10C051E0282FAE
:101310002171213009F050E041E0282F2871283058
:1013200009F040E0541711F029E0822731FF10C086
:1013300041E0282F2171213109F040E031E0282FD0
:101340002871283109F030E0431711F029E0822795
:1013500094FD877E089582389105B9F1B0F4813308
:10136000910509F47DC048F48932910509F46DC0F6
:101370008A32910509F47BC008958533910509F4FB
:101380005FC08933910509F10895833E9105D9F134
:1013900038F4803E910529F1823E910579F1089556
:1013A000863E9105D9F1873E910509F43EC0843E01
:1013B000910541F52091300221FF24C080912F0238
:1013C00084FD19C087EE90E0089520912F022370CC
:1013D00009F05AC02091300223FF14C089E290E046
:1013E000089520912F0220FD38C03091300230FF47
:1013F00009C024FF43C090E080E0089520912F02AF
:1014000022FDF7CF089520912F0222FD3AC030919E
:10141000300230FD39C024FFF5CFEDCF20912F02EF
:1014200023FFF0CF24FDE7CFCDCF20912F0223FD66
:101430002EC03091300231FFEECF84EE90E008955F
:1014400020912F0225FFDECFC9CF20912F0225FD4D
:1014500021C02091300223FFD5CF89E390E0D2CF85
:1014600020912F0226FFCECF8AE290E008952091AE
:101470002F0226FFC7CF81E390E0089583EE90E02E
:10148000089582EE90E0089580EE90E0089586EE53
:1014900090E0089585E390E00895972F7530B8F4B3
:1014A0006530A8F48430B0F470E025E0929F600DC0
:1014B000711D1124FB0199E1899FE00DF11D11249B
:1014C000EE0FFF1FE455FF4F85919491089580E042
:1014D00090E0089581E0FCCF1F93CF93DF930E94AB
:1014E000AB09EC01C11580E5D807F0F5C11580E422
:1014F000D80708F09CC0C03ED10520F5CD3CD105F1
:1015000008F082C0C83AD10578F4C53AD10508F090
:1015100073C0C130D10519F1209709F1C430D1054C
:10152000F0F4D0E0C0E01BC0C33CD105D0F7C85AEE
:10153000D0E0CC0FDD1FCB5EDE4F0990D881C02DEF
:10154000D4640DC0C11580E2D80708F0D1C0C11520
:1015500081E0D80708F05AC0C83ED10510F7CE0187
:10156000DF91CF911F910895C03682E5D80718F515
:10157000C03482E5D80708F06BC0C03282E5D807D6
:1015800008F05FC0C11582E5D80708F497C02C2F7A
:101590002695269580E2289F900111248C2F837038
:1015A000C1E0D0E002C0CC0FDD1F8A95E2F7C22B6C
:1015B000D32BDD68D4CFC03A82E5D80760F4C038B9
:1015C00082E5D80708F459C0CF71D0E0DC2FCC27D2
:1015D000C46FD06AC4CFC03C82E5D80708F462C0AB
:1015E000C03E82E5D80708F09CCFDC2FCC27CC2763
:1015F000DF71C06FD06AB3CFC55AD0E0CE5EDE4F88
:10160000C881D0E0D064ABCFD065A9CF8D2F0E9428
:101610005C09182FCE0199270E94AB09C12FD0E099
:10162000DC2FCC27CC27DF71C82BD92B98CFCE014C
:1016300099270E94AB09CC27DF70C82BD92BD06A21
:101640008ECFCF71D0E0DC2FCC27C16FD06A87CF8F
:101650002C2F26952695277080E2289F9001112433
:101660008C2F8370C1E0D0E002C0CC0FDD1F8A95C3
:10167000E2F7C22BD32BDC6872CF2C2F2695269550
:10168000277080E2289F900111248C2F8370C1E085
:10169000D0E002C0CC0FDD1F8A95E2F7C22BD32B1E
:1016A000DA685DCF8C2F8F710E945C09C82FD0E063
:1016B000DC2FCC27CC27DF71D06251CF8C2F8F71DC
:1016C0000E945C0955E0D695C7955A95E1F7CF7011
:1016D000D0E0DC2FCC27282F30E084FF05C044E089
:1016E000220F331F4A95E1F7C22BD32BD06937CF96
:1016F0008D2F8F710E945C09182FCE0199270E94AF
:10170000AB09C12FD0E0DC2FCC27CC27DF71C82B51
:10171000D92BD2CF80959091DC0198239093DC0156
:1017200008958091DC019091B301892B9091B201D1
:10173000992391F0892B90911101992371F0909147
:101740002F0297FF0AC09EE12AE731E040E0915066
:1017500040F441111092B201089596E022E731E081
:10176000F5CFF90151919F01552389F34F5FEFCFD9
:101770008091860290914D02981301C008958F5F69
:101780008770FACFB0E0A0E0E8ECFBE00C943323E4
:101790007C010091FA011091FB018091E701909189
:1017A000E801082B192BCFE0D0E0CC24C394D12C36
:1017B000BC2EC6010C2E02C0880F991F0A94E2F7B6
:1017C00080239123892B49F4219790F7B12C8B2DFD
:1017D000CDB7DEB7E9E00C944F23B7018C2F0E9400
:1017E0004D0A0E946C0A019779F3F1CFCF93DF93F2
:1017F000EC010E94C20BBE010E944D0A0E946C0ABD
:10180000DF91CF910895953078F5853068F5E82F10
:10181000F0E085E0989FE00DF11D11249E2F977058
:1018200083E0F695E7958A95E1F7EE0FFF1FEE0F3F
:10183000FF1FE656FE4F50E040E080E0219130E08F
:10184000092E02C0369527950A94E2F721703327B6
:10185000042E01C0220F0A94EAF7822B4F5F5F4FDC
:101860004430510559F7089580E00895953098F572
:10187000853088F5E82FF0E085E0989FE00DF11DB8
:1018800011248E2F877041E001C0440F8A95EAF73A
:1018900083E0F695E7958A95E1F7EE0FFF1FEE0FCF
:1018A000FF1FE656FE4F30E020E070E05191DF016F
:1018B0001197CB01022E02C0969587950A94E2F704
:1018C000817081958527842385278C932F5F3F4FD7
:1018D0002430310559F708959093FB018093FA0164
:1018E000089521E030E002C0220F331F8A95E2F70D
:1018F000209530958091FA019091FB0182239323EA
:101900000E946C0C08959091B10180958923809379
:10191000B101282F277069F4891759F0909130028E
:1019200092FF07C08695869586950E94710C10924D
:10193000B101089521E030E002C0220F331F8A95E3
:10194000E2F78091FA019091FB01822B932B0E9488
:101950006C0C08959093E8018093E7010895FC01D1
:1019600024812223C1F0808191810E94F60B9295FF
:101970009F70963091F058F4925F9F70923058F4B7
:10198000803F19F030F4883E30F481E008959A5F8A
:10199000F4CF843FD1F380E00895883EB0F3813FD7
:1019A000D1F7F3CFA6E0B0E0E8EDFCE00C943923EA
:1019B00049835A8349815A819923A1F0222391F0C6
:1019C000CA010E94C20B182F682F89819A810E9438
:1019D000360C69817A81812F0E944D0A2696E3E0B8
:1019E0000C945523CA010E94030C182FF2CFCF93F9
:1019F000DF93682F81E06A3019F06D3031F480E0B8
:101A00000E94770DDF91CF9108958091920290917D
:101A1000930226E0FC01AAE8B2E001900D922A951B
:101A2000E1F7603E08F458C026E0FC0111922A95C7
:101A3000E9F7C0919202D091930246E050E0BE01D6
:101A40008AE892E00E9490239E0124593240892B1B
:101A500041F1C90145E0969587954A95E1F741E046
:101A600050E0BA0102C0660F771F8A95E2F7CB01FA
:101A70006091900270919102862B972BB9016B5F58
:101A80007F4FE5E076956795EA95E1F702C0440F50
:101A9000551F6A95E2F7842B952B909391028093C2
:101AA00090022A5F3F4F40919B04642F70E0C90170
:101AB0000E941623481B463010F4240F311D2115B7
:101AC00072E0370710F030E020E02C563D4F3093A5
:101AD00093022093920296CFF6E06F9FB0011124FB
:101AE0006750794F46E050E00E948723A2CFCF9302
:101AF000382FE0919202F0919302E459F240209144
:101B00009B04622F70E0CF010E941623281B822FB6
:101B1000332361F066E00E946123C82FC15010F4A6
:101B2000CF91089580E20E94F70CF8CF9F01280F13
:101B3000311D2115324018F080E0F0E0E0E08E0F1A
:101B40009F2F911D8C569D4F9093930280939202EC
:101B5000E7CFCF93DF93EC01FE018491811106C0A2
:101B600081E00E94770DDF91CF9108950E94F70CDC
:101B70002196F2CF80911101882359F180912F0293
:101B800087FF27C00E94910B8093790140E250E0CB
:101B900064EB71E088E791E00E949023892BC1F00B
:101BA00080E2E8E7F1E0A4EBB1E001900D928A95C4
:101BB000E1F7E0912B02F0912C02309749F086E09A
:101BC000809378010480F581E02D88E791E0099504
:101BD00008950E94910B8093700148E050E064EDFD
:101BE00071E080E791E00E949023892B89F388E0DF
:101BF000E0E7F1E0A4EDB1E001900D928A95E1F704
:101C0000E0912B02F0912C02309711F30280F381C6
:101C1000E02D80E791E0DBCF882321F00E948A0B42
:101C20000E94BA0D0895882339F09091DC01982B19
:101C30009093DC010E94BA0D08950F931F93CF93E8
:101C4000DF938B01EA0190914302943061F5809318
:101C5000E9008FEF9091E800815095FD06C095ED69
:101C60009A95F1F700008111F5CF8091E80085FF8A
:101C70001AC00E948B06811111C08091E80085FD79
:101C800006C08091E8008E778093E800F2CFF801DB
:101C900081918F018093F100219779F78091E8007D
:101CA0008E778093E800DF91CF911F910F91089577
:101CB00043E050E0BC0182E00E941D0E089546E022
:101CC00050E0BC0182E00E941D0E089540E250E009
:101CD000BC0182E00E941D0E0895CF93DF93EC01BA
:101CE00048E050E0BC0181E00E941D0E88E0FE014A
:101CF000A9E3B2E001900D928A95E1F7DF91CF91CF
:101D00000895B0E0A0E0E7E8FEE00C9434236C0115
:101D10007B0164E670E088E70E9430228C01E601D6
:101D2000EC0CFD1C17FD0BC0FE01849164E670E015
:101D30000E949C228C012196CE15DF0599F70E9406
:101D4000122381E00115110509F080E0CDB7DEB75F
:101D5000E8E00C945023CF9381E080939C0480E2D0
:101D600080939B040E942A226BE070E080E59CE057
:101D70000E94810E811104C0C0E08C2FCF91089584
:101D800080919C0465E070E081FD39C08BE49CE0AB
:101D90000E94810E882381F36DE070E089E39CE06E
:101DA0000E94810EC82F882339F30E94DA07605AF7
:101DB00075418F4F9F4F6093970470939804809361
:101DC000990490939A04E4E9F2E080E092E0DF0164
:101DD0009C011D9221503040E1F7F0939302E09373
:101DE00092028FEF9FEF909391028093900281E097
:101DF000809396048093950410929404BECF86E459
:101E00009CE0C6CF8091950490919604911103C0F7
:101E100091E089270895882369F062E070E086E701
:101E200091E00E94810E811103C080919504089574
:101E30001092950480919504EBCFCF93C0919504B7
:101E4000809196048823D1F00E94DA07605A754188
:101E50008F4F9F4F609397047093980480939904D9
:101E600090939A04C11108C062E070E084E791E0A9
:101E70000E94810E811105C0C09195048C2FCF91D5
:101E8000089581E080939504F7CF2F923F925F925F
:101E90006F927F928F929F92AF92BF92CF92DF927A
:101EA000EF92FF920F931F93CF93DF93809196044D
:101EB000882309F479C060E080E00E942C09209119
:101EC000FA013091FB01832F9927009751F19C0172
:101ED00088E0A90174E0569547957A95E1F7411598
:101EE000510511F08C5F9A01A901569547955695B9
:101EF00047954115510511F08E5F9A01369527954A
:101F0000232B09F08F5F813009F460C0882359F0DA
:101F1000823009F46CC0833009F47AC088E795E018
:101F200012C080E0D6CF60E080E00E942C0960EA19
:101F300070E088E791E00E94EC0865E081E00E9493
:101F40002C0981E995E00E94A90D6BE080E00E94D8
:101F50002C098091F90160EC70E0882309F469C0D4
:101F600088EF93E00E94EC0880919002909191029A
:101F7000892B09F061C0809195048823A9F00E9403
:101F8000DA070091970410919804209199043091F8
:101F90009A04601B710B820B930B6F3F7F4F8F4F27
:101FA0009F4710F40E94020FDF91CF911F910F9174
:101FB000FF90EF90DF90CF90BF90AF909F908F9069
:101FC0007F906F905F903F902F90089560E080E049
:101FD0000E942C0960EA70E088E192E00E94EC081F
:101FE00065E081E00E942C098CE895E0ACCF60E0D0
:101FF00080E00E942C0960EA70E088EB92E00E9489
:10200000EC0865E081E00E942C0987E895E09BCF11
:1020100060E080E00E942C0960EA70E088E593E0CF
:102020000E94EC0865E081E00E942C0982E895E0BE
:102030008ACF88EB94E096CF80919604882309F4A8
:102040009ACF80919404811196CF0E941D0F209108
:102050009002309191022115310509F48CCF80E076
:1020600041E050E0082F10E01A01082E02C0220CB7
:10207000331C0A94E2F7B10162237323672B11F436
:102080008F5FF0CF90919C0490FF95C0880F880FD0
:10209000880F80930C0110920F01895F80930D01CE
:1020A00083E08093100124E630E047E050E06AE0EE
:1020B00071E088E70E94CA22892B09F05CCFA80151
:1020C00025E0440F551F2A95E1F780919C0480FF7D
:1020D00084C0ECEFF1E080E2DF011D928A95E9F720
:1020E000A9E6B1E005E611E08DE6C82E81E0D82E24
:1020F00097E0592E772473948D91E80129918E01F0
:10210000240F352F311D2C563D4FE82FF0E0E450C1
:10211000FE4F90E080E0652C681A872C082E01C0E5
:10212000880C0A94EAF77901A12CE701B9907E01A5
:10213000B820662D6A196770962E062E000C770B54
:10214000DB2D01C0DD0F9A94EAF771956195710955
:102150006770772701C0B6946A95EAF7BD2A608157
:10216000962E9B289082A39468E0A612DECF01965B
:1021700031968830910579F6CA16DB0609F0BCCF96
:1021800004E610E020E230E04CEF51E060E488E744
:102190000E94EB22892B09F0EECEE101C095D0958B
:1021A0008091900290919102C823D923D0939102FB
:1021B000C0939002E0CE8295880F807680930C01C8
:1021C0009801369527953695279520930F01815EC6
:1021D00080930D012093100166CF4C565D4F04E6AD
:1021E00010E020E230E0D2CF9091300292FB222723
:1021F00020F9281779F080FB92F9909330026091D2
:102200002F027091300284E090E00E94D92382E096
:102210000E94830C08951F920F920FB60F92112403
:102220002F933F934F935F936F937F938F939F93DE
:10223000AF93BF93EF93FF938091E10082FF09C0BA
:102240008091E20082FF05C08091E1008B7F809346
:10225000E1008091DA0080FF24C08091D80080FFE7
:1022600020C08091DA008E7F8093DA008091D900BF
:1022700080FF9DC080E189BD82E189BD09B400FE77
:10228000FDCF81E08093430280913602811109C025
:102290000E946C060E940D078091E200846080938A
:1022A000E2008091E10080FF17C08091E20080FF92
:1022B00013C08091E2008E7F8093E2008091E20063
:1022C00080618093E2008091D80080628093D80082
:1022D00019BC85E0809343028091E10084FF2BC00C
:1022E0008091E20084FF27C080E189BD82E189BD41
:1022F00089B5982F917080FFFBCF8091D8008F7D9A
:102300008093D8008091E1008F7E8093E1008091DE
:10231000E2008F7E8093E2008091E20081608093F2
:10232000E20080914402882309F447C084E080934E
:102330004302809143028091E10083FF27C0809196
:10234000E20083FF23C08091E100877F8093E1005A
:1023500082E080934302109244028091E1008E7FDC
:102360008093E1008091E2008E7F8093E200809173
:10237000E20080618093E20042E060E080E00E9441
:10238000DB068091F00088608093F000FF91EF9170
:10239000BF91AF919F918F917F916F915F914F917D
:1023A0003F912F910F900FBE0F901F90189519BC61
:1023B000109243021092360274CF8091E30087FDA1
:1023C00093E090934302B5CF78941F921FB61F926B
:1023D00011248F939F93AF93BF938091320290917A
:1023E0003302A0913402B09135020196A11DB11DB6
:1023F0008093320290933302A0933402B09335025B
:10240000BF91AF919F918F911F901FBE1F90189504
:102410009C014FB7F8948091320290913302A091C1
:102420003402B09135024FBF821B930B08952FB732
:10243000F8948091320290913302A0913402B091CD
:1024400035022FBF08950E9417129C01909125021A
:1024500080912602982B21F03093220220932102B2
:102460009091270280912802982B21F0309320022E
:1024700020931F02E0912B02F0912C02309749F03B
:1024800082E0809323020680F781E02D83E292E0D0
:10249000099508951092DC0180911101882339F18A
:1024A00080912F0287FF23C0EAE7F1E08EE1DF0190
:1024B0001D928A95E9F790E080E00E946A0890E01A
:1024C00080E00E9445081092B3010E94BA0D86E098
:1024D000E3E2F2E0DF011D928A95E9F710921C0217
:1024E00010921D0210921E020E9423120895E2E72C
:1024F000F1E086E0DCCFAAE2B0E0E1E8F2E10C94A2
:10250000392385E492E02091F100FC012193CF0171
:10251000F2E08D349F07B9F780914602833009F4C9
:1025200070C0B8F4813009F447C0823009F4B1C0FA
:102530008091E80083FF7EC280914502909146021F
:102540009A3008F077C2E92FF0E0EF50FC4D0C9480
:1025500081238A3009F48CC08B3009F46FC0893034
:1025600039F780914502813219F7809149029091A3
:102570004A020297E8F68091E800877F8093E8009E
:102580008091E80082FF38C09091F3008091F200C2
:10259000029731F48091F100813011F0863021F4FE
:1025A0008091F100809338028091E8008B778093CE
:1025B000E8000E94BC06BCCF80914502813A09F038
:1025C000B7CF8091E800877F8093E800809149022F
:1025D00090914A02892B61F468E089E392E070E00F
:1025E0000E9468078091E8008B778093E800A0CF75
:1025F00060E090E080E0F3CF809143028111C0CF92
:1026000097CF80914502813A09F092CF809149029B
:1026100090914A02892B09F08BCF8091E800877F47
:102620008093E8008091E80080FFFCCF8091110149
:102630008093F1008091E8008E77B9CF80914502B8
:10264000813209F075CF8091490290914A02892B1D
:1026500009F06ECF8091E800877F8093E8000E94A8
:10266000BC0680914702809311010E944A1260CFFC
:1026700080914502813209F05BCF8091E800877F2D
:102680008093E8000E94BC06809148028093370244
:102690004FCF80914502813A09F04ACF8091E800FE
:1026A000877F8093E8008091E80080FFFCCF8091D5
:1026B0003702BECF803899F0823809F0BBC18091D3
:1026C00049028F70873008F0B5C18093E90080918E
:1026D000EB0085FB882780F91092E90006C0809105
:1026E000410290914202911182609091E800977F9F
:1026F0009093E8008093F1001092F1008091E8003F
:102700008E7794C1882309F482C1823009F092C186
:1027100080914702811185C1809149028F702FEF0E
:10272000280F263008F086C18093E9002091EB0045
:1027300020FF77C1933031F48091EB008062809369
:10274000EB006FC19091EB0090619093EB0021E062
:1027500030E001C0220F8A95EAF72093EA00109238
:10276000EA008091EB008860EACF811163C110918B
:1027700047021F778091E3008078812B8093E300EC
:102780008091E800877F8093E8000E94BC068091DA
:10279000E80080FFFCCF8091E30080688093E30035
:1027A00082E0111183E08093430244C1805882305B
:1027B00008F040C180914702909148028C3D23E08F
:1027C0009207A1F583E08A838AE289834FB7F89460
:1027D000DE01139620E03EE051E2E32FF0E050935B
:1027E0005700E49120FF03C0E295EF703F5FEF7068
:1027F0008E2F90E0EA30C0F0C7968D939D932F5FA7
:10280000243159F74FBF8091E800877F8093E8001B
:102810006AE270E0CE0101960E9468078091E800AC
:102820008B778093E80006C1C096E7CF40914902BC
:1028300050914A02292F33272330310509F444C02F
:1028400078F52130310509F46FC08BE390E0E0E9C1
:10285000F6E02230310509F0EDC02091E800277F35
:102860002093E80020914B0230914C02821793078D
:1028700008F49C0140E02115310509F064C04111C4
:1028800062C08091E80082FDC9CF80914302882315
:1028900029F2853019F28091E80083FFF2CFBECF94
:1028A00021323105A9F12232310509F0C3C04115A9
:1028B000510509F443C04130510509F0BBC086EB16
:1028C00090E0E6E9F5E0C9CF992781309105C1F0A4
:1028D000009759F0029709F0ADC0EDEDF6E0E491F4
:1028E0008E2F90E0EDEDF6E007C0E5EFF6E0E49125
:1028F0008E2F90E0E5EFF6E0009709F49BC0ADCF96
:10290000EBEEF6E0E4918E2F90E0EBEEF6E0F4CF04
:102910004115510571F04130510509F08BC089E036
:1029200090E0EBEBF6E099CF82E190E0EBECF6E0A3
:1029300094CF89E090E0E2EAF6E08FCF84E490E083
:10294000ECE4F6E08ACF80914302882309F466CF55
:10295000853009F463CF8091E80083FD5FCF8091DB
:10296000E80082FD8ECF8091E80080FF84CF9091B7
:10297000F3008091F2002115310519F0883091059E
:1029800050F041E0089709F040E08091E8008E7730
:102990008093E80070CF44914093F100319621502C
:1029A00031090196E8CF803809F044C08091E800F1
:1029B000877F8093E800809144028093F1009ECE4F
:1029C000811138C0109147021230A0F58091E800C3
:1029D000877F8093E800109344020E94BC06112375
:1029E00011F084E005C08091E30087FDFACF81E01B
:1029F0008093430242E061EC81E00E94DB0642E208
:102A000061EC82E00E94DB068091430213C080915A
:102A10004702813079F481E0933009F080E08093BF
:102A200042021092E9008091E800877F8093E800DD
:102A30000E94BC068091E80083FF0AC08091E800F4
:102A4000877F8093E8008091EB0080628093EB00A9
:102A5000AA96E3E00C9455231F920F920FB60F92A3
:102A600011242F933F934F935F936F937F938F9393
:102A70009F93AF93BF93CF93DF93EF93FF93D09147
:102A8000E900DF708091EC00C82FC17080FDC0E8C4
:102A90001092E9008091F000877F8093F000789495
:102AA0000E947B121092E9008091F0008860809370
:102AB000F000CD2BCF70C093E900FF91EF91DF9133
:102AC000CF91BF91AF919F918F917F916F915F91C6
:102AD0004F913F912F910F900FBE0F901F9018951F
:102AE0000E944A122FEF84E39CE0215080409040E6
:102AF000E1F700C0000088E19AE00FB6F894A895CD
:102B0000809360000FBE90936000FFCF409125023C
:102B10009091270220912802662309F469C0942B22
:102B2000922B20912602922B31F098E090931C0278
:102B300091E090931D028D3C41F40E94BE08819566
:102B4000809326020E94231208958E3C19F40E945D
:102B5000BE08F6CF8F3C31F40E94BE088195809369
:102B60002502F0CF803D19F40E94BE08F8CF893DC0
:102B700029F40E949C0880932702E4CF8A3D21F427
:102B80000E949C088195F7CF8B3D31F40E949C08F0
:102B9000819580932802D6CF8C3D19F40E949C0821
:102BA000F8CF9FE2980F983070F4815D990B21E087
:102BB00030E001C0220F8A95EAF780912402822B2F
:102BC00080932402BFCF8D3D31F480911E0281603D
:102BD00080931E02B7CF8E3D21F480911E02826049
:102BE000F7CF8F3D09F0AECF80911E028460F0CF09
:102BF0008D3C59F48091260287FF0DC01092260269
:102C000041110BC010921C0208C08E3C81F48091CF
:102C1000260218169CF3442381F08091270290919C
:102C20002802892B09F08ECF10921D028BCF8F3C8A
:102C300049F447FFF0CF10922502809126028111BE
:102C4000ECCFE0CF803D19F41416ACF3E4CF893D0E
:102C500029F4191604F710922702DDCF8A3D19F4E2
:102C600097FFD9CFF8CF8B3D29F427FFD4CF10920F
:102C70002802D1CF8C3D19F41216CCF3CCCF9FE2B1
:102C8000980F983090F4815D990B21E030E0B90104
:102C900002C0660F771F8A95E2F7CB01809590916D
:102CA0002402892380932402B6CF8D3D31F4809194
:102CB0001E028E7F80931E02AECF8E3D21F4809146
:102CC0001E028D7FF7CF8F3D09F0A5CF80911E02A8
:102CD0008B7FF0CF882381F19CEF980F913A28F4F5
:102CE0000E94E6070E94BA0D089590E2980F98306E
:102CF00050F4877091E001C0990F8A95EAF7892F07
:102D00000E948A0BEFCF9BE5980F933028F490E058
:102D100080E00E946A08089598E5980F9B3128F496
:102D200090E080E00E944508089593E3980F933166
:102D300018F460E00E9486150895CF93C82F882369
:102D4000B1F18CEF8C0F813AA0F5809111018823AD
:102D500001F180912F0287FF1CC0EC2FE695E695CC
:102D6000E695F0E0E858FE4F828190E04C2F4770E6
:102D700021E030E002C0220F331F4A95E2F78223A0
:102D80009323892B79F08C2F0E94E6070E94BA0DBD
:102D900009C0E2E7F1E08191C817A9F381E0E837C3
:102DA000F807C9F78C2F0E9411080E94BA0DCF9125
:102DB000089580E28C0F883068F4C77021E030E01D
:102DC00001C0220FCA95EAF78091DC01822B809323
:102DD000DC01EBCFEBE5EC0FE33040F4F0E0EE5E2E
:102DE000FE4F808190E00E946A08E1CFE8E5EC0F99
:102DF000EB3150F4F0E0EE0FFF1FEB5EFE4F8081F1
:102E000091810E944508D3CF83E38C0F833178F6FC
:102E100061E08C2F0E948615CACF1F93CF93DF935A
:102E2000182FEB010E949D16209739F4812F0E94E4
:102E30006A16DF91CF911F9108958FE99FE0019766
:102E4000F1F700C000002197EFCF0F931F93CF93AE
:102E5000DF93C62FD42F022FFC0185818823A9F090
:102E6000609389020E9417129093880280938702D0
:102E7000C77081E001C0880FCA95EAF70E94130E5F
:102E8000DF91CF911F910F9108958091890268136E
:102E900034C080918702909188020E940812883C79
:102EA000910558F510E21D0FCD17B9F080E28C0F97
:102EB000883040F4C77081E001C0880FCA95EAF7F6
:102EC0000E940C0E183048F481E09D2F977001C0CD
:102ED000880F9A95EAF70E94130E70E060E0802F49
:102EE0000E940D17183060F6D77081E001C0880F7E
:102EF000DA95EAF70E940C0EC3CFC77081E001C0DB
:102F0000880FCA95EAF7F6CFB0E0A0E0EAE8F7E16B
:102F10000C9432238C01FC018481882399F121E0F7
:102F2000408151816281738195810E94D20CEC01B4
:102F3000F8018581FE01E851FC47882309F4C0C3EC
:102F40009091F90121E092279093F901E730F10582
:102F5000A8F5E550FC4D0C94812326E241EE61EE8C
:102F6000C8010E9425178091B101877059F0F801BE
:102F70008581882339F08091300282FF03C082E08E
:102F80000E94830CCDB7DEB7EAE00C944E2327E213
:102F900045EE65EEE5CF26E241EE60EEE1CF27E2B9
:102FA00045EE64EEDDCF26E241EE62EED9CF27E2B8
:102FB00045EE66EED5CF28E241E0EBCF10928902D4
:102FC000CE019057839708F08BC384E090E00E9475
:102FD000A5239093300280932F02FE01E150F04729
:102FE000E232F10520F4EE5FFB4D0C9481238091D9
:102FF0002F02816080932F0295C0809130028860FB
:10300000809330028FC080912F028260F3CF809135
:103010002F028460EFCF80912F028860EBCF8091E8
:1030200030028160EDCF809130028260E9CF8091E3
:103030002F028061DFCF80912F028062DBCF8091F1
:103040002F028064D7CF0E944A1280912F0280689D
:10305000D1CF80912F028C60CDCF809130028360E0
:10306000CFCF80912F028E7FC5CF80913002877F96
:10307000C7CF80912F028D7FBDCF80912F028B7F94
:10308000B9CF80912F02877FB5CF809130028E7F9C
:10309000B7CF809130028D7FB3CF80912F028F7E8A
:1030A000A9CF80912F028F7DA5CF80912F028F7B9A
:1030B000A1CF0E944A1280912F028F779BCF8091DF
:1030C0002F02837F97CF809130028C7F99CF8091A0
:1030D0002F0282FB992790F921E0922790FB82F939
:1030E00090FB83F987CF80913002982F9095917053
:1030F0008E7F892B90FB81F983CF90912F02892FAE
:103100008F7B96FF806476CF0E944A1290912F02A7
:10311000892F97FB87F980586DCF61E08EE090E0B2
:103120000E94BB2360912F027091300284E090E0F6
:103130000E94D9230E944A1216CF60E0EFCF9091EF
:103140002F02892F8F7E94FF806154CF90912F02A0
:10315000892F8E7F90FF81604DCF90913002892F13
:10316000877F93FF88604CCF85E3CAC285E3B5C2F1
:10317000C3303CE7D30709F478C008F05BC0C11541
:103180009CE7D90709F464C0C130DC4709F473C077
:10319000F8018581C081D181882309F479C0CE01ED
:1031A0000E94C20BF82E682FCE010E94360CBE0181
:1031B0008F2D0E944D0A0E946C0AD82FC92FA82E6D
:1031C000F801C580B680B2943FE0B3228091B1018E
:1031D000877009F1EC2CCC20F9F0892F807F8034A6
:1031E00069F080E28D0F8830B0F0892F807E8032C8
:1031F00029F4F1E0FD1778F4BB2069F080913002EA
:1032000082FF09C082E00E94830C8091B101877027
:10321000EE24E3948111E12CDC2ED2942FE0D22213
:103220002BE02D1508F499C0ED2DF0E0EC5DFB4D81
:103230000C948123CB35FCE7DF0741F1CC353CE72B
:10324000D307D9F0CA35DC4709F0A2CF81E01BC013
:103250000E944A129FEFE4E3FCE09150E040F0400E
:10326000E1F700C000000E94C9076FEF7FEF90E018
:1032700080E00E94D9230E9470159091300292FB49
:10328000882780F982270E94F41082CF80E0FBCF4C
:10329000CE010E94030CF82E8ACF3C2F3F70F32EF4
:1032A000C07F19F0F29490EFF922CC20B9F0FF2002
:1032B00069F080E28D0F883010F0A11009C0809174
:1032C000DC01F82AF092DC010E94BA0D8D2F43C078
:1032D0008091B301F82AF092B301F6CF8D2F0E94AE
:1032E0006A16FF20D1F1D05ED83010F0A11004C0D2
:1032F0008F2D0E948A0B06C0F0948091B301F822B2
:10330000F092B3010E94BA0D28C08C2F8F70F82E56
:10331000C07FC03219F0F29480EFF822AA2059F051
:1033200091E0A91609F479C0CC2009F485C0BB202E
:1033300009F447C0CBCF8091300282FD3EC0CC2043
:10334000B1F1FF2039F08091DC01F82AF092DC0124
:103350000E94BA0D80E00E949D162D2D2850330B3F
:103360002430310510F40E948F08EE20A9F08091DE
:10337000B10180FD11C0F80115828695869586956C
:103380000E949A0CC8010E9484178091B101869511
:10339000869586950E94710C20E0F801408151814C
:1033A00062817381848195810E94D20CEBCD80E093
:1033B0000E946A16FF2089F29BCFCC20A1F0B110A9
:1033C00004C08F2D0E94130EC8CFE1E0BE12C5CFFE
:1033D0008091B2019F2D9823F91609F4BECFF82AE7
:1033E000F092B201BACFB110B8CF8F2D0E940C0E5F
:1033F0009091B2018F2D892329F08F2D80958923FB
:103400008093B201809199019F2D982309F4A5CF53
:10341000F094F822F0929901A0CFCC2029F0F5E0A9
:10342000FB1508F49ACFCDCF24E02B1508F495CFE7
:103430008F2D0E940C0E91CFBB20D1F339E3A31244
:1034400009C08FEF97EEE3E081509040E040E1F754
:1034500000C000008D2F0E946A167FCF8C2F8695AA
:103460008695837069F0813009F077CF8D2F9C2F7E
:103470009370C11002C080E090E00E9445086DCFBB
:103480008D2F9C2F9370C11002C080E090E00E94AD
:103490006A0863CF6C2D8D2F0E9486155ECF8C2F0E
:1034A000837009F03FC0C11058CF4D2F429546950B
:1034B0004770440F440F2D2F2F7030E0042E02C0B0
:1034C000220F331F0A94E2F790E080E0D4FF09C096
:1034D0008FE090E002C0880F991F4A95E2F780952F
:1034E0009095C695C695C370C23099F078F4409116
:1034F000E7015091E801C13039F0822B932B8423EE
:1035000095230E94AA0C29CF242B352B822B932B99
:10351000F8CF822B932B2091E7013091E80182278D
:103520009327EFCF8695CC2011F08C2F81708823C4
:1035300009F413CF4D2F429546954770440F440F21
:103540002D2F2F7030E0042E02C0220F331F0A945B
:10355000E2F790E080E0D4FF09C08FE090E002C085
:10356000880F991F4A95E2F780959095C695C69564
:10357000C370C23099F078F44091FA015091FB0188
:10358000C13039F0822B932B842395230E946C0C3D
:10359000E4CE242B352B822B932BF8CF822B932B2D
:1035A0002091FA013091FB0182279327EFCFCF7052
:1035B000CC2029F08C2F0E949A0C8D2F03CF8D2FB9
:1035C0000E940C0E8C2F0E94710CC7CE8D2FF2EF33
:1035D000AF1699F1FA1570F020EFA216D1F031EF85
:1035E000A31691F0CC2009F45BC0B1106FCE8C2FE4
:1035F0008F7127C093EFA91639F1E4EFAE12F2CF25
:103600008091300282FD2EC08C2F8F71CC20D9F298
:1036100018C0CC2069F0F4E0FB1508F49ECECF7101
:1036200081E090E002C0880F991FCA95E2F7B8CFF9
:1036300025E02B1508F491CEF2CF8C2F8F71C1109D
:10364000C2CF0E949A0C89CE90E080E0CC2009F491
:103650009DCFCF7181E090E002C0880F991FCA957D
:10366000E2F794CFCC2089F0CF718C2F0E949A0C76
:103670008091300282FF07C038E0C39FC00111244F
:1036800083608093B1018C2FDCCF81E00E94830C9A
:1036900081E08B1508F061CE82E00E94830C5DCE44
:1036A000BB2059F0893309F0D5CE9FEFE7EEF3E068
:1036B0009150E040F040E1F7CBCE8C2F8F7183CF5B
:1036C000E730F10508F445CCC631DC4709F060CDA0
:1036D0008091980181114ACD89E20E94E60712C0CB
:1036E000C631FCE7DF0709F043CD8091DC018A7A1F
:1036F00091E009F490E090939801811135CD89E231
:103700000E9411080E94BA0D2ECCCF93DF938091B6
:10371000B001807F09F04DC08091AF01882309F48A
:1037200048C0E091860250914D02C091AB01D0910A
:10373000AA016091AC017091AD0147E05E17C9F13B
:103740008E2F90E0E49FF0011124E25BFD4F248175
:10375000222391F1489FF001499FF00D1124DF01D0
:10376000A25BBD4F11962C9111972C1325C02C9163
:103770002D1322C015962C91159721111DC012965C
:103780002D913C91261B370B283C3105A8F48091E4
:10379000B0018F7080618093B001EC5AFD4F808141
:1037A0008F70806180838AEA91E00E9484170E9472
:1037B000B80BDF91CF910895FC013196E770BECF31
:1037C000A4E1B0E0E6EEFBE10C9430238C0186E04E
:1037D000F801DE011F9601900D928A95E1F7F8013C
:1037E0008481E5809AEAA92E91E0B92E9091AE01EC
:1037F000911128C0882319F1EE20F1F0C8010E9430
:10380000AF0CF82E8823C1F087E0F801D5010190B4
:103810000D928A95E1F78091AE01813031F480916B
:10382000AA019091AB010E94F60B0E94851B8F2D7F
:103830006496ECE00C944C23C8010E948417FF248A
:10384000F394F5CFD080C18082809380F090AF0157
:103850002091AC013091AD01A401421B530BFF201C
:1038600009F4D9C0483C510508F092C08823F9F208
:103870009091AB018091B001282F207F09F056C0B4
:10388000C91214C09091AA01D91210C0E11048C009
:103890008F7080618093B0018AEA91E00E94841762
:1038A0008091B001F8018683F12CC1CFE11038C0BE
:1038B0006C2D8D2D0E944D066C2D8D2D0E944D0678
:1038C000E82E8111F1CFDF86C88A8F8598890E9402
:1038D000F60B292F22952F70243058F49F70223038
:1038E00088F0992399F0F8019681907F79F4FE2C65
:1038F0009ECF2A5F2F70223068F0C8010E94841783
:10390000EF2CF5CF992311F0882389F3805E88305E
:1039100070F3F3CF803F58F3815F833070F7E7CFC8
:103920008091B00181608093B001BECFC91207C001
:103930009091AA01D91203C0EE2009F48DC0C801EC
:103940000E94AF0C882309F477CFEE2009F474CFDE
:103950008091B001803288F02091AA013091AB01B2
:10396000398728879B868A869091AE019C871D8621
:103970008E87CE0108960E94841787E0F801AAEA94
:10398000B1E001900D928A95E1F70E94851B57CF17
:103990009091B001292F207F51F48AEA91E00E9492
:1039A000841787E0F50111928A95E9F77DCF882386
:1039B00009F43DCF8091AB018C1110C08091AA0118
:1039C000D8120CC0E1100AC09683C8010E94841767
:1039D00087E0F50111928A95E9F729CFC8010E9485
:1039E000AF0C882309F428CFEE2009F425CF80916D
:1039F000B001803210F22091AA013091AB013A83DC
:103A000029839C828B829091AE019D831E828F833D
:103A1000CE010196B0CF483C5105D0F6882309F479
:103A20000ECFFE2CEE2009F407CF8091AB018C1154
:103A300020C08091AA01D8121CC08091B00180FDE5
:103A40000FC0982F907F61F08683903F31F0982FC0
:103A5000907F905F8F70892B8683C8010E948417A6
:103A600087E0F801AAEAB1E001900D928A95E1F7AA
:103A7000DECEC8010E94AF0C81117FCF8091B001D2
:103A800081608093B001C8010E948417D0CEABE161
:103A9000B0E0EDE4FDE10C9438234E8B5F8B688F32
:103AA000798F8A8F9B8F192F91111092B3011D8AE4
:103AB00086E0FE017696DE011F9601900D928A95B2
:103AC000E1F70A8D002341F021E04F85588969898B
:103AD0007A89C8010E94D20C0B8B1C8B87E0FE01F7
:103AE0003F96DE01189601900D928A95E1F7CE017E
:103AF00008960E94E01B81110CC087E0FE013896F9
:103B0000DE01119601900D928A95E1F78C85811165
:103B10000BC017E08091860290914D02891331C04D
:103B20006B96E4E00C94542320914D0230E0C901DF
:103B3000019687709927409186024817190699F0D7
:103B400097E0929FD001939FB00D1124A25BBD4FCF
:103B5000FE01319601900D929A95E1F780934D0206
:103B60000E94B80BD6CF0E944A1210924D021092BA
:103B7000860287E0EAEAF1E0DF011D928A95E9F723
:103B8000C8CF819FC0011124825B9D4F0E94E01B22
:103B9000882331F28091860290E001968770992700
:103BA00080938602B7CFA5E0B0E0E9EDFDE10C948B
:103BB00031238E010F5F1F4F85E0F80111928A9526
:103BC000E9F78BE4C82E81E0D82EF12CE12CAA2451
:103BD000A394B12CF60181916F018F3F09F443C08A
:103BE000F894E82FE295EF70F0E021A18F70A50125
:103BF00002C0440F551F8A95E2F7CA01922F982BF5
:103C000091A392A18095892382A3789400C0E0E5D6
:103C1000F1E0912C31E021912F3F09F44CC0A22F0B
:103C2000A295AF70B0E090968C9190E02F7002C09A
:103C3000959587952A95E2F780FD3DC0832F982AB8
:103C4000330F51E0E535F50731F7F6013197808103
:103C50008F3F11F00E94450980EA8A95F1F7F8013B
:103C6000EE0DFF1D9082EFEFEE1AFE0AF5E0EF1663
:103C7000F10409F0AFCF45E050E0B80182EE91E0E9
:103C80000E949023892BD9F085E0F801A2EEB1E0E3
:103C900001900D928A95E1F781E08093E1010E9405
:103CA00017129093E0018093DF0110E0812F259699
:103CB000EBE00C944D2380E0C2CF10E01FC01091C8
:103CC000E101112391F38091DF019091E0010E94C5
:103CD0000812059750F345E050E062EE71E089EE7E
:103CE00091E00E949023892B41F385E0E2EEF1E020
:103CF000A9EEB1E001900D928A95E1F71092E101F1
:103D0000D5CFA6E0B0E0E7E8FEE10C9438230E94AE
:103D100017128C018091DD019091DE0180179107CF
:103D200081F019821A820E941712682F49815A81E4
:103D3000792F80E090E00E94471D1093DE010093F0
:103D4000DD012696E4E00C9454231F921FB61F92C7
:103D500011248F939F93AF93BF9380913102811170
:103D600013C08091320290913302A0913402B0913D
:103D700035024196A11DB11D80933202909333020A
:103D8000A0933402B0933502BF91AF919F918F9170
:103D90001F901FBE1F901895CDB7DEB72E970FB698
:103DA000F894DEBF0FBECDBF85B7806885BF85B7ED
:103DB000806885BF84B7877F84BF0FB6F894A895C5
:103DC00080916000886180936000109260000FBE57
:103DD00080E890E00FB6F8948093610090936100C2
:103DE0000FBE83E499E090936F0180936E010E946F
:103DF0006C060E940D078091E20084608093E200CF
:103E00007894809143028823A1F01091E9001F70FB
:103E10009091EC00892F817090FD80E8182B109212
:103E2000E9008091E80083FD0E947B121F701093CF
:103E3000E90082E084BD93E095BD9AEF97BD809341
:103E40006E0081E08093F60185988D9A84988C9A13
:103E50008FE891E00197F1F700C000002091F60192
:103E600047EF51E0FA018E2F841B821708F4BDC082
:103E70000BE411E0D8018D918D018F3F11F00E946C
:103E80004509B1E000351B07A9F700E511E0F8018D
:103E900081918F018F3F11F00E944509F1E00535B6
:103EA0001F07A9F785E0E9EEF1E0DF01282F1D9259
:103EB0002A95E9F7E2EEF1E0DF011D928A95E9F734
:103EC00090E080E00E94A523863E9E4F09F466C0E4
:103ED00066EE7EEF90E080E00E94D92360E082E011
:103EE00090E00E94BB2381E090E09093E8018093F2
:103EF000E70161E083E090E00E94BB2360E074E1B1
:103F000084E090E00E94D92360E086E090E00E9487
:103F1000BB236FEF87E090E00E94BB2340E050E0BE
:103F2000BA0188E090E00E94CD2360E084E290E056
:103F30000E94BB2360E087E190E00E94BB2360E029
:103F40008CE090E00E94BB2360E08DE090E00E9456
:103F5000BB2319821A821B821C821D821E821F8231
:103F6000188648E050E068E170E0CE0101960E94BA
:103F7000AB2340E050E0BA0180E290E00E94CD2304
:103F800040E050E0BA018FE090E00E94CD2340E095
:103F900050E0BA0183E190E00E94CD2382E090E0FE
:103FA0000E949D238093EE0184E090E00E94A5236F
:103FB0009093300280932F020E94D31DEFEFF6E71B
:103FC00021E0E150F0402040E1F700C000000E94F5
:103FD000D31D8091E90180FF14C06FEF7FEF90E067
:103FE00080E00E94D9230E94C9078FB185FB8827F2
:103FF00080F97C9904C090E0892B819334CF92E0C2
:10400000FBCF83E090E00E949D2390E00E94AA0CE9
:104010000E94AB0E8FEF97EAA1E681509040A0403E
:10402000E1F700C000000E94AB0E80E091E09093A9
:104030002C0280932B0238E1E32EF12C89EE91E0E3
:1040400045E0842E880E54E0C52ED12C8091430289
:1040500020E4B22E00E112E1853009F47FC00E9415
:10406000D31D8FEEA82E81E0B82E99EE692E91E037
:10407000792ED301F50191918D9121E0E43FF20772
:1040800009F476C09817B9F310E033243394D301C0
:104090000D913D01F50141905F01401619F1402657
:1040A000912C55245394842D8521A1F099861A874B
:1040B0000E9417129C878B873D8691E0802F852177
:1040C00009F490E09E8749855A856B857C858D85AE
:1040D0000E94471D9394550CF5E09F12E4CFF50123
:1040E000319700831F5F153091F60E94DA0766242E
:1040F000639443C080914302843019F10E94020FFF
:10410000109231020FB6F894A895E09260000FBEAD
:10411000B092600083B7817F846083BF83B7816082
:1041200083BF7894889583B78E7F83BF0FB6F8944A
:10413000A895809160008861809360001092600073
:104140000FBE80914202882349F00E94D31DE9EE00
:10415000F1E0819181115AC18E12FBCF809143020F
:10416000853009F4C7CF0E944A120E948F0877CF8A
:1041700098138ACF0E94811E612C912C712C809102
:10418000F601981650F0772009F458C00E94DA071B
:104190000E94450F0E941D0F55C0092D10E0EFB180
:1041A000E5FBEE27E0F97C9947C080E08E2BD80133
:1041B000A950BE4FEC919E2F93708917D9F1EE0F45
:1041C000EE0FE82BEC93EF70F0E0EB5AFE4FC801D6
:1041D0008B509E4F5C018081D5019C91890F8C93FF
:1041E00020E0843064F0F801EC50FE4F80818F5F56
:1041F00080836AE070E08AEA0E940D1721E0F501F1
:1042000080818D3F64F4F801EC50FE4F8081815035
:1042100080836AE070E089EA0E940D1721E0D501F1
:104220008C91082E000C990BB6010E946D23F501AC
:104230008083722A9394A3CF82E0B8CF0E94450F67
:104240006110A8CF86E0E3E2F2E0DE011196019072
:104250000D928A95E1F790902402B090250200918A
:104260002602A09027021091280210922502109297
:1042700026021092270210922802802F8B2909F41F
:1042800045C080912102909122020E9408129C0157
:1042900090911C02992309F4D8C025313105B0F161
:1042A0009F3F19F09F5F90931C02BB2059F00E9422
:1042B000BE089FEF1B140CF491E0899F802D112400
:1042C00080932502002359F00E94BE0891E0101649
:1042D0000CF09FEF899F802D1124809326028091FE
:1042E0002502882399F070902602772079F00E94A9
:1042F000DE08882309F482C080932502872D0E945E
:10430000DE08882309F47CC080932602812F8A2945
:1043100009F443C080911F02909120020E9408126C
:104320009C0190911D02992309F48AC02135310521
:10433000A0F19F3F19F09F5F90931D02AA2059F0B2
:104340000E949C089FEF1A140CF491E0899F802D25
:10435000112480932702112359F00E949C0891E0B8
:1043600011160CF09FEF899F802D11248093280255
:1043700080912702882389F0A0902802AA2069F062
:104380000E94DE088823F1F1809327028A2D0E9483
:10439000DE088823C9F180932802809124029812B4
:1043A00016C080912502882311F0B81210C0209108
:1043B0002602222311F002130AC0909128029923A9
:1043C00011F0191304C0309127023323A9F10E9480
:1043D000231286E0FE013196A3E2B2E001900D9235
:1043E0008A95E1F70E948F089091F801891709F4E6
:1043F0002DCE8093F8010E94DA0728CE81E07CCF91
:1044000081E082CF81E0C0CF81E0C5CF09BD19BD79
:1044100009B400FEFDCF8091D8008F7D8093D80035
:104420008091E00082608093E0008091E00081FD57
:10443000FCCF0E944A1292CE822B892B51F2C7CF19
:104440002B30310508F077CFA8CF2B30310508F09D
:1044500029CF5CCF1092B9008CE08093B80008950A
:10446000B0E0A0E0E6E3F2E20C943123B82EEB01D9
:104470000E9417126C01EE24E394F12CC431D10593
:1044800060F025E0E22EF12CCF3FDC0731F0CE01C9
:1044900064E170E00E9416237B0184EAA82E94E870
:1044A000992E1092BC00A092BC000E9417128C01A1
:1044B0008091BC0087FF0DC08091B900887F883053
:1044C000F9F08091B900887F8031D1F00FEF1FEFB4
:1044D00008C0C8010E940812E816F90648F70EEF56
:1044E0001FEFCF3FDC07E9F2C6010E940812C81790
:1044F000D907B8F6C801CDB7DEB7EBE00C944D2371
:10450000B092BB009092BC000E9417128C01809167
:10451000BC0087FF0AC08091B900887F883111F004
:104520008034A1F610E000E0E5CFC8010E94081237
:10453000E816F90660F7D3CF0F931F93CF93DF935D
:10454000EB018093BB0084E88093BC000E941712AB
:104550008C018091BC0087FF11C02091B900287F99
:1045600081E090E0283211F490E080E0919581950F
:104570009109DF91CF911F910F910895CF3FDC07F3
:1045800041F3C8010E940812C817D90710F78EEF2F
:104590009FEFEFCFB0E0A0E0E0EDF2E20C94342327
:1045A0006B018A017901B9010E943022E6010C0DEC
:1045B0001D1DC017D10711F097FF08C024E92093F3
:1045C000BC00CDB7DEB7E8E00C945023B701899169
:1045D0000E949C22EECFB0E0A0E0E1EFF2E20C946A
:1045E0003423C62F6A017901B8010E94302297FD59
:1045F0000CC0B8018C2F0E949C22E601EC0CFD1C23
:10460000CE15DF0511F097FF08C024E92093BC0008
:10461000CDB7DEB7E8E00C945023B80189910E9431
:104620009C22EECF84E98093BC000895AA1BBB1B9B
:1046300051E107C0AA1FBB1FA617B70710F0A61BA2
:10464000B70B881F991F5A95A9F780959095BC01C3
:10465000CD0108952F923F924F925F926F927F9279
:104660008F929F92AF92BF92CF92DF92EF92FF9282
:104670000F931F93CF93DF93CDB7DEB7CA1BDB0B2E
:104680000FB6F894DEBF0FBECDBF09942A883988D3
:1046900048885F846E847D848C849B84AA84B984DA
:1046A000C884DF80EE80FD800C811B81AA81B981E6
:1046B000CE0FD11D0FB6F894DEBF0FBECDBFED01FA
:1046C0000895991B79E004C0991F961708F0961B6E
:1046D000881F7A95C9F78095089597FB072E16F4E1
:1046E000009407D077FD09D00E94162307FC05D05F
:1046F0003EF4909581959F4F0895709561957F4FF9
:104700000895EE0FFF1F0590F491E02D0994FB0131
:10471000DC0102C005900D9241505040D8F7089539
:10472000FB01DC0104C08D910190801921F44150FE
:104730005040C8F7881B990B0895F999FECF92BD98
:1047400081BDF89A992780B50895A8E1B0E042E0CC
:1047500050E00C94E123DC01A40FB51F4150504000
:1047600048F0CB01840F951F2E910E94BC2341502D
:104770005040D0F70895262FF999FECF92BD81BD04
:10478000F89A019700B4021639F01FBA20BD0FB68F
:10479000F894FA9AF99A0FBE08950396272F0E946B
:1047A000BC230E94BB23252F0E94BC23242F0C94E2
:1047B000BC230196272F0E94BC230C94BB23DC0151
:1047C000CB01FC01F999FECF06C0F2BDE1BDF89A1C
:1047D000319600B40D9241505040B8F70895F894C6
:1047E000FFCF5A1382131A1582131A15B513D61355
:1047F0001A15D314E014CB17CF17AD17C717D3175B
:10480000D717DB173118A6183918031807183D18E1
:104810000B1841184D1817189F181B1851181F18FE
:1048200055187D1823185918841829185F18671807
:104830000F184518131849182D18631873188D1878
:104840009D18FD173518AD184D194D198519851985
:104850002E1A4A1AAD19AD194F1AD71AE61AE61AC6
:10486000C6076D0E660E5F0E580E0021007F2200F7
:104870000301818283E200E900EA00B500B600B7D7
:1048800000CD008301CC008A019201940121022312
:104890000224022502260227022A02B300B4006F76
:1048A0000070009F01CB019F02A00236323331F726
:1048B00097946634C600FF0100010000FFFF00006E
:0E48C000010001FF0000081018181008000089
:00000001FF
