:100000000C9419070C9436070C9436070C94360799
:100010000C9436070C9436070C9436070C9436076C
:100020000C9436070C9436070C9438150C94B31ABC
:100030000C94C82B0C9436070C9436070C94360796
:100040000C9436070C9436070C9436070C9436073C
:100050000C9436070C9411160C9436070C94360742
:100060000C9436070C9436070C9436070C9436071C
:100070000C9436070C9436070C9436070C9436070C
:100080000C9436070C9436070C9436070C943607FC
:100090000C9436070C9436070C9436070C943607EC
:1000A0000C9436070C9436070C943607050109802A
:1000B000A101850319012AB700150126B700950192
:1000C00075108100C0050C0901A101850419012AE0
:1000D000A002150126A002950175108100C005013E
:1000E0000906A1018506050719E029E71500250184
:1000F0009508750181020507190029EF15002501F2
:1001000095F075018102050819012905950575010C
:100110009102950175039101C00660FF0961A1017B
:100120000962150026FF00952075088102096315F4
:100130000026FF00952075089102C005010906A15F
:1001400001050719E029E7150025019508750181CA
:10015000029501750881010507190029FF15002680
:10016000FF0095067508810005081901290515008D
:100170002501950575019102950175039101C0FD59
:10018000377A585A000004E6D6B446020021011618
:10019000000000742FE5A3E0017C00BF5D003D88F6
:1001A00089C65436C31750C5CECCFFC122466095D0
:1001B000FCF1BF845E9AD1D30FACD9AE509963687D
:1001C0004032FB29FC90E1F8A691B159A3ECDE9EE8
:1001D000D91F5D3CA3A0B3FE28ABD56BDFE0629FC7
:1001E0006337D29550CFF0E3755F9B6AA603966E96
:1001F000A7894B3F0B08E1E3CAA8816ABD4B0929D7
:1002000001D07F3ACE0BAA643E1292586914115D58
:1002100070B8C448CF1A4F54C8501EFDE42FCD7398
:100220004C1CA96DA9DE34B3DB7BD83CD50FC6A12D
:100230002E66B5F70C33B1DA25759299CB466A0173
:10024000FD758D240C655EC4A184D7F9FBA7EC5124
:100250002106491A5F4FBFE9D67767429C0000DF4D
:10026000EDFBC9B32D78F30001DB01FD0200009521
:100270000B44F1B1C467FB020000000004595A00AE
:10028000AF00AE406060F0F0F0F8F8F8FCFCFEFE65
:10029000FEFFFFFFFFFEFEFCFCFCF8F8F0F0E0E0E4
:1002A000E0C0402030707848C98D87070707070FE6
:1002B0000F0F1F1F0F0F0F070707070F8B9991D104
:1002C0007060201018182C246446C3838302020631
:1002D000040408080404040202838387C54C4868A8
:1002E000383010080C1C161232236141C181818301
:1002F000020204040202028181C1414362262434C5
:100300001C180800000000000000000000000001B0
:1003100001030202030101010000000000000000CF
:10032000000000406060B090901808080C040602BD
:100330000203010103020604040C0818103020A077
:10034000C0C0402030307878F9FDFFFEFEFCFCFC98
:10035000F8F8F0F0F8F8F8FCFCFEFEFEFBF9F1F11D
:100360006060201018182C246446C383830303079D
:1003700007070F0F0707070303838387C54C4868E8
:10038000303010080C0C1E1232236141C181818370
:10039000020204040202028181C141436226243424
:1003A0001818080000000000000000000000000114
:1003B000010302020301010100000000000000002F
:1003C000000000006060A090901808080C0404026F
:1003D000020301010302060404080818103020A0DB
:1003E000C0C0400030305048C98D87060604040C58
:1003F00008081010080808040406060E8B9991508E
:10040000606020001818383C7C7EFFFFFFFEFEFE77
:10041000FCFCF8F8FCFCFCFEFEFFFFFFFD7C7838DE
:10042000303010000C0C1412322361414181818361
:10043000030307070303038181C141436226241498
:100440001818080000000000000000000000000173
:10045000010302020301010000000000000000008F
:10046000000000004060A090901008080C040402F6
:10047000020201010202060404080810103020A044
:10048000C040000020305048488985060604040C0E
:1004900008081010080808040406060A89919150FB
:1004A000606000001018282424444283830202065E
:1004B000040408080404040202838385444C482889
:1004C000301000000C0C1C1E1E3E3F7F7FFFFFFF04
:1004D000FEFEFCFCFEFEFEFFFF7F7F7E3E3C3C1CE2
:1004E00018080000000000000000000000000001EB
:1004F00001010303010101000000000000000000F1
:10050000000000000000F806F2F2F4E4D83070C0F9
:10051000C0C040601010101010080402797D02FC69
:1005200000000000000000030C33C78F9F87C1E06C
:100530002004040E8A8480000000202285820007A7
:100540000810E000000000000000018F7F7F67308E
:100550000000000081C0C0E0E0E0E1E1F0F008E46C
:10056000100E01000000008060180601000000006D
:10057000003CFEFFFFFFFFFFFFFFFFFFFFFFFEC18D
:100580003EC00000F00C020100000000000000006E
:1005900000000003FFFFFFFFFFFFFFFFFFFFFFFF64
:1005A000F0FF000700000000000000000000000055
:1005B00000000000070707070707070707070707E7
:1005C0000707000038E404E4E4E8C81020204040B5
:1005D0004020201010101010181C1A45C10EF000F9
:1005E0000000000000030E11E78F9F9FC000000075
:1005F0000283E1F1F0F8FCFDFDFCFCFCFCF8F0E10D
:10060000C20CF0000000000000010FFF39000000E4
:10061000000F1F3F3F7FFFFFFFFFFFFF7F7F3F0F69
:1006200083700F00000080601806010000000000C9
:10063000000E1EFCFCFCFCFCFCFCFCFCFC827EC1F5
:10064000000000C0380601000000000000000000AB
:100650000000001FFFFFFFFFFFFFFFFFFFFFFEC1C6
:10066000FE00000700000000000000000000000085
:100670000000000007070707070707070707070726
:10068000070000556E646566696E656400436F64BB
:10069000650047616D650046756E63004261736574
:1006A00000A800530054005500560000005F006091
:1006B000006100570000005C005D005E000000006B
:1006C0000059005A005B0000000152620000006304
:1006D00000580001000100010001000100000001BC
:1006E0000001000100010000000100040101000000
:1006F0000000001B0106011901000002521D01004B
:1007000000010001000100010001000100010000E2
:10071000001E001F0020000100000014001A000845
:100720000000000000040016000700000003520152
:1007300000000001000100010001000100010001B2
:1007400000000001000100010001000000010001A3
:100750000001000000000035010E03380100000018
:10076000520100000001000100A900AA00A900AA8E
:1007700000A900AA00A900AA0009025B0003010069
:10078000A0FA090400000103010100092111010080
:100790000122440007058103080001090401000249
:1007A0000300000009211101000122220007058237
:1007B00003200001070503032000010904020001D2
:1007C00003000000092111010001226D00070584CA
:1007D0000320000112010002000000084E44020044
:1007E0000001010203011C037600690061006C0036
:1007F0003A006600360034006300320062003300C5
:10080000630000000C036E0064006B0031003600D2
:10081000000008036E0064006B000000040309047C
:1008200000000000000000000000000000000000C8
:1008300000000000000000000000000000000000B8
:10084000000000007E0F00D4FFFFFFC7000000780B
:1008500000000000000000002A2B2800000000001B
:10086000000000000000000000000029000000005F
:100870002C1E3420212224342627252E362D3738CD
:10088000271E1F202122232425263333362E3738D6
:100890001F0405060708090A0B0C0D0E0F10111294
:1008A000131415161718191A1B1C1D2F3130232D60
:1008B000350405060708090A0B0C0D0E0F1011125E
:1008C000131415161718191A1B1C1D2F3130354C0F
:1008D00007087F0807003E5B4F5B3E003E6B4F6B97
:1008E0003E001C3E7C3E1C00183C7E3C18001C5701
:1008F0007D571C001C5E7F5E1C0000183C18000029
:10090000FFE7C3E7FF00001824180000FFE7DBE75C
:10091000FF0030483A060E00262979292600407F3C
:1009200005050700407F05253F005A3CE73C5A007B
:100930007F3E1C1C0800081C1C3E7F0014227F22E6
:1009400014005F5F005F5F0006097F017F000066A3
:1009500089956A0060606060600094A2FFA29400C4
:1009600008047E04080010207E20100008082A1CBD
:100970000800081C2A0808001E10101010000C1E89
:100980000C1E0C0030383E383000060E3E0E0600BD
:1009900000000000000000005F00000000070007EA
:1009A0000000147F147F1400242A7F2A12002313CE
:1009B0000864620036495620500000080703000012
:1009C000001C224100000041221C00002A1C7F1C48
:1009D0002A0008083E08080000807030000008085F
:1009E00008080800000060600000201008040200F1
:1009F0003E5149453E0000427F400000724949494E
:100A000046002141494D33001814127F100027453C
:100A1000454539003C4A4949310041211109070047
:100A2000364949493600464949291E00000014004C
:100A3000000000403400000000081422410014149B
:100A40001414140000412214080002015909060080
:100A50003E415D594E007C1211127C007F4949498C
:100A600036003E41414122007F4141413E007F49E5
:100A7000494941007F09090901003E414151730084
:100A80007F0808087F0000417F4100002040413F6F
:100A900001007F08142241007F40404040007F0257
:100AA0001C027F007F0408107F003E4141413E0050
:100AB0007F09090906003E4151215E007F0919297D
:100AC000460026494949320003017F0103003F40A7
:100AD00040403F001F2040201F003F4038403F0063
:100AE0006314081463000304780403006159494D3A
:100AF0004300007F414141000204081020000041F2
:100B000041417F0004020102040040404040400097
:100B10000003070800002054547840007F28444414
:100B20003800384444442800384444287F0038546E
:100B30005454180000087E09020018A4A49C7800F0
:100B40007F080404780000447D4000002040403DC0
:100B500000007F102844000000417F4000007C041A
:100B6000780478007C080404780038444444380051
:100B7000FC182424180018242418FC007C08040401
:100B8000080048545454240004043F4424003C40CA
:100B900040207C001C2040201C003C4030403C0099
:100BA0004428102844004C9090907C004464544C9D
:100BB00044000008364100000000770000000041BA
:100BC000360800000201020402003C2623263C00F5
:100BD000000000000000404040F0F8F8FF38FFF847
:100BE000F83FF8F8FF38FFF8F8F040404000000008
:100BF00000000080C0C0C0800000C0C080000000B5
:100C000080C0C000C0C0000080C0C0000000000064
:100C1000C0C0C0C0C000C0C0000000000000000094
:100C200000000000000000000000000000000000C4
:100C300000000000000000000000000000000000B4
:100C4000000000000000000000000000000000C0E4
:100C5000F0F8FC3E1E06010000007F4141417F008C
:100C60007F4141417F000080C0E07E5B4F5BFEC062
:100C70000000C000DCD7DEDEDED7DC00C0000000F4
:100C80000000000000000000000000000000000064
:100C9000000000000000494949FFFFFFFFE0DFBFFF
:100CA000BF00BFBFDFE0FFFFFFFF49494900000071
:100CB00000001F3F6060E0BF1F007F7F071E381EDF
:100CC000077F7F007F7F0E1F3B71600000000000E8
:100CD0007F7F0C0C0C007E7E007F7E0303007F7EF6
:100CE00003037E7E03037F7E000F3E703C063C7054
:100CF0003E0F00327B49493F7E007F7E0303001E8A
:100D00003F69696F2600000000000000000000033A
:100D10000F1F3F3C7870600000007F4141417F0021
:100D20007F4141417F00307B7F7830202030787FC9
:100D30003B0003000F7F0F0F0F7F0F000300000029
:100D400000000000000000000000000000000000A3
:100D5000000000000000010101070F0F7F0F7F0F4F
:100D60000F7E0F0F7F0F7F0F0F07010101000000A3
:100D70000000000000000001010000000000000071
:100D80000000000000000000000000000000000063
:100D90000000000000000000000000000000000053
:100DA0000000000000000000000000000000000043
:100DB0000000000000000000000000000000000033
:100DC0000000000000000000000000000000000023
:100DD0000000000000000000000000000000000013
:100DE0000000000000000000000000000000000003
:100DF00000000000000000000000000000000000F3
:100E000000000000000000000000000000000000E2
:100E100000DA0281FFD9F1DB20A4A62EAF00A0C02A
:100E2000D30000A1C8D30000AED580A81F408D1408
:100E3000200011241FBECFEFDAE0DEBFCDBF11E0EE
:100E4000A0E0B1E0E8ECF9E602C005900D92A6380A
:100E5000B107D9F726E0A6E8B1E001C01D92AF3F87
:100E6000B207E1F70E94EF2B0C948E340C94000033
:100E7000482F2091EB049091A20459E0291302C05D
:100E800080E0089530E0529FF001539FF00D11244F
:100E9000ED55FB4F8181681306C08081481303C064
:100EA00085818111EECF2F5F3F4F2770E7CFE8EDAF
:100EB000F0E080818E7F80831092E2001092DA0051
:100EC0001092E100A0EEB0E08C9181608C93808163
:100ED0008F77808319BCA7EDB0E08C918E7F8C93C7
:100EE00080818F7E80831092730408952091E400A6
:100EF0003091E50095E6A9012091EC00822F8170E8
:100F000020FF06C08091E80080FF06C080E00895C1
:100F10002091E80022FD1AC080919804882389F06E
:100F2000853089F08091EB0085FD0FC02091E400B1
:100F30003091E50042175307F9F29150E1F684E051
:100F4000089582E0089583E0089581E008958091F6
:100F50009A0487FF13C08091E80082FF06C0809149
:100F6000E8008B778093E80004C080919804811199
:100F7000F2CF0895809198048823D9F38091E800F6
:100F800080FFF8CF8091E8008E77ECCF982F909378
:100F9000E900242F762F50E0891731F07091EC0092
:100FA0002091ED005091F00021FD07C09F5F973028
:100FB00071F78093E90081E008953091EB003E7F66
:100FC0003093EB003091ED003D7F3093ED00309198
:100FD000EB0031603093EB007093EC002093ED0058
:100FE0005093F0002091EE0027FDE0CF80E00895BF
:100FF000B0E0A0E0EEEFF7E00C94AD33C8EDD0E048
:1010000088818F7E8883E7EDF0E080818160808336
:1010100084E082BF81E08093730488818E7F88831F
:1010200002EE10E0F80110821092DA0081EEC82E74
:10103000D12CF601108288818F778883888180681F
:10104000888388818F7D888319BC109298041092C0
:101050009904109297041092960490EEE92EF12CC8
:10106000F70180818B7F808388818160888342E063
:1010700060E080E00E94C607F60180818E7F808359
:10108000F801808181608083808188608083F7019E
:1010900080818E7F8083888180618883CDB7DEB731
:1010A000E8E00C94C933FC018091A0049091A10464
:1010B00086179707A0F06115710529F49091E80053
:1010C0009E779093E80090E06115710551F49111BD
:1010D00008C08091E80082FF34C080E00895BC0120
:1010E000F2CF809198048823C1F18530C1F18091BD
:1010F000E80083FD30C08091E80082FDEACF809156
:10110000E80080FFE1CF8091F3002091F200382FBA
:101110006115710519F02830310558F091E028303B
:10112000310509F090E02091E8002E772093E80047
:10113000CBCF81918093F100615071092F5F3F4FB8
:10114000E7CF80919804882341F0853041F0809169
:10115000E80083FFBECF81E0089582E0089583E038
:101160000895089580917504089587E797E790930F
:1011700001088093000888E19AE00FB6F894A895DA
:10118000809360000FBE90936000FFCF2FB7F8945C
:1011900060916D0470916E0480916F049091700461
:1011A0002FBF0895209113012223C1F020917104D3
:1011B00027FF14C0E62FE695E695E695EE31F8F4A4
:1011C000E80FF92FF11D677021E030E001C0220F18
:1011D0006A95EAF78281822B82830895FC01329618
:1011E0002FEF30E04191641751F02F3F19F4411176
:1011F00001C0232F3F5F3630A9F72F3F09F4089530
:10120000820F911D27FD9A95FC0162830895A3E04A
:10121000B0E0EDE0F9E00C94B33320916A04309132
:101220006B0428173907A1F090936B0480936A042C
:10123000E0916804F0916904309751F024E029832B
:101240009B838A830680F781E02DCE010196099564
:101250002396E2E00C94CF33A3E0B0E0E2E3F9E0C0
:101260000C94B33320916604309167042817390732
:10127000A1F09093670480936604E0916804F09174
:101280006904309751F023E029839B838A83068089
:10129000F781E02DCE01019609952396E2E00C94AA
:1012A000CF33E0916804F0916904309729F0019000
:1012B000F081E02D0995089580E0089541155105CC
:1012C00011F0FA0109950895CF93DF93EC01409155
:1012D00054045091550460915604709157042FB7EF
:1012E000F89480916D0490916E04A0916F04B09178
:1012F00070042FBF841B950BA60BB70B843F914046
:10130000A105B10518F58091540490915504A09160
:101310005604B09157048093500490935104A093C5
:101320005204B093530484EF91E0A0E0B0E08093C6
:101330004C0490934D04A0934E04B0934F04D0936B
:101340005C04C0935B04DF91CF9108950E94C608AE
:10135000609350047093510480935204909353040B
:1013600082E390E0A0E0B0E0E2CFFC01848186233C
:1013700051F492819923B9F06923808583FF05C0D8
:1013800081E061110FC080E00895892F8F709295E0
:101390009F70982B862F8F7062956F70682B81E0FD
:1013A0009613F1CF089581E0FDCFDC0160914804F0
:1013B00080914904962F891301C00895292F30E0A8
:1013C000F901EE0FFF1FE05CFB4F408151814A178E
:1013D0005B07A1F487E08A9FA0018B9F500D112429
:1013E00041565C4F81E0FA0184839613E6CF2F5F6C
:1013F0003F4F237033272093480408952F5F3F4FBA
:10140000922F9370D8CF10929D0310929C03EFE916
:10141000F3E08581811102C014821682379683E041
:10142000E73DF807B1F70895CF93DF932091F404D7
:101430003091F504265F3440A901460F571F413013
:10144000524020F060E072E0621B730B4091F204A6
:101450005091F304FC01C901620F731FC1E0D0E099
:101460008617970738F05093F3044093F204DF9106
:10147000CF9108952491DC01AA50BB4F3C913217C3
:1014800081F02C939C01A5E036952795AA95E1F76C
:10149000DE0102C0AA0FBB1F2A95E2F79D014A2B6D
:1014A000532B01963196DCCF2091FD0636E0839FC9
:1014B000C0011124629F800D911D1124811522E02D
:1014C000920714F090E080E08A509B4F9093F504CF
:1014D0008093F4040895EFE1F2E090E080E06CE4A2
:1014E00070E243E750E22EEC3FE177836683518759
:1014F0004087338722879787868701967096883042
:10150000910599F7089581152CE7920741F42091F0
:10151000110130911201232B11F490E080E0089525
:1015200080E00895F894E82FE295EF70F0E031A1A3
:10153000282F2F7081E090E001C0880F2A95EAF7EC
:10154000982F9095932391A392A1892B82A37894AD
:1015500008959091710492FF10C041E0282F2471EA
:10156000243009F040E031E0282F2871283009F0BC
:1015700030E0431711F02CE0822793FF10C041E0C8
:10158000282F2471243109F040E031E0282F287100
:10159000283109F030E0431711F02CE08227309118
:1015A000720430FF10C051E0282F2171213009F062
:1015B00050E041E0282F2871283009F040E054170E
:1015C00011F029E0822731FF10C041E0282F21715E
:1015D000213109F040E031E0282F2871283109F04D
:1015E00030E0431711F029E0822794FD877E0895AB
:1015F00082389105B9F1B0F48133910509F47DC0C9
:1016000048F48932910509F46DC08A32910509F4D4
:101610007BC008958533910509F45FC08933910536
:1016200009F10895833E9105D9F138F4803E910582
:1016300029F1823E910579F10895863E9105D9F10F
:10164000873E910509F43EC0843E910541F5209105
:10165000720421FF24C08091710484FD19C087EEBB
:1016600090E0089520917104237009F05AC02091F0
:10167000720423FF14C089E290E008952091710460
:1016800020FD38C03091720430FF09C024FF43C0F0
:1016900090E080E008952091710422FDF7CF089535
:1016A0002091710422FD3AC03091720430FD39C09E
:1016B00024FFF5CFEDCF2091710423FFF0CF24FD5F
:1016C000E7CFCDCF2091710423FD2EC0309172045D
:1016D00031FFEECF84EE90E008952091710425FF54
:1016E000DECFC9CF2091710425FD21C02091720465
:1016F00023FFD5CF89E390E0D2CF2091710426FF5C
:10170000CECF8AE290E008952091710426FFC7CFE2
:1017100081E390E0089583EE90E0089582EE90E0FA
:10172000089580EE90E0089586EE90E0089585E3B8
:1017300090E008951F93CF93DF930E94F80AEC0185
:10174000C11580E5D807F0F5C11580E4D80708F089
:101750009CC0C03ED10520F5CD3CD10508F082C02B
:10176000C83AD10578F4C53AD10508F073C0C13044
:10177000D10519F1209709F1C430D105F0F4D0E07A
:10178000C0E01BC0C33CD105D0F7C85AD0E0CC0F95
:10179000DD1FC15EDE4F0990D881C02DD4640DC01D
:1017A000C11580E2D80708F0D1C0C11581E0D80783
:1017B00008F05AC0C83ED10510F7CE01DF91CF9195
:1017C0001F910895C03682E5D80718F5C03482E528
:1017D000D80708F06BC0C03282E5D80708F05FC0B8
:1017E000C11582E5D80708F497C02C2F26952695B9
:1017F00080E2289F900111248C2F8370C1E0D0E0FB
:1018000002C0CC0FDD1F8A95E2F7C22BD32BDD6817
:10181000D4CFC03A82E5D80760F4C03882E5D80753
:1018200008F459C0CF71D0E0DC2FCC27C46FD06A48
:10183000C4CFC03C82E5D80708F462C0C03E82E550
:10184000D80708F09CCFDC2FCC27CC27DF71C06FE6
:10185000D06AB3CFC55AD0E0C45EDE4FC881D0E0B5
:10186000D064ABCFD065A9CF8D2F0E94A90A182FC5
:10187000CE0199270E94F80AC12FD0E0DC2FCC2797
:10188000CC27DF71C82BD92B98CFCE0199270E9486
:10189000F80ACC27DF70C82BD92BD06A8ECFCF7136
:1018A000D0E0DC2FCC27C16FD06A87CF2C2F2695B4
:1018B0002695277080E2289F900111248C2F837039
:1018C000C1E0D0E002C0CC0FDD1F8A95E2F7C22B49
:1018D000D32BDC6872CF2C2F26952695277080E2BB
:1018E000289F900111248C2F8370C1E0D0E002C0AA
:1018F000CC0FDD1F8A95E2F7C22BD32BDA685DCFC0
:101900008C2F8F710E94A90AC82FD0E0DC2FCC2722
:10191000CC27DF71D06251CF8C2F8F710E94A90A22
:1019200055E0D695C7955A95E1F7CF70D0E0DC2FFA
:10193000CC27282F30E084FF05C044E0220F331F5E
:101940004A95E1F7C22BD32BD06937CF8D2F8F71FA
:101950000E94A90A182FCE0199270E94F80AC12FC8
:10196000D0E0DC2FCC27CC27DF71C82BD92BD2CFEE
:101970008091E901882331F01092E9011092E80189
:101980001092E701089580959091620498239093B6
:101990006204089580959091630498239093630462
:1019A00008951092C6011092C5011092C4010895C5
:1019B0009091C301292F282321F0809589238093BA
:1019C000C3010895909113019923D1F0909171046E
:1019D00097FF16C0E82FE695E695E695EE31E0F420
:1019E000F0E0E857FE4F282F277081E090E001C01B
:1019F000880F2A95EAF7809592818923828308953A
:101A0000EAE8F1E09191891303C0DF0111971C927C
:101A100091E0E039F907B1F708958091EB049091D6
:101A2000A204981301C008958F5F8770FACFA82F82
:101A3000A77023E0969587952A95E1F7FC01EE0FB4
:101A4000FF1FE80FF91FE60FF71F50E040E080E0AE
:101A5000219130E00A2E02C0369527950A94E2F7CC
:101A600021703327042E01C0220F0A94EAF7822B3B
:101A70004F5F5F4F4330510559F70895903FC9F0CC
:101A8000953080F48530A8F4282F30E06EEA71E0BC
:101A9000A901E5E09E9F400D511D1124CA010E943D
:101AA000170D08959C5F923020F46BEA71E090E08E
:101AB000F6CF80E00895262F277091E001C0990F9E
:101AC0002A95EAF723E0769567952A95E1F7FB01D9
:101AD000EE0FFF1FE60FF71FE40FF51F50E040E089
:101AE000682F70E08191DF0111979B01042E02C0E5
:101AF000369527950A94E2F7217021952827292306
:101B000028272C934F5F5F4F4330510559F70895B5
:101B1000282F862F903F79F0953070F4253058F4B7
:101B2000622F70E025E0929F600D711D11244EEA36
:101B300051E00E945B0D08959C5F9230E0F7622FA8
:101B400070E04BEA51E0F5CF80937B0308959091CC
:101B50007B0321E030E0F90101C0EE0F8A95EAF73E
:101B6000D90102C0AA0FBB1F6A95E2F7EA2B01C098
:101B7000220F4A95EAF7892F8E23E81305C0292BF7
:101B8000822F0E94A40D089520952923F9CF21E0EA
:101B900030E001C0220F8A95EAF7209580917B03FF
:101BA00082230E94A40D08959091C60180958923F7
:101BB0008093C601282F277069F4891759F09091F6
:101BC000720492FF07C08695869586950E94C70D80
:101BD0000E94D10C089521E030E001C0220F8A95C7
:101BE000EAF780917B03822B0E94A40D08958093D5
:101BF000F4010895982F92959F7011F0892F94E029
:101C0000282F2695269511F09E5F822F869509F044
:101C10009F5F892F08959C013A9521153F4150F50A
:101C2000FC01EE27F170BC0166277270AC014427FD
:101C300054709C012227387094FF0EC080E1EF2B76
:101C400009F480E0672B09F08062452B09F080647D
:101C5000232B89F08068089581E0EF2B09F480E060
:101C6000672B09F08260452B09F08460232B19F063
:101C70008860089580E00895CF93DF93682F81E016
:101C80006A3019F06D3031F480E00E94BC0EDF91B3
:101C9000CF9108958091F4049091F50426E0FC0121
:101CA000ACEEB4E001900D922A95E1F7603E08F4A5
:101CB00058C026E0FC0111922A95E9F7C091F4047E
:101CC000D091F50446E050E0BE018CEE94E00E9415
:101CD00010349E01265F3440892B41F1C90145E053
:101CE000969587954A95E1F741E050E0BA0102C028
:101CF000660F771F8A95E2F7CB016091F20470912D
:101D0000F304862B972BB9016B5F7F4FE5E0769547
:101D10006795EA95E1F702C0440F551F6A95E2F70F
:101D2000842B952B9093F3048093F2042A5F3F4F0A
:101D30004091FD06642F70E0C9010E948F33481B5B
:101D4000463010F4240F311D211572E0370710F0D2
:101D500030E020E02A503B4F3093F5042093F40408
:101D600096CFF6E06F9FB00111246053774F46E0A5
:101D700050E00E940734A2CFCF93382FE091F404B3
:101D8000F091F504E65FF4402091FD06622F70E0CB
:101D9000CF010E948F33281B822F332361F066E02E
:101DA0000E94DA33C82FC15010F4CF91089580E219
:101DB0000E943C0EF8CF9F01280F311D21153240A3
:101DC00018F080E0F0E0E0E08E0F9F2F911D8A5028
:101DD0009B4F9093F5048093F404E7CFCF93DF9368
:101DE000EC01FE018491811106C081E00E94BC0ECD
:101DF000DF91CF9108950E943C0E2196F2CF0F9370
:101E00001F93CF93DF938B01EA0190919804943054
:101E100061F58093E9008FEF9091E800815095FD86
:101E200006C095ED9A95F1F700008111F5CF8091EC
:101E3000E80085FF1AC00E947607811111C08091C9
:101E4000E80085FD06C08091E8008E778093E80069
:101E5000F2CFF80181918F018093F100219779F7FA
:101E60008091E8008E778093E800DF91CF911F91F9
:101E70000F91089543E050E0BC0184E00E94FF0E02
:101E80000895CF93DF93EC0180911301811111C06C
:101E900048E050E0BE0181E00E94FF0E80E2FE01BA
:101EA000A6E7B4E001900D928A95E1F7DF91CF911A
:101EB00008958091710487FF05C040E284E050E0FE
:101EC000BE01EACF48E081E0FACFCF93DF93C1EFC4
:101ED000D1E060E0CE010E9452342196C11584E029
:101EE000D807B9F7DF91CF9108950F931F93CF9340
:101EF000DF93142F022F8430F0F461111CC094E0A2
:101F0000899FE0011124CF50DF4F82E090E044230D
:101F100011F090E080E0632F8C0F9D1F0E945234DF
:101F200083E090E0112311F081E090E0602F8C0FAE
:101F30009D1F0E945234DF91CF911F910F91089500
:101F40001F93CF93DF93122F8430E0F46530D0F4E9
:101F50004530C0F4C42FD0E0CC0FDD1F9AE0699F5C
:101F6000C00DD11D112492E3899FC00DD11D1124F4
:101F7000632FCE0189960E945234612FCE018A963A
:101F80000E945234DF91CF911F910895CF93C82FB3
:101F90006FEF81116DE185E290E00E9452346FEFA6
:101FA000C11167E686E290E00E9452346FEFC111E2
:101FB00062EA87E290E00E945234CF910895AEE148
:101FC000B0E0E5EEFFE00C94A633C0901101D09094
:101FD000120181E090E0909312018093110189E653
:101FE000E82E87E0F82E91EAA92E96E0B92E10E0AF
:101FF000450100E015C0F30125913491452D602F76
:10200000812F0E94A00F82E0680E711C5394E5E0BE
:102010005E12F1CFFAE08F0E911C0F5F053019F0C0
:102020003401512CE8CFF7012591349141E060E073
:10203000812F0E94750FF70132962591349140E06F
:1020400060E0812F0E94750F84E0E80EF11C1F5F95
:10205000E2E3AE0EB11C143009F0CACF1A82198225
:102060001C821B821E821D8218861F8288EC90E0D3
:102070009A87898701E011E04AE050E0B801CE017B
:1020800001960E947634065F1F4F0135F1E01F076D
:1020900099F77E018BE0E80EF11C8AE0F7011192BE
:1020A0008A95E9F74AE050E0B801C7010E9476340A
:1020B000065F1F4F013AF1E01F07A1F77E0185E19E
:1020C000E80EF11C8AE0F70111928A95E9F78FEF8B
:1020D0009FEF9A8F898F87E08E8F4AE050E0B8019A
:1020E000C7010E947634065F1F4F013FF1E01F07D2
:1020F000A1F7D0921201C09211016E96EFE00C94FC
:10210000C23380E00E94C60F60E088E290E00E9447
:1021100052340E94DF0F0E94650F81E00E94C60FBB
:1021200008959B01883070F49AE0899FB0011124D2
:102130006F5F7E4F4AE050E0C9010E94243490E076
:1021400080E008958FEF9FEF0895AAE0B0E0EBEAFA
:10215000F0E10C94B3339C0137552F3F310509F062
:1021600068F4BE016F5F7F4F0E949110892B31F49C
:1021700089859A852A96E2E00C94CF3388EC90E02A
:10218000F9CFAAE0B0E0E7ECF0E10C94A93302E06B
:1021900013E080EFC82E82E0D82E91EAE92EFF24CA
:1021A000F39427E0922E3FEEA32E32E0B32E882444
:1021B0008394D6010D931D936D014AE050E0B70161
:1021C000CE0101960E942434F8013896DF01892D52
:1021D0001D928A95E9F789819A81D80111969C937D
:1021E0008E938F8112968C9312978D8113968C9378
:1021F0001397888514968C931497898515968C93DC
:1022000015978B819C8117969C938E9316971896A1
:102210001C9218978A8587FF3CC01E961C921E92BE
:102220001D9780FF03C0D80118968C9281FF04C0CF
:10223000F80190859260908782FF07C0D8011896B8
:102240009C911897946018969C9383FF04C0F801A2
:1022500090859860908784FF07C0D80118969C915C
:102260001897906118969C9385FF04C0F8018085AB
:1022700080628087015F1F4FFAE0EF0EF11C81EF53
:10228000E81681E0F80609F094CF2A96ECE00C9469
:10229000C533F801B686A586C4CFAAE0B0E0E3E571
:1022A000F1E10C94AD33EFE9F2E080E5DF011D923E
:1022B0008A95E9F7EFE9F3E088E3DF011D928A955B
:1022C000E9F78FE9C82E82E0D82E7F0101E511E001
:1022D000F701D182C0824AE050E0B801CE010196F8
:1022E0000E94243488E0FE013196D60101900D92BF
:1022F0008A95E1F789859A85D70113969C938E93E9
:102300001297BAE0CB0ED11CE7E0EE0EF11C065F8F
:102310001F4F013AF1E01F07D9F62A96E8E00C9426
:10232000C933FF920F931F93CF93DF93F42E843022
:1023300040F5611126C024E0829F800111240F50D6
:102340001F4F82E090E0442311F090E080E0800F86
:10235000911F0E943434C82FD0E0DC2FCC2783E0BB
:1023600090E0FF2011F081E090E0800F911F0E942B
:1023700034349E01282BC901CDB7DEB7E5E00C94BB
:10238000CC3390E080E0F8CF0F931F93CF93DF938F
:10239000843030F5653020F5453010F5C42FD0E09D
:1023A000CC0FDD1F2AE0629FC00DD11D112432E346
:1023B000839FC00DD11D1124CE0189960E94343413
:1023C000082F10E0102F0027CE018A960E94343487
:1023D0009801282BC901DF91CF911F910F9108958A
:1023E00090E080E0F8CF462F672F209109023091CE
:1023F0000A02232BC9F4703F39F4403FA9F48091BD
:102400000B0290910C020895753038F4453060F459
:10241000843050F40E94C41108957D3F41F441116D
:1024200003C041E0843048F090E080E008957C3FB4
:10243000D9F74111F9CF8430B8F760E00E949111CB
:102440000895CF92DF92FF920F931F93CF93DF9364
:102450006C0100917B038091F401082BC3E0D0E074
:1024600010E0FC2EC8010C2E02C0959587950A94A9
:10247000E2F780FD0CC02197A0F7F12C8F2DDF91A2
:10248000CF911F910F91FF90DF90CF900895B601EB
:102490008C2F0E94F3110E949A0B019761F3EECFEB
:1024A000CF93DF93EC010E942112BE010E94F31131
:1024B0000E949A0BDF91CF910895FC0184818823BB
:1024C000F9F087819085009791F00E949A0B929580
:1024D0009F709630B9F080F4925F9F70923080F4D4
:1024E000803F19F058F4883E58F481E008958081C7
:1024F00091810E945012EBCF9A5FEFCF843FA9F3F6
:1025000080E00895883E88F3813FD1F7EECFA6E0C2
:10251000B0E0EDE8F2E10C94B2339C01FC0187815C
:1025200090850097E1F486E0DE01119601900D920E
:102530008A95E1F7F901258189819A81222399F011
:10254000662389F00E942112182F682F89819A81B1
:102550000E94880D69817A81812F0E94F31126964D
:10256000E3E00C94CE330E943E0D182FF3CF85E2AA
:1025700090E00E9434348D3189F486E290E00E942C
:102580003434873659F487E290E00E94343491E085
:10259000823A09F090E0892F8170089580E0FCCFA5
:1025A000B0E0A0E0E6EDF2E10C94AD336C017B010C
:1025B00064E670E088E70E94A9328C01E601EC0C29
:1025C000FD1C17FD0BC0FE01849164E670E00E94C3
:1025D00015338C012196CE15DF0599F70E948B33B8
:1025E00081E00115110509F080E0CDB7DEB7E8E024
:1025F0000C94C933CF9381E08093FE0680E28093F0
:10260000FD060E94A3326BE070E087E29EE00E942C
:10261000D012811104C0C0E08C2FCF910895809119
:10262000FE0665E070E081FD39C082E29EE00E9416
:10263000D012882381F36DE070E080E19EE00E947B
:10264000D012C82F882339F30E94C608605A7541FA
:102650008F4F9F4F6093F9067093FA068093FB06A5
:102660009093FC06E6EFF4E080E092E0DF019C014D
:102670001D9221503040E1F7F093F504E093F4040B
:102680008FEF9FEF9093F3048093F20481E08093A7
:10269000F8068093F7061092F606BECF8DE19EE015
:1026A000C6CF8091F7069091F806911103C091E092
:1026B00089270895882369F062E070E081E892E05C
:1026C0000E94D012811103C08091F70608951092E4
:1026D000F7068091F706EBCFCF93C091F706809174
:1026E000F8068823D1F00E94C608605A75418F4FC2
:1026F0009F4F6093F9067093FA068093FB069093C0
:10270000FC06C11108C062E070E08FE792E00E9411
:10271000D012811105C0C091F7068C2FCF9108957A
:1027200081E08093F706F7CF2F923F925F926F92EE
:102730007F928F929F92AF92BF92CF92DF92EF9251
:10274000FF920F931F93CF93DF938091F806882316
:1027500009F457C060E080E00E94540A80917B0336
:102760000E94FA0D813009F45EC0882349F082305E
:1027700009F46AC0833009F478C083E896E010C099
:1027800060E080E00E94540A60EA70E083E892E032
:102790000E94140A65E081E00E94540A8CE996E0E8
:1027A0000E94EE0E6BE080E00E94540A80917A0352
:1027B00060EC70E0882309F469C083E095E00E9432
:1027C000140A8091F2049091F304892B09F061C0FE
:1027D0008091F7068823A9F00E94C6080091F906A7
:1027E0001091FA062091FB063091FC06601B710BDC
:1027F000820B930B6F3F7F4F8F4F9F4710F40E94C8
:102800005113DF91CF911F910F91FF90EF90DF90C7
:10281000CF90BF90AF909F908F907F906F905F9080
:102820003F902F90089560E080E00E94540A60EA93
:1028300070E083E293E00E94140A65E081E00E9468
:10284000540A87E996E0ACCF60E080E00E94540A29
:1028500060EA70E083EC93E00E94140A65E081E096
:102860000E94540A82E996E09BCF60E080E00E94DB
:10287000540A60EA70E083E694E00E94140A65E07E
:1028800081E00E94540A8DE896E08ACF83EC95E0BF
:1028900096CF8091F806882309F49ACF8091F606A6
:1028A000811196CF0E946C132091F2043091F304B1
:1028B0002115310509F48CCF80E041E050E0082F6C
:1028C00010E01A01082E02C0220C331C0A94E2F711
:1028D000B10162237323672B11F48F5FF0CF9091C6
:1028E000FE0690FF95C0880F880F880F80930B011C
:1028F00010920E01895F80930C0183E080930F0199
:1029000024E630E047E050E069E071E088E70E94AB
:102910004333892B09F05CCFA80125E0440F551FF4
:102920002A95E1F78091FE0680FF84C0ECE7F3E092
:1029300080E2DF011D928A95E9F7A3E7B1E00FE697
:1029400011E087E7C82E81E0D82E97E0592E772432
:1029500073948D91E80129918E01240F352F311D3B
:102960002A503B4FE82FF0E0E458FC4F90E080E025
:10297000652C681A872C082E01C0880C0A94EAF787
:102980007901A12CE701B9907E01B820662D6A1962
:102990006770962E062E000C770BDB2D01C0DD0F25
:1029A0009A94EAF77195619571096770772701C06C
:1029B000B6946A95EAF7BD2A6081962E9B2890828C
:1029C000A39468E0A612DECF019631968830910577
:1029D00079F6CA16DB0609F0BCCF04E610E020E267
:1029E00030E04CE753E060E488E70E946433892BD1
:1029F00009F0EECEE101C095D0958091F20490915E
:102A0000F304C823D923D093F304C093F204E0CE97
:102A10008295880F807680930B01980136952795D3
:102A20003695279520930E01815E80930C012093AB
:102A30000F0166CF4A505B4F04E610E020E230E021
:102A4000D2CF9091720492FB222720F9281779F0B7
:102A500080FB92F9909372046091710470917204FA
:102A600084E090E00E94703482E00E94D40D0895CA
:102A70001F920F920FB60F9211242F933F934F93F3
:102A80005F936F937F938F939F93AF93BF93EF93D6
:102A9000FF938091E10082FF09C08091E20082FFF4
:102AA00005C08091E1008B7F8093E1008091DA0086
:102AB00080FF24C08091D80080FF20C08091DA0080
:102AC0008E7F8093DA008091D90080FF9DC080E1E5
:102AD00089BD82E189BD09B400FEFDCF81E080930C
:102AE000980480917304811109C00E9457070E94C5
:102AF000F8078091E20084608093E2008091E10019
:102B000080FF17C08091E20080FF13C08091E20037
:102B10008E7F8093E2008091E20080618093E200EA
:102B20008091D80080628093D80019BC85E08093A2
:102B300098048091E10084FF2BC08091E20084FF23
:102B400027C080E189BD82E189BD89B5982F917048
:102B500080FFFBCF8091D8008F7D8093D80080913B
:102B6000E1008F7E8093E1008091E2008F7E809370
:102B7000E2008091E20081608093E20080919904FC
:102B8000882309F447C084E08093980480919804D6
:102B90008091E10083FF27C08091E20083FF23C082
:102BA0008091E100877F8093E10082E08093980428
:102BB000109299048091E1008E7F8093E1008091D2
:102BC000E2008E7F8093E2008091E200806180933A
:102BD000E20042E060E080E00E94C6078091F000E1
:102BE00088608093F000FF91EF91BF91AF919F912A
:102BF0008F917F916F915F914F913F912F910F90A6
:102C00000FBE0F901F90189519BC10929804109247
:102C1000730474CF8091E30087FD93E09093980450
:102C2000B5CF78941F921FB61F9211248F939F9354
:102C3000AF93BF9380916D0490916E04A0916F0447
:102C4000B09170040196A11DB11D80936D04909305
:102C50006E04A0936F04B0937004BF91AF919F91E5
:102C60008F911F901FBE1F9018959C014FB7F8942D
:102C700080916D0490916E04A0916F04B0917004E6
:102C80004FBF821B930B08952FB7F89480916D046A
:102C900090916E04A0916F04B09170042FBF0895BD
:102CA000A5E0B0E0E6E5F6E10C94AA338E010F5FF3
:102CB0001F4F85E0F80111928A95E9F785E5C82E46
:102CC00081E0D82EF12CE12CAA24A394B12CF6019A
:102CD00081916F018F3F09F443C0F894E82FE2958A
:102CE000EF70F0E021A18F70A50102C0440F551FC5
:102CF0008A95E2F7CA01922F982B91A392A1809511
:102D0000892382A3789400C0EAE5F1E0912C31E0B8
:102D100021912F3F09F465C0A22FA295AF70B0E0BA
:102D200090968C9190E02F7002C0959587952A958A
:102D3000E2F780FD56C0832F982A330F51E0EF351C
:102D4000F50731F7F601319780818F3F11F00E942E
:102D5000920A80EA8A95F1F7F801EE0DFF1D908244
:102D6000EFEFEE1AFE0AF5E0EF16F10409F0AFCF2F
:102D700045E050E0B8018FEE91E00E941034892BBD
:102D800091F185E0F801AFEEB1E001900D928A95E6
:102D9000E1F781E08093EE010E9444169093ED01EB
:102DA0008093EC018091EC019091ED010E94351629
:102DB0000597E8F045E050E06FEE71E084E092E0C6
:102DC0000E941034892BC1F085E0EFEEF1E0A4E021
:102DD000B2E001900D928A95E1F781E01092EE0148
:102DE00007C080E0A9CF8091EE018111DBCF80E0A8
:102DF0002596EBE00C94C63380E0F0CF9091E9018A
:102E0000292F282361F0809589238093E901882365
:102E100039F00E9444169093E8018093E7010895E9
:102E200090E080E0F8CFCF938091630490916204AA
:102E3000892B809388018091E901882339F10E94D0
:102E400044162091E7013091E801821B930B8838EA
:102E5000934110F00E94B80C809188019091E90193
:102E6000892B8093880180911301882309F447C03E
:102E70008091710487FF43C08EE1EAE8F1E090E0C1
:102E8000815008F03EC091110E94B80CC0915804C6
:102E9000C09580918801C82380915904C82BC093A4
:102EA000880140E250E067EC71E088E891E00E9420
:102EB0001034892B11F180E2E8E8F1E0A7ECB1E0F1
:102EC00001900D928A95E1F7E0916804F091690410
:102ED000309799F080911301882349F08091710413
:102EE00087FF05C0C093890186E080938801028036
:102EF000F381E02D88E891E00995CF91089586E06F
:102F0000BCCF2191222309F4BBCF9F5FB9CFCF93D0
:102F1000DF93EC014A855B856E857F850E945E09A3
:102F20008B810E94C30C8C810E94CA0C0E941317D3
:102F300086E0FE0111928A95E9F7DF91CF9108951D
:102F4000CF93DF93EC018D8181FD17C082608D836B
:102F5000809162049B81892B809362048091630439
:102F60009C81892B809363040E941317488559859F
:102F70006E857F85CE010E945E09109265041092D5
:102F800064048D8180FD03C0CE010E948717DF910C
:102F9000CF9108951092630480911301EAE8F1E063
:102FA0008823B1F08091710487FF12C08EE1DF01A8
:102FB0001D928A95E9F790E080E00E942C0990E04C
:102FC00080E00E940709109262040E94131708957E
:102FD00086E0EDCFAAE2B0E0E0EFF7E10C94B23387
:102FE0008AE994E02091F100DC012D93CD01B4E059
:102FF000823A9B07B9F780919B04833009F472C031
:10300000B8F4813009F449C0823009F4B3C080912A
:10301000E80083FF96C280919A0490919B049A30B5
:1030200008F08FC2E92FF0E0E057FB4C0C94FA3324
:103030008A3009F48EC08B3009F471C0893039F7B9
:1030400080919A04813219F780919E0490919F0497
:10305000009711F00297D9F68091E800877F80935E
:10306000E8008091E80082FF38C09091F3008091E1
:10307000F200029731F48091F100813011F0863036
:1030800021F48091F100809375048091E8008B77A2
:103090008093E8000E94A707BACF80919A04813AF2
:1030A00009F0B5CF8091E800877F8093E800809198
:1030B0009E0490919F04892B61F460E286E794E07E
:1030C00070E00E9453088091E8008B778093E800BD
:1030D0009ECF60E090E080E0F3CF80919804811172
:1030E000C0CF95CF80919A04813A09F090CF80911A
:1030F0009E0490919F04892B09F089CF8091E8006C
:10310000877F8093E8008091E80080FFFCCF80916A
:1031100013018093F1008091E8008E77B9CF809100
:103120009A04813209F073CF80919E0490919F049C
:10313000892B09F06CCF8091E800877F8093E800AD
:103140000E94A70780919C04809313010E94CA17D4
:103150005ECF80919A04813209F059CF8091E800C6
:10316000877F8093E8000E94A70780919D04809349
:1031700074044DCF80919A04813A09F048CF809130
:10318000E800877F8093E8008091E80080FFFCCF13
:1031900080917404BECF803899F0823809F0D1C193
:1031A00080919E048F70873008F0CBC18093E90036
:1031B0008091EB0085FB882780F91092E90006C01A
:1031C0008091960490919704911182609091E8000B
:1031D000977F9093E8008093F1001092F100809126
:1031E000E8008E77AAC1882309F498C1823009F0DB
:1031F000A8C180919C0481119BC180919E048F7015
:103200002FEF280F263008F09CC18093E900209111
:10321000EB0020FF8DC1933031F48091EB00806290
:103220008093EB0085C19091EB0090619093EB004F
:1032300021E030E001C0220F8A95EAF72093EA00EE
:103240001092EA008091EB008860EACF811179C189
:1032500010919C041F778091E3008078812B8093EC
:10326000E3008091E800877F8093E8000E94A70731
:103270008091E80080FFFCCF8091E300806880931C
:10328000E30082E0111183E0809398045AC18058D2
:10329000823008F056C120919C0430919D042C3D51
:1032A000E3E03E07A1F583E08A838AE289834FB792
:1032B000F894DE01139620E03EE051E2E32FF0E0C7
:1032C00050935700E49120FF03C0E295EF703F5FF9
:1032D000EF708E2F90E0EA30C0F0C7968D939D93EB
:1032E0002F5F243159F74FBF8091E800877F80938B
:1032F000E8006AE270E0CE0101960E9453088091D6
:10330000E8008B778093E8001CC1C096E7CF8091DE
:103310009E0490919F04432F55274330510509F493
:103320004AC078F54130510509F485C08BE590E03D
:10333000E9E7F7E04230510509F003C12091E800C8
:10334000277F2093E8002091A0043091A1048217E8
:10335000930708F49C0140E02115310509F070C085
:1033600041116EC08091E80082FDC9CF8091980420
:10337000882329F2853019F28091E80083FFF2CF8B
:10338000BECF4132510509F447C04232510509F020
:10339000D8C08330910508F0D4C0FC01EE0FFF1FA8
:1033A000E658FE4F0190F081E02D89589E4FDC01D8
:1033B0008C9190E01DC0332721303105E9F02115B3
:1033C000310579F022303105F9F02330310509F06B
:1033D000B8C0E6EEF7E0E4918E2F90E0E6EEF7E07D
:1033E00007C0ECE1F8E0E4918E2F90E0ECE1F8E02A
:1033F000009709F4A6C0A2CFE2E1F8E0E4918E2F95
:1034000090E0E2E1F8E0F4CFE4E0F8E0E4918E2F20
:1034100090E0E4E0F8E0ECCF8330910508F091C053
:10342000880F991FFC01E058FE4F0190F081E02DBC
:1034300089E090E083CF82E190E0E4EDF7E07ECF99
:1034400080919804882309F45ACF853009F457CF26
:103450008091E80083FD53CF8091E80082FD82CF08
:103460008091E80080FF78CF9091F3008091F20086
:103470002115310519F08830910550F041E0089789
:1034800009F040E08091E8008E778093E80064CFF7
:1034900044914093F1003196215031090196E8CFD3
:1034A000803809F04EC08091E800877F8093E80063
:1034B000809199048093F10092CE811142C01091C5
:1034C0009C041230F0F58091E800877F8093E8003B
:1034D000109399040E94A707112311F084E005C0FE
:1034E0008091E30087FDFACF81E08093980442E069
:1034F00061EC81E00E94C60742E261EC84E00E9438
:10350000C60742E261EC82E00E94C60742E260EC3C
:1035100083E00E94C6078091980413C080919C04A8
:10352000813079F481E0933009F080E08093970452
:103530001092E9008091E800877F8093E8000E9464
:10354000A7078091E80083FF0AC08091E800877F89
:103550008093E8008091EB0080628093EB00AA9654
:10356000E3E00C94CE331F920F920FB60F9211240A
:103570002F933F934F935F936F937F938F939F937B
:10358000AF93BF93CF93DF93EF93FF93D091E90075
:10359000DF708091EC00C82FC17080FDC0E81092F0
:1035A000E9008091F000877F8093F00078940E947A
:1035B000EA171092E9008091F00088608093F00093
:1035C000CD2BCF70C093E900FF91EF91DF91CF91A8
:1035D000BF91AF919F918F917F916F915F914F912B
:1035E0003F912F910F900FBE0F901F9018950E9442
:1035F000CA172FEF84E39CE0215080409040E1F710
:1036000000C0000088E19AE00FB6F894A895809376
:1036100060000FBE90936000FFCF882321F00E94CE
:10362000C30C0E9413170895882339F09091620407
:10363000982B909362040E9413170895882321F019
:103640000E94CA0C0E9413170895882339F09091A4
:103650006304982B909363040E94131708958823A2
:1036600039F19CEF980F913A28F40E94E20C0E94E5
:103670001317089590E2980F983050F4877091E0F6
:1036800001C0990F8A95EAF7892F0E94CA0CEFCFE3
:103690009BE5980F933028F490E080E00E942C097D
:1036A0000895885A8B3120F490E080E00E94070949
:1036B0000895FF920F931F93CF93DF93F82E0091FD
:1036C0005D0410915E040115110509F449C01092C2
:1036D0005C0410925B041092580410925904D801B3
:1036E0001696CD91DC919E013A9521153F4108F443
:1036F000D07ED1E0C11101C0D0E0D8011996ED9182
:10370000FC911A97309731F01B966D917C9180E077
:103710000995D823DD2339F08CEF8C0F813A30F5F1
:103720008C2F0E94E20CFF2099F0E0915D04F09153
:103730005E04808584FD0CC080915A04882341F08A
:10374000808191819C01215031092F333E47A0F0A7
:103750000E94131710925E0410925D0410925A0496
:10376000C801CDB7DEB7E5E00C94CC330E94131747
:103770008C2F0E942F1BD7CF0E946409E9CFCF93D3
:10378000C82F8823C9F18CEF8C0F813AB8F580914E
:103790001301882301F18091710487FF1CC0EC2F75
:1037A000E695E695E695F0E0E857FE4F828190E0D9
:1037B0004C2F477021E030E002C0220F331F4A95A2
:1037C000E2F782239323892B81F08C2F0E94E20C55
:1037D0000E9413170AC0EAE8F1E080E991E0219124
:1037E000C21799F38E179F07D1F76C2F88E891E0E5
:1037F0000E94D2080E941317CF91089580E28C0F87
:10380000883068F4C77021E030E001C0220FCA950B
:10381000EAF780916304822B80936304EBCFEBE59E
:10382000EC0FE33040F4F0E0E45EFE4F808190E086
:103830000E942C09E1CFC85ACB31F0F6EC2FF0E012
:10384000EE0FFF1FE15EFE4F808191810E9407090C
:10385000D3CF1F93CF93DF93182FD0E0C0E08933ED
:1038600011F4C0E5D0E0812F0E94BF1B209739F4EE
:10387000812F0E942F1BDF91CF911F9108958FE917
:103880009FE00197F1F700C000002197EFCFB0E073
:10389000A0E0EDE4FCE10C94AB33EC018AE0A82E4F
:1038A0002881222309F48FC02130C9F599818A81AA
:1038B000913021F422960E94291C05C0923029F4EF
:1038C00022960E94BF1B2196EBCF933021F42296C3
:1038D0000E942F1BF8CF943011F02196F4CF22963E
:1038E00030E020E0AE014F5F5F4F8053990B8A308C
:1038F000910550F02150310930F38FE99FE0019795
:10390000F1F700C00000F6CFA29EB001A39E700D9B
:1039100011249C01260F371F8981EA01E3CFE22F92
:10392000F0E0E05BF74FB490822F86958695869500
:1039300090E0FC01E05CF74FE4902770F12C022E40
:1039400002C0F594E7940A94E2F731E0E322FF2401
:10395000FC01E05DF74FC490D12C022E02C0D5943B
:10396000C7940A94E2F731E0C322DD24FC01E05E53
:10397000F74F049110E002C0159507952A95E2F7DC
:1039800001701127E114F10419F081EE0E94BF1BB0
:10399000C114D10419F086EE0E94BF1B8B2D0E942A
:1039A000291CC114D10419F086EE0E942F1BE114CA
:1039B000F10419F081EE0E942F1B0115110509F485
:1039C00082CF8CE278CFCDB7DEB7EAE00C94C73374
:1039D000B0E0A0E0EEEEFCE10C94AD336B01C42F3F
:1039E000D22FFC0185818823A9F0409361040E94B5
:1039F00044169093600480935F04C77081E001C017
:103A0000880FCA95EAF70E94251BCDB7DEB7E8E01C
:103A10000C94C93310916104141337C080915F0472
:103A2000909160040E9435167C01C6010E94A51089
:103A3000E816F90650F5C0E2CD0F1D17C1F080E27F
:103A4000810F883048F4177081E0012E01C0880F83
:103A50000A94EAF70E941E1BC83048F481E09D2FAB
:103A6000977001C0880F9A95EAF70E94251B802F56
:103A70000E94291CC83048F6D77081E001C0880F29
:103A8000DA95EAF70E941E1BC0CFC77081E001C023
:103A9000880FCA95EAF7F6CFCF93DF93EC010E9427
:103AA0000B0E9E01205E31092830310510F0209761
:103AB00041F40E94251B8C2F0E94BF1BDF91CF91E8
:103AC00008950E94141BF7CF9091720492FF10C0CA
:103AD00098E0899F90011124622B6093C6010E9497
:103AE000EB0D0E9444169093C5018093C401089584
:103AF0000E94EB0D0895AEE1B0E0E1E8FDE10C9429
:103B0000A3334B8B5C8B6D8B7E8B8F8B988F91113E
:103B100010926204188A198A1A8A86E0FE01739646
:103B2000DE011A9601900D928A95E1F78091720458
:103B300082FF1CC00E9444162091C4013091C5012F
:103B4000821B930B8838934120F08091C60182FF3D
:103B5000E9C10E9444162091E7013091E801821BDF
:103B6000930B8838934110F00E94B80C8E858823FF
:103B700089F061E0CE010A960E9487126C018F8560
:103B800040E5C4164CE7D40689F4882329F181E086
:103B9000809310010A851B852C853D854E855F85A8
:103BA000688979898A890E944D2AC7C061E5C6164D
:103BB0006CE7D60629F4882379F00E94012BEACF1E
:103BC00072E5C7167CE7D70639F4882329F080917F
:103BD00010018111F2CFDBCF8FE9E82E83E0F82EC0
:103BE000512CB12CA12C88248394912CCE010196C8
:103BF0009A8F898F44244394F70140815181662430
:103C00006A94762C20E0822F90E0FC01EE0FFF1FDB
:103C1000E40FF51F608171816115710531F0C616E1
:103C2000D70609F43C012F5FEECF10E0FFEF6F16CF
:103C30007F0609F443C0F701448110911001812FE0
:103C4000411180E0182F1170F701358086819F8522
:103C5000992309F4F3C0112309F4F0C0311014C002
:103C6000A401062C01C0440F0A94EAF7842B868332
:103C700080919C0390919D03C29730F462E370E0C1
:103C800070939D0360939C03C40102C0880F991F29
:103C90002A95E2F70197F70126812817190671F492
:103CA00080914A0490914B04009709F44AC00E9405
:103CB0003516C39708F445C0F7014482512AFFEF37
:103CC000AF1ABF0A27E0E20EF11C38E0A316B104D8
:103CD00009F092CF8F85882309F410C1552009F48B
:103CE0000DC10E94441690934B0480934A04809126
:103CF000D703883010F591E0980F9093D70399E09F
:103D0000FE013A96DE01119601900D929A95E1F727
:103D10004DE0849FC001112488529C4F29E0FE0190
:103D20003196DC0101900D922A95E1F72FEF3FEFDC
:103D3000FC0132872187D486C3866E96E2E10C941B
:103D4000BF338091480450914904982FF0E0E0E09F
:103D5000851314C090934804EE16FF0609F4AECF05
:103D600090E0FC01EE0FFF1FE05CFB4FB182A082F0
:103D700001968370992780934904A0CF282E312C77
:103D8000F101EE0FFF1FE05CFB4F20813181F7E076
:103D9000F29FD001F39FB00D1124A156BC4F2D917D
:103DA0003C9111973E8F2D8F40E020E030E0E32FD3
:103DB000F0E0EE0FFF1F6D8D7E8DE60FF71F608028
:103DC000718061147104E1F0F7010190F081E02D40
:103DD000FC8FEB8F20E005C06616770609F4412FB3
:103DE0002F5FE22FF0E0EE0FFF1F6B8D7C8DE60F53
:103DF000F71F608171816115710571F73F5FD7CF42
:103E00004423C9F0F701231708F0FD014482EE16A0
:103E1000FF0621F490934804142F50CF981305C047
:103E2000AE17BF0711F49F5F937091012F5F3F4F53
:103E3000822F83708DCFF0E0E0E0F7CF90E031107B
:103E400020C0B40102C0660F771F2A95E2F79B01DC
:103E5000215031092817390731F4442309F44CC0A3
:103E6000C5010E94D509C401062C01C0880F0A941F
:103E7000EAF7982F9095F701868189238683132D81
:103E80001DCFAC01062C02C0559547950A94E2F768
:103E9000BA01617077279C01215031098223932355
:103EA000892B31F5672B21F1F70182819381892BD1
:103EB000E1F0E98DFA8D27E011922A95E9F70E9449
:103EC0004416282F8B839C8334E03D83F701828145
:103ED0009381782F8887998709811A813C8144E0F2
:103EE0005E816F81892F0E944D2AF7011582BBCF19
:103EF000F42FF1703F2EB7CF312EB5CF90914804FB
:103F000080914904981729F00E94102B511015CF69
:103F100041CE0E94B82A10924B0410924A040E948B
:103F2000030AF4CF82E00E94D40D13CEA6E0B0E0E5
:103F3000ECE9FFE10C94B1338C0190930C02809377
:103F40000B02011580E21807C0F4802F0E942F1B7E
:103F5000C8010E940B0E9801205E310928303105FE
:103F600018F00115110531F40E941E1B2696E4E09D
:103F70000C94CD330E940D1BF9CF80EF89838A8387
:103F80000E9444168160682F9C838B8349815A81EB
:103F90007C8181E090E00E947B1DE8CF0F931F930E
:103FA000CF93DF938C01EB0165E172E08C2F0E94CF
:103FB0009110892B71F4DD27C35FDD4F8881F801F3
:103FC000128218828330F1F048F4813059F0823047
:103FD00081F0DF91CF911F910F9108958430B9F056
:103FE0008530B9F78091150290911602009789F3F8
:103FF00006C08091170290911802009799F30E94D1
:10400000961FE7CF8091190290911A02F6CF809106
:104010001B0290911C02009791F72091150230919C
:104020001602809117029091180221153105F1F2C4
:10403000009729F7C901E3CFA6E0B0E0E2E2F0E2A1
:104040000C94B33390930C0280930B02811520E201
:10405000920730F40E944C1D2696E2E00C94CF3378
:1040600080EF89838A830E9444168160682F9C8335
:104070008B8349815A817C8181E091E00E947B1D84
:10408000EBCFCF93DF93EC010E941C20CE010E9466
:10409000961FDF91CF9108950F931F93CF93DF93D6
:1040A0008C01862F65E172E00E949110892BB1F49A
:1040B000C0911502D0911602209781F0F8018281FB
:1040C000833051F4CE010E944120CE010E94412054
:1040D000CE010E94412002C08430D0F7DF91CF9101
:1040E0001F910F9108950F931F93CF93DF938C012E
:1040F000EB0165E172E08C2F0E949110892B09F091
:104100005CC0FE01FF27D80112968C911297E35FE5
:10411000FD4F8130B9F415969C9192FF02C08083C7
:104120000AC090FFFCCF82E08083809117029091BB
:1041300018020097B9F48091150290911602009729
:10414000E1F110C08230B9F515968C9182FD28C03E
:1041500080FD0BC083E080838091190290911A0248
:10416000009701F10E941C2028C084E08083809188
:104170001B0290911C020097A9F780911502909163
:1041800016020097F9F00E94412080911702909149
:104190001802009739F78091150290911602E2CF2C
:1041A00085E080838091150290911602009729F096
:1041B0000E944120F0CF86E08083DF91CF911F9154
:1041C0000F9108958091170290911802B8CFA7E03F
:1041D000B0E0EDEEF0E20C94A3337C01DC01149628
:1041E0008C91882309F45CC161E0C7010E948712A9
:1041F0008C01F7018581882319F1809164049091E5
:1042000065040097E9F008171907D1F09927E4E051
:10421000880F991FEA95E1F7FC01EC5DFD4F2081C5
:1042200024602083815E9D4FDC010D931C930E94CE
:10423000A0171092620461E0C7010E9487128C01EE
:10424000F7018581882309F4B1C0C80197578038E8
:10425000910508F0DEC0D02EFFE0F01708F410C181
:104260008FEF93E00E94343481110AC101EF11E015
:10427000D11036C019821A821B821C8299249A940A
:1042800068013FEFC31AD30AC8010E9434348983FE
:104290001A82882309F4F4C0813009F081C05801E2
:1042A00042E0A40EB11CC6010E943434C82E8A8399
:1042B000882309F4E5C0C5010E943434D82E8FEF5D
:1042C0008C0D8330D8F4580153E0A50EB11CDB826D
:1042D000DD2021F0CE0101960E94471C8501D0CF40
:1042E000011524E0120709F4CBC0C8010E94343440
:1042F000811101C0DA940F5F1F4FBACF8BEF8C0D85
:10430000833030F5C8010396DB825C01DD2031F398
:104310005801A4E0AA0EB11C0E9434348C83882377
:10432000E9F28B819C818130BFEF9B0710F0982FC1
:104330008827E6E0CE1631F0F7E0CF1631F00E9484
:104340004120CCCF0E941C20C9CF0E94961FC6CF0F
:1043500024E0C212C3CF580134E0A30EB11CC8013F
:1043600003960E943434DD2009F48AC0882309F4BE
:1043700087C08150990B989E9001999E300D112411
:104380004D2D4150550BCA01820F931F019708F420
:10439000A5CFAFE9BFE01197F1F700C00000F6CF5D
:1043A000CE0101960E94471C560198CF6801E7E5AF
:1043B000DE1AFFEFCF16D10409F058F565E172E07F
:1043C0008C2D0E949110892B21F5C60164E0880F85
:1043D000991F6A95E1F7FC01E15EFD4F22812130D2
:1043E000D1F52091150230911602232B91F02091E6
:1043F000170230911802232B61F02091190230919D
:104400001A0240911B0250911C02242B352B232BA6
:1044100051F1D70115965C90552009F445C0909153
:104420007A0381E0982790937A030E35BCE71B0747
:1044300029F10F35ECE71E0741F00D35FCE71F07AA
:1044400099F5909100019923C9F01092000180E044
:104450000E94591B15C02230E1F6209119023091BB
:104460001A02232BB1F2FC01EC5DFD4F20812E7F5F
:104470002083815E9D4F0E94A017CBCF80930001C7
:104480008091C601877061F0D70115968C918823C1
:1044900039F08091720482FF03C082E00E94D40D43
:1044A0002796E2E10C94BF3380910001882309F440
:1044B0004BC4480120EE821A91084090E901809196
:1044C000C301482A80916304482A38E08316910486
:1044D00008F086C098012770332781E090E001C082
:1044E000880F2A95EAF7552009F477C0482AD701A2
:1044F0008D919C910E943E0D21E030E0390102C077
:10450000660C771C8A95E2F7E0915D04F0915E04F9
:10451000FF83EE832090A8013090A9011D822D8198
:10452000E22FF0E0EE0FFF1FE051FD4FC080D18081
:10453000C114D10409F463C4411005C0D601129618
:104540008C91811189C0F601838190E086219721A9
:10455000892B09F481C08085982F977009F487E032
:10456000F8E08F16910408F055C0552009F44EC0AC
:1045700086958170882309F46FC0D601AD90BC90F8
:104580000A151B0519F4552009F466C0EE81FF8158
:10459000CE16DF0609F460C0D6011D96ED91FC91A0
:1045A000309721F08081882309F456C0642DC6011C
:1045B0000E94B509882309F44FC00A151B0509F0AC
:1045C0007AC40115110509F47BC451107BC4A214EF
:1045D000B30409F041C0512C75C48095482287CF9F
:1045E000552009F4F5C31093A9010093A8010E9476
:1045F000C6086093540470935504809356049093B6
:10460000570410925C0410925B0471CF82FB8827E0
:1046100080F9B0CF552001F18170ACCF0E942F1BE3
:104620006FC40497813A910558F46A2D88E891E0A7
:104630000E94D208552009F487C30E94131720CF87
:104640000E9413178FE39CE90197F1F700C0000067
:104650008A2D0E94BF1BEECF9D819F5F9D835FCF00
:10466000FC01208131810217130709F066C3511044
:1046700066C310925A0480E00E94591B65C3902FB4
:10468000812FA1C3F9014485558566857785C901C8
:104690000E945E09D60115968C9181FFC4C3C601A4
:1046A0000E94871780916404909165040817190788
:1046B00009F0B9C31092650410926404B4C306E211
:1046C00021EE41EE6AE17CE7C7010E94E81CD8CEEA
:1046D00007E225EE45EE6BE17CE7F6CF06E221EE40
:1046E00040EE68E17CE7F0CF07E225EE44EE69E1B9
:1046F0007CE7EACF06E221EE42EE6CE17CE7E4CF14
:1047000007E225EE46EE6DE17CE7DECF08E221E030
:1047100045EE6EE17CE7D8CF809171048160809393
:10472000710495C0809172048860809372048FC078
:10473000809171048260F3CF809171048460EFCF27
:10474000809171048860EBCF809172048160EDCF1D
:10475000809172048260E9CF809171048061DFCF23
:10476000809171048062DBCF809171048064D7CF27
:104770000E94CA17809171048068D1CF8091710422
:104780008C60CDCF809172048360CFCF8091710413
:104790008E7FC5CF80917204877FC7CF80917104CF
:1047A0008D7FBDCF809171048B7FB9CF80917104D3
:1047B000877FB5CF809172048E7FB7CF80917204CE
:1047C0008D7FB3CF809171048F7EA9CF80917104CA
:1047D0008F7DA5CF809171048F7BA1CF0E94CA17D6
:1047E000809171048F779BCF80917104837F97CFE5
:1047F000809172048C7F99CF8091710482FB9927FC
:1048000090F921E0922790FB82F990FB83F987CF02
:1048100080917204982F909591708E7F892B90FBD8
:1048200081F983CF90917104892F8F7B96FF8064EB
:1048300076CF0E94CA1790917104892F97FB87F950
:1048400080586DCF61E08EE090E00E94523460911C
:1048500071047091720484E090E00E9470340E94B0
:10486000CA170ECE60E0EFCF90917104892F8F7E32
:1048700094FF806154CF90917104892F8E7F90FFB7
:1048800081604DCF90917204892F877F93FF88605C
:104890004CCF85E30DC381E00E94EB0D43E062E065
:1048A00081E00E94A70DECCD81E00E94C70DF6CFFC
:1048B00082E0F2CF0B355CE7150749F10C358CE748
:1048C0001807D9F00A351C4709F068C381E01CC0FD
:1048D0000E94CA17AFEFB4E3ECE0A150B040E04053
:1048E000E1F700C000000E94B5086FEF7FEF90E095
:1048F00080E00E9470340E94F71A8091720482FB5B
:10490000882780F991E089270E94211547C380E01C
:10491000FBCF858100811181882369F0C8010E9445
:104920002112D82E682FC8010E94880DB8018D2D44
:104930000E94F31139C3C8010E943E0DD82EF6CF54
:10494000212F2F70D22E107F19F0D29490EFD92200
:10495000CC20B9F0DD2069F080E2800F883010F0C3
:10496000011109C080916304D82AD09263040E9487
:104970001317802F40C080916204D82AD09262041D
:10498000F6CF802F0E942F1BDD20B9F180E2800F2F
:10499000883010F0011104C08D2D0E94CA0C03C094
:1049A0008D2D0E94C30C0E94131727C0312F3F701A
:1049B000D32E107F103219F0D29480EFD82200232A
:1049C00051F0013009F487C0CC2009F493C0BB201A
:1049D00009F441C0CECF8091720482FD38C0CC2052
:1049E00081F1DD2039F080916304D82AD0926304EC
:1049F0000E94131780E00E94BF1BE92DE850FF0BB7
:104A0000349710F40E945109AA20B1F08091C60198
:104A100080FD12C0D70115961C92869586958695C5
:104A20000E94EB0DC7010E94E7208091C601869588
:104A3000869586950E94C70D60E0C7010E94871287
:104A40002FCD80E00E942F1BDD20B9F2A5CFCC2016
:104A500069F1B11004C08D2D0E94251BCECF41E01D
:104A6000B41210C01091E9018D2D8123D81629F2BE
:104A70000E9444169093E8018093E701D12AD092D6
:104A8000E901BBCF55E0B512B8CF8D2D0E94251B93
:104A90008D2D0E94FE168091C3019D2D9823D9165D
:104AA00009F4ABCFD82AD092C301A7CFB1100AC066
:104AB0008D2D0E941E1B8D2D0E94FE168D2D0E9495
:104AC000D80C9BCF81E0B81298CF809163048D21E0
:104AD00009F493CFEDCFCC2029F095E09B1508F495
:104AE0008CCFB9CFA4E0AB1508F487CF8D2D0E94F1
:104AF0001E1B83CFBB20D1F3093349F4BFEFE7EE90
:104B0000F3E0B150E040F040E1F700C00000802F3A
:104B10000E942F1B72CF812F86958695837061F03E
:104B2000813009F06ACFC8019370C11002C080E0E3
:104B300090E00E94070961CFC8019370C11002C0C4
:104B400080E090E00E942C0958CF812F837089F576
:104B5000C11053CF402F429546954770440F440FE4
:104B6000802F8F70042E01C0880F0A94EAF7202F3F
:104B7000207104FF07C02FE030E001C0220F4A95EA
:104B8000EAF72095169516951370123069F050F4D7
:104B90003091F401113029F0822B83230E94F70D0C
:104BA0002CCF832B822BFACF282B8091F4018227E4
:104BB000F5CF8695CC2011F0812F8170882309F4E0
:104BC0001CCF402F429546954770440F440F802FCD
:104BD0008F70042E01C0880F0A94EAF7202F2071ED
:104BE00004FF07C02FE030E001C0220F4A95EAF72A
:104BF0002095169516951370123069F050F4309187
:104C00007B03113029F0822B83230E94A40DF5CE63
:104C1000832B822BFACF282B80917B038227F5CF21
:104C20001F70CC2029F0812F0E94EB0D802F14CF14
:104C3000802F0E941E1B812F0E94C70DDECE023FD7
:104C400089F160F4003FB9F0013F81F0CC2009F414
:104C500064C0B1108ECE812F8F7128C0033F49F1FF
:104C6000043FA1F78091720482FD2FC0812F8F71C4
:104C7000CC2011F31BC0CC2081F024E02B1508F4CC
:104C8000BCCE1F7181E090E0012E01C0880F0A9414
:104C9000EAF790917B038927B8CF35E03B1508F4FC
:104CA000ACCEEFCF812F8F71C110C6CF0E94EB0D1C
:104CB000A4CE80E0CC2009F4A8CF1F7181E0012EA2
:104CC00001C0880F0A94EAF7A0CFCC20C9F08091E8
:104CD000C6018770843041F40E94D10C812F8F71FE
:104CE0000E94C70DA12C89CE44E04B15D8F31F714B
:104CF000812F0E94EB0D63E0812F0E94641DF2CF93
:104D000054E05B1530F40E94D10C64E0812F8F7168
:104D1000F4CF81E00E94D40DE5CFBB2059F00933D8
:104D200009F0F5CE8FEF97EEA3E081509040A040C0
:104D3000E1F7EBCE812F8F717FCF552029F0DC0179
:104D400018968C9185FF97CCC8019755F8018F3F35
:104D5000910511F008F084C0FF2744E0EE0FFF1F1B
:104D60004A95E1F79F01215E3D4F6901D7011596F4
:104D70008C91EC5DFD4F908180FB90F990838823AE
:104D800009F480CC0E9444169093FC018093FB01AF
:104D9000F60182818F5F8283809162049091630427
:104DA000892B83838091E9018483468157816685BD
:104DB0007785C6010E945E09D60115968C9181FF08
:104DC0005ECC90E080E090936404809365042BC0F7
:104DD0008091A8019091A9010817190781F41092F8
:104DE000A9011092A8011092540410925504109237
:104DF00056041092570410925C0410925B04809148
:104E00005D0490915E04009709F49ECFA8E08A1695
:104E1000910408F025CC642D0E94B509811103C0CE
:104E200081E00E94591BF70185818823B9F1109216
:104E30006104C80190578397E0F484E090E00E94F9
:104E40003C349093720480937104F801E150F04770
:104E5000E232F10508F060CCE656FB4C0C94FA33D4
:104E6000E851FC47E730F105F0F6E454FB4C0C94B4
:104E7000FA330631FCE71F0709F076C0809163041E
:104E80008A7A91E009F490E09093AA0169E2811195
:104E900065E388E891E00E94D208CFCB06312CE789
:104EA000120709F0BBC08091AA018111F2CC89E2FE
:104EB0000E94E20CC2CBA114B10409F088CB512CA2
:104EC000B12CA12C80E00E94591BD0925E04C092AC
:104ED0005D0481E080935A04F60185818093580433
:104EE00051100EC0AB2861F0F601808191819C01C8
:104EF00024503109213A310508F090CB0E94E20C90
:104F0000D6011696AD90BC90C5019A9581159F412A
:104F100010F4E0EEBE2277247394C50101978F331D
:104F20009E4708F0712CD6011996ED91FC911A97C5
:104F3000309731F01B966D917C9181E00995782234
:104F4000772079F0F601868197810E940B0E80937D
:104F50005904C501F8E08F16910408F062CB0E9455
:104F600064090E94131766CB07373CE7130709F45F
:104F700092CC08374CE7140709F49ACC0330FCE7CD
:104F80001F0709F4B2CC08F095CC01153CE71307D4
:104F900009F49ECC01301C4709F4ADCCF7018781A0
:104FA0009085009709F4B5CC0E949A0B8C01F7010B
:104FB000C580B680B2943FE0B3228091C60187706D
:104FC000F1F0AC2CCC20E1F0812F807F803451F0C7
:104FD00080E2800F883098F0B11004C0812F807E6D
:104FE000803269F08091720482FF09C082E00E94E1
:104FF000D40D8091C6018770AA24A3948111A12C9D
:10500000912E92942FE09222FBE0F91508F4F5CC52
:10501000E92DF0E0ED53FB4C0C94FA3307375CE7D5
:10502000150709F441CC08378CE7180709F0B6CF0B
:1050300082E03BCCB0E0A0E0E0E2F8E20C94AE33DA
:105040008091C001807F09F051C08091BF01882309
:1050500009F44CC0E091EB0489E0D82E8091A204C1
:105060008E1709F443C00E2F10E0ED9DF0011124BE
:10507000ED55FB4F84818823F1F1D09EE001D19E54
:10508000D00D1124FE01ED55FB4F91818091BB01A4
:10509000981331C090818091BA0198132CC08581FA
:1050A000811129C0E280F3808091BC019091BD0103
:1050B000E81AF90A60E08AEB91E00E9487120E94E8
:1050C000A510E816F906B8F48091C0018F708061D0
:1050D0008093C001C755DB4F88818F7080618883C2
:1050E0008AEB91E00E94E7200E940D0DCDB7DEB75C
:1050F000E7E00C94CA33F8013196E770AFCFA8E12E
:10510000B0E0E5E8F8E20C94A6338C0186E0F80103
:10511000DE01539601900D928A95E1F7F801F48033
:10512000E5808AEB882E81E0982E8091BE01811166
:105130002AC0F11003C0FF24F3941CC0EE20F9F044
:10514000C8010E945D12F82E8823C9F089E0F80199
:10515000AAEBB1E001900D928A95E1F78091BE0132
:10516000813031F48091BA019091BB010E945012BC
:105170000E941A288F2D6896EFE00C94C233C80164
:105180000E94E720D8CFC280D380B090BF01809129
:10519000BC019091BD013601681A790ABB2009F45F
:1051A00020C15080A18060E08AEB91E00E948712CC
:1051B0000E94A5106816790608F0BDC0FF2009F40A
:1051C000BACF8091C001382F307F2091BB01F80108
:1051D0009181311161C0FE2C29131DC02091BA01AB
:1051E0009081291318C04091C1015091C2012781BB
:1051F00030854217530779F4E11047C08F70806102
:105200008093C0018AEB91E00E94E7208091C00169
:10521000F8018683AFCFE11038C06A2D852D0E943A
:1052200038076A2D852D0E943807E82E8111A2CFFC
:105230005B8AAC8A8B899C890E945012292F229507
:105240002F70243058F49F70223088F0992399F001
:10525000F8019681907F79F4FE2C8CCF2A5F2F7015
:10526000223068F0C8010E94E720EB2CF5CF99238B
:1052700011F0882389F3805E883070F3F3CF803F8C
:1052800058F3815F833070F7E7CF8091C001816070
:105290008093C001F12C6ECF29131EC02091BA015A
:1052A0009081291319C04091C1015091C2012781F9
:1052B00030854217530781F4E1100EC08683C80180
:1052C0000E94E72089E0F801AAEBB1E001900D927D
:1052D0008A95E1F7FB2C4ECFC8010E945D1288230E
:1052E00009F44DCFEE2009F44ACF8091C0018032FD
:1052F000B8F02091BA013091BB013B872A87DD8647
:10530000CC869091BE019E871F86888B8091C101BB
:105310009091C2019A8B898BCE010A960E94E72058
:1053200089E0F801AAEBB1E001900D928A95E1F7CE
:105330000E941A2800CF8091C001982F907F51F4CD
:105340008AEB91E00E94E72089E0F40111928A95AE
:10535000E9F7A0CFFF2009F4EECE2091BB01F801C0
:10536000918129131AC02091BA019081291315C087
:105370004091C1015091C2012781308542175307E6
:1053800061F4E1100AC08683C8010E94E72089E029
:10539000F40111928A95E9F79DCFC8010E945D1230
:1053A000882309F4ECCEEE2009F4E9CE8091C00107
:1053B000803208F4B5CF2091BA013091BB013A8315
:1053C0002983DC82CB829091BE019D831E828F83D4
:1053D0008091C1019091C20199878887CE01019681
:1053E0009DCF60E08AEB91E00E9487120E94A51099
:1053F0006816790608F0A8CFFF2009F49CCEFE2C91
:10540000EE2009F4BCCE9091BB01F8018181981384
:1054100036C09091BA018081981331C02091C101AA
:105420003091C201878190852817390741F5809115
:10543000BC019091BD01C81AD90AF8ECCF16D1046D
:10544000A8F49091C00190FD11C0907F79F08091F7
:10545000C001F8018683903F31F0982F907F905FD4
:105460008F70892B8683C8010E94E72089E0F801AC
:10547000AAEBB1E001900D928A95E1F77BCEC801CD
:105480000E945D1281114CCF8091C0018160809398
:10549000C001C8010E94E7206DCEA2E1B0E0E3E5C3
:1054A000FAE20C94B1330A871B872C873D874E871D
:1054B0005F87688B798B8A8BCE010A960E947F2842
:1054C00081110CC089E0FE013A96DE01119601902F
:1054D0000D928A95E1F78E8581110BC019E08091BC
:1054E000EB049091A204891331C06296E4E00C941D
:1054F000CD332091A20430E0C9010196877099272D
:105500004091EB044817190699F099E0929FD00159
:10551000939FB00D1124AD55BB4FFE013196019004
:105520000D929A95E1F78093A2040E940D0DD6CFBB
:105530000E94CA171092A2041092EB0489E0EAEBD1
:10554000F1E0DF011D928A95E9F7C8CF819FC00184
:1055500011248D559B4F0E947F28882331F2809122
:10556000EB0490E00196877099278093EB04B7CF06
:10557000EF92FF920F931F93CF93DF938091D70306
:10558000882361F0E0919E038DE0F82E8091D7038F
:10559000E81748F01092D70310929E03CDB7DEB7FC
:1055A000E6E00C94CB33EE24E394EE0EE0929E03FF
:1055B000CE2FD0E0EF9DF0011124E852FC4F848102
:1055C0008823E9F087819085892B21F48185928554
:1055D000019659F4008111812281338144815581E2
:1055E0006681778180850E944D2AFC9EF001FD9E98
:1055F000F00D1124E852FC4F148210926204EE2D3B
:10560000C5CF10924B0410924A0410921001809161
:105610004904809348040E94030A0E94B82A08950E
:10562000B0E0A0E0E6E1FBE20C94A433C0914804B2
:1056300097E0992E01E010E02DE0322E34E0432E69
:1056400055245394809149048C1309C00E94B82AB0
:105650000E94030ACDB7DEB7E1E10C94C033D0E07D
:10566000FE01EE0FFF1FE05CFB4F80819181989E51
:10567000D001999EB00D1124A156BC4F14962C91C7
:105680001497211159C06090D703E8EDF3E030E0A2
:1056900020E0812C5D01261508F04CC0E384F484E1
:1056A000D501CD90DC906FEF7FEF712C472D50E04E
:1056B000DA01AA0FBB1FAC0DBD1D0D90BC91A02D32
:1056C000109731F0EA16FB0609F4BA017394EECF95
:1056D0006F3F7607A9F1D80102C0AA0FBB1F6A95D8
:1056E000E2F78A2AB801072C02C0660F771F0A94D6
:1056F000E2F7AB01415051098416150601F5329EBF
:10570000F001339EF00D1124E852FC4F989ED00119
:10571000999EB00D1124A156BC4F12962D913C912B
:105720001397308727834482108211829287818762
:1057300015965C920E94D5092196C37083CF14827E
:105740002F5F3F4F3D96A7CFA6E0B0E0EAEAFBE22D
:105750000C94B1330E9444168C018091EA0190911F
:10576000EB018017910781F019821A820E9444167A
:10577000682F49815A81792F80E090E00E947B1D3B
:105780001093EB010093EA012696E4E00C94CD33EC
:105790001F921FB61F9211248F939F93AF93BF93B5
:1057A00080916C04811113C080916D0490916E04FE
:1057B000A0916F04B09170044196A11DB11D80931A
:1057C0006D0490936E04A0936F04B0937004BF9126
:1057D000AF919F918F911F901FBE1F901895CDB7CD
:1057E000DEB7C954D1090FB6F894DEBF0FBECDBFE6
:1057F00085B7806885BF85B7806885BF84B7877F98
:1058000084BF0FB6F894A89580916000886180935A
:105810006000109260000FBE80E890E00FB6F89430
:1058200080936100909361000FBE80E99AE09093AD
:105830008701809386010E946B0A0E944D110E948D
:10584000C1100E9457070E94F8078091E20084600F
:105850008093E2007894809198048823A1F01091BD
:10586000E9001F709091EC00892F817090FD80E815
:10587000182B1092E9008091E80083FD0E94EA173E
:105880001F701093E90082E084BD93E095BD9AEF0C
:1058900097BD80936E000E94B712811102C00E94D2
:1058A000811081E08093FF0185988D9A84988C9A6D
:1058B0008FE891E00197F1F700C000002091FF010F
:1058C00040E052E0FA018E2F841B821708F4C4C016
:1058D00005E511E0D8018D918D018F3F11F00E94F7
:1058E000920AB1E00A351B07A9F70AE511E09FE526
:1058F000E92E91E0F92EF80181918F018F3F11F08F
:105900000E94920AE016F106B1F785E0E4E0F2E0C9
:10591000DF01282F1D922A95E9F7EFEEF1E0DF0174
:105920001D928A95E9F790E080E00E943C34863E23
:105930009E4F21F40E94B712811167C066EE7EEF80
:1059400090E080E00E94703460E082E090E00E948D
:10595000523460E083E090E00E9452341092F401EF
:1059600060E074E184E090E00E94703460E086E0E2
:1059700090E00E9452346FEF87E090E00E94523432
:1059800040E050E0BA0188E090E00E94643460E0BA
:1059900084E290E00E94523460E087E190E00E944F
:1059A000523460E08CE090E00E94523460E08DE080
:1059B00090E00E94523419821A821B821C821D823E
:1059C0001E821F82188648E050E068E170E0CE0138
:1059D00001960E94423440E050E0BA0180E290E03B
:1059E0000E94643480E00E94C60F0E94811040E053
:1059F00050E0BA018FE090E00E94643440E050E053
:105A0000BA0183E190E00E94643482E090E00E9459
:105A100034348093F50184E090E00E943C3490930C
:105A20007204809371040E945016EFEFF6E721E0B4
:105A3000E150F0402040E1F700C000000E94501605
:105A40008091040280FF14C06FEF7FEF90E080E050
:105A50000E9470340E94B5088FB185FB882780F9B9
:105A60007C9904C090E0892B81932DCF92E0FBCFED
:105A700083E090E00E9434340E94F70D0E94FA12F5
:105A80003FEF87EA91E6315080409040E1F700C057
:105A900000000E94FA1281E091E0909369048093E3
:105AA000680488E1A82EB12C84E092E0A5E0A80F5C
:105AB0002A96AFAF2A978091980400E4F02E00E177
:105AC00012E1853009F499C00E945016B6EFEB2E12
:105AD000B1E0FB2E14E0C12E12E0D12E2BEF31E00D
