:100000000C94AF060C94CC060C94CC060C94CC0645
:100010000C94CC060C94CC060C94CC060C94CC0618
:100020000C94CC060C94CC060C94FF120C942D1757
:100030000C9400220C94CC060C94CC060C94CC06A8
:100040000C94CC060C94CC060C94CC060C94CC06E8
:100050000C94CC060C94D8130C94CC060C94CC06BF
:100060000C94CC060C94CC060C94CC060C94CC06C8
:100070000C94CC060C94CC060C94CC060C94CC06B8
:100080000C94CC060C94CC060C94CC060C94CC06A8
:100090000C94CC060C94CC060C94CC060C94CC0698
:1000A0000C94CC060C94CC060C94CC0605010902E9
:1000B000A10185020901A1000509190129081500FE
:1000C0002501950875018102050109300931158165
:1000D000257F95027508810609381581257F9501D0
:1000E00075088106050C0A38021581257F95017572
:1000F000088106C0C005010980A101850319012AF4
:10010000B700150126B700950175108100C0050CD8
:100110000901A101850419012AA002150126A002E6
:10012000950175108100C005010906A1018506052C
:100130000719E029E71500250195087501810205D9
:1001400007190029EF1500250195F07501810205B9
:10015000081901290595057501910295017503910D
:1001600001C00660FF0961A1010962150026FF00B8
:100170009520750881020963150026FF00952075FA
:10018000089102C005010906A101050719E029E748
:1001900015002501950875018102950175088101F9
:1001A0000507190029FF150026FF0095067508812F
:1001B000000508190129051500250195057501910E
:1001C00002950175039101C00000000000000000CD
:1001D000000000000000000000000000000000001F
:1001E0000000000000000000000000007E0F00D4AE
:1001F000FFFFFFC7000000780000000000000000C3
:100200002A2B280000000000000000000000000071
:1002100000000029000000002C1E3420212224347C
:100220002627252E362D3738271E1F20212223244E
:1002300025263333362E37381F0405060708090AEA
:100240000B0C0D0E0F101112131415161718191A86
:100250001B1C1D2F3130232D350405060708090A04
:100260000B0C0D0E0F101112131415161718191A66
:100270001B1C1D2F3130354C00AF00AE406060F0CC
:10028000F0F0F8F8F8FCFCFEFEFEFFFFFFFFFEFEBC
:10029000FCFCFCF8F8F0F0E0E0E0C04020307078C2
:1002A00048C98D87070707070F0F0F1F1F0F0F0F75
:1002B000070707070F8B9991D17060201018182C31
:1002C000246446C383830202060404080804040469
:1002D0000202838387C54C4868383010080C1C160E
:1002E0001232236141C181818302020404020202AD
:1002F0008181C14143622624341C1808000000009B
:1003000000000000000000000101030202030101DF
:10031000010000000000000000000000406060B02C
:1003200090901808080C040602020301010302065B
:1003300004040C0818103020A0C0C04020303078D1
:1003400078F9FDFFFEFEFCFCFCF8F8F0F0F8F8F898
:10035000FCFCFEFEFEFBF9F1F16060201018182C89
:10036000246446C3838303030707070F0F070707A8
:100370000303838387C54C4868303010080C0C1E7B
:100380001232236141C1818183020204040202020C
:100390008181C141436226243418180800000000FE
:1003A000000000000000000001010302020301013F
:1003B000010000000000000000000000006060A0DC
:1003C00090901808080C04040202030101030206BD
:1003D0000404080818103020A0C0C040003030507D
:1003E00048C98D87060604040C0808101008080880
:1003F000040406060E8B999150606020001818388E
:100400003C7C7EFFFFFFFEFEFEFCFCF8F8FCFCFCE3
:10041000FEFEFFFFFFFD7C7838303010000C0C141E
:1004200012322361414181818303030707030303E0
:100430008181C1414362262414181808000000007D
:10044000000000000000000001010302020301019E
:10045000000000000000000000000000004060A05C
:1004600090901008080C0404020202010102020626
:100470000404080810103020A0C0400000203050B4
:1004800048488985060604040C0808101008080866
:10049000040406060A899191506060000010182833
:1004A000242444428383020206040408080404044A
:1004B0000202838385444C4828301000000C0C1C39
:1004C0001E1E3E3F7F7FFFFFFFFEFEFCFCFEFEFE8A
:1004D000FFFF7F7F7E3E3C3C1C18080000000000B0
:1004E0000000000000000000010101030301010100
:1004F000000000000000000000000000000000F804
:1005000006F2F2F4E4D83070C0C0C04060101010A1
:100510001010080402797D02FC00000000000000B9
:10052000030C33C78F9F87C1E02004040E8A8480A8
:100530000000002022858200070810E00000000073
:10054000000000018F7F7F67300000000081C0C085
:10055000E0E0E0E1E1F0F008E4100E01000000004E
:10056000806018060100000000003CFEFFFFFFFF56
:10057000FFFFFFFFFFFFFFFEC13EC00000F00C02C7
:1005800001000000000000000000000003FFFFFF6A
:10059000FFFFFFFFFFFFFFFFFFF0FF00070000006E
:1005A0000000000000000000000000000007070736
:1005B0000707070707070707070707000038E404CE
:1005C000E4E4E8C810202040404020201010101023
:1005D00010181C1A45C10EF0000000000000030EA8
:1005E00011E78F9F9FC00000000283E1F1F0F8FC4B
:1005F000FDFDFCFCFCFCF8F0E1C20CF0000000008A
:100600000000010FFF39000000000F1F3F3F7FFF78
:10061000FFFFFFFFFF7F7F3F0F83700F0000008011
:10062000601806010000000000000E1EFCFCFCFC2F
:10063000FCFCFCFCFCFC827EC1000000C038060112
:100640000000000000000000000000001FFFFFFF8E
:10065000FFFFFFFFFFFFFFFEC1FE000007000000DD
:100660000000000000000000000000000007070775
:10067000070707070707070707070000556E6465A8
:1006800066696E656400436F64650047616D65006F
:1006900046756E63004261736500A8005300540004
:1006A0005500560000005F00600061005700000028
:1006B0005C005D005E000000000059005A005B0015
:1006C00000000152620000006300580001000100B8
:1006D0000100010001000000010001000100010013
:1006E0000000010004010100000000001B010601E0
:1006F0001901000002521D0100000100010001006B
:10070000010001000100010000001E001F00200088
:100710000100000014001A0008000000000004009E
:100720001600070000000352010000000100010054
:1007300001000100010001000100000001000100B2
:1007400001000100000001000100010000000000A4
:1007500035010E03380100000052010000000100C5
:100760000100A900AA00A900AA00A900AA00A900E6
:10077000AA0009025B00030100A0FA0904000001BD
:100780000301010009211101000122440007058134
:1007900003080001090401000203000000092111FF
:1007A0000100012222000705820320000107050342
:1007B00003200001090402000103000000092111C7
:1007C00001000122B6000705840320000112010088
:1007D00002000000084E4402000001010200010C6A
:1007E000036E0064006B0031003600000008036EE9
:1007F0000064006B0000000403090407087F080779
:10080000003E5B4F5B3E003E6B4F6B3E001C3E7CF0
:100810003E1C00183C7E3C18001C577D571C001CD9
:100820005E7F5E1C0000183C180000FFE7C3E7FF76
:1008300000001824180000FFE7DBE7FF0030483A0B
:10084000060E00262979292600407F05050700406D
:100850007F05253F005A3CE73C5A007F3E1C1C08A0
:1008600000081C1C3E7F0014227F2214005F5F00E2
:100870005F5F0006097F017F00006689956A00605E
:10088000606060600094A2FFA2940008047E0408E7
:100890000010207E20100008082A1C0800081C2ACE
:1008A0000808001E10101010000C1E0C1E0C00304A
:1008B000383E383000060E3E0E06000000000000F4
:1008C0000000005F000000000700070000147F1414
:1008D0007F1400242A7F2A12002313086462003642
:1008E0004956205000000807030000001C22410068
:1008F000000041221C00002A1C7F1C2A0008083E20
:10090000080800008070300000080808080800008F
:1009100000606000002010080402003E5149453E7E
:100920000000427F40000072494949460021414988
:100930004D33001814127F10002745454539003CFF
:100940004A494931004121110907003649494936D0
:1009500000464949291E00000014000000004034F0
:1009600000000000081422410014141414140000A4
:1009700041221408000201590906003E415D594E0A
:10098000007C1211127C007F49494936003E4141EA
:100990004122007F4141413E007F49494941007F5A
:1009A00009090901003E41415173007F0808087F91
:1009B0000000417F4100002040413F01007F0814BA
:1009C0002241007F40404040007F021C027F007FA8
:1009D0000408107F003E4141413E007F090909069D
:1009E000003E4151215E007F0919294600264949F0
:1009F00049320003017F0103003F4040403F001F98
:100A00002040201F003F4038403F0063140814631B
:100A1000000304780403006159494D4300007F41FD
:100A2000414100020408102000004141417F0004C0
:100A3000020102040040404040400000030708005B
:100A4000002054547840007F2844443800384444FF
:100A5000442800384444287F003854545418000077
:100A6000087E09020018A4A49C78007F080404787A
:100A70000000447D4000002040403D00007F1028E1
:100A800044000000417F4000007C04780478007C32
:100A90000804047800384444443800FC182424181E
:100AA0000018242418FC007C08040408004854544E
:100AB00054240004043F4424003C4040207C001C9B
:100AC0002040201C003C4030403C0044281028447A
:100AD000004C9090907C004464544C4400000836D4
:100AE00041000000007700000000413608000002CD
:100AF00001020402003C2623263C00000000000006
:100B000000404040F0F8F8FF38FFF8F83FF8F8FFF1
:100B100038FFF8F8F040404000000000000080C0BE
:100B2000C0C0800000C0C08000000080C0C000C005
:100B3000C0000080C0C00000000000C0C0C0C0C035
:100B400000C0C00000000000000000000000000025
:100B50000000000000000000000000000000000095
:100B60000000000000000000000000000000000085
:100B700000000000000000000000C0F0F8FC3E1E75
:100B800006010000007F4141417F007F4141417FDC
:100B9000000080C0E07E5B4F5BFEC00000C000DC58
:100BA000D7DEDEDED7DC00C0000000000000000061
:100BB0000000000000000000000000000000000035
:100BC00000494949FFFFFFFFE0DFBFBF00BFBFDFB4
:100BD000E0FFFFFFFF49494900000000001F3F60A0
:100BE00060E0BF1F007F7F071E381E077F7F007FEA
:100BF0007F0E1F3B716000000000007F7F0C0C0C1B
:100C0000007E7E007F7E0303007F7E03037E7E03E3
:100C1000037F7E000F3E703C063C703E0F00327B2F
:100C200049493F7E007F7E0303001E3F69696F26AE
:100C300000000000000000000000030F1F3F3C7890
:100C400070600000007F4141417F007F4141417F52
:100C500000307B7F7830202030787F3B0003000F0E
:100C60007F0F0F0F7F0F0003000000000000000047
:100C70000000000000000000000000000000000074
:100C800000010101070F0F7F0F7F0F0F7E0F0F7FF6
:100C90000F7F0F0F0701010100000000000000009E
:100CA0000000010100000000000000000000000042
:100CB0000000000000000000000000000000000034
:100CC0000000000000000000000000000000000024
:100CD0000000000000000000000000000000000014
:100CE0000000000000000000000000000000000004
:100CF00000000000000000000000000000000000F4
:100D000000000000000000000000000000000000E3
:100D100000000000000000000000000000000000D3
:100D200000000000000000000000000000000000C3
:100D3000000000000000000000000000DA0281FF57
:100D4000D9F1DB20A4A62EAF00A0C0D30000A1C81B
:100D5000D30000AED580A81F408D142000001124C0
:100D60001FBECFEFDAE0DEBFCDBF11E0A0E0B1E003
:100D7000ECEAF2E502C005900D92AC37B107D9F765
:100D800024E0ACE7B1E001C01D92A83AB207E1F758
:100D90000E9427220C9400290C940000482F2091D7
:100DA00091029091580257E0291302C080E0089503
:100DB00030E0529FF001539FF00D1124E75AFD4F90
:100DC0008181681306C08081481303C08581811129
:100DD000EECF2F5F3F4F2770E7CFE8EDF0E0808147
:100DE0008E7F80831092E2001092DA001092E10070
:100DF000A0EEB0E08C9181608C9380818F778083AE
:100E000019BCA7EDB0E08C918E7F8C9380818F7E92
:100E100080831092410208952091E4003091E50012
:100E200095E6A9012091EC00822F817020FF06C079
:100E30008091E80080FF06C080E008952091E800DE
:100E400022FD1AC080914E02882389F0853089F0F6
:100E50008091EB0085FD0FC02091E4003091E5000A
:100E600042175307F9F29150E1F684E0089582E0C9
:100E7000089583E0089581E008958091500287FFEE
:100E800013C08091E80082FF06C08091E8008B7754
:100E90008093E80004C080914E028111F2CF089542
:100EA00080914E028823D9F38091E80080FFF8CF2B
:100EB0008091E8008E77ECCF982F9093E900242F53
:100EC000762F50E0891731F07091EC002091ED0001
:100ED0005091F00021FD07C09F5F973071F780931C
:100EE000E90081E008953091EB003E7F3093EB0004
:100EF0003091ED003D7F3093ED003091EB0031609B
:100F00003093EB007093EC002093ED005093F000D1
:100F10002091EE0027FDE0CF80E00895B0E0A0E052
:100F2000E4E9F7E00C943E28C8EDD0E088818F7E9C
:100F30008883E7EDF0E080818160808384E082BF78
:100F400081E08093410288818E7F888302EE10E0E9
:100F5000F80110821092DA0081EEC82ED12CF60131
:100F6000108288818F7788838881806888838881D0
:100F70008F7D888319BC10924E0210924F021092FE
:100F80004D0210924C0290EEE92EF12CF701808177
:100F90008B7F808388818160888342E060E080E08D
:100FA0000E945C07F60180818E7F8083F80180813A
:100FB00081608083808188608083F70180818E7F5B
:100FC0008083888180618883CDB7DEB7E8E00C94A8
:100FD0005A28FC0180915602909157028617970774
:100FE000A0F06115710529F49091E8009E77909327
:100FF000E80090E06115710551F4911108C08091ED
:10100000E80082FF34C080E00895BC01F2CF8091F7
:101010004E028823C1F18530C1F18091E80083FD43
:1010200030C08091E80082FDEACF8091E80080FF27
:10103000E1CF8091F3002091F200382F6115710506
:1010400019F02830310558F091E02830310509F0C9
:1010500090E02091E8002E772093E800CBCF81919B
:101060008093F100615071092F5F3F4FE7CF80916E
:101070004E02882341F0853041F08091E80083FFE3
:10108000BECF81E0089582E0089583E008958091C5
:101090004302089587E797E790930108809300083B
:1010A00088E19AE00FB6F894A895809360000FBE8F
:1010B00090936000FFCF2FB7F89460913D0270913C
:1010C0003E0280913F02909140022FBF089590917F
:1010D00011019923D1F090913A0297FF16C0E82FA1
:1010E000E695E695E695EE31E0F4F0E0EA57FE4F3E
:1010F000282F277081E090E001C0880F2A95EAF739
:1011000080959281892382830895E0E8F1E09191AE
:10111000891303C0DF0111971C9291E0E638F907AB
:10112000B1F70895909111019923C1F090913A027D
:1011300097FF14C0E82FE695E695E695EE31F8F4B2
:10114000F0E0EA57FE4F877021E030E001C0220F47
:101150008A95EAF78281822B82830895A0E8B1E024
:10116000EFEF90E02D91821751F0EF3F19F421112C
:1011700001C0E92F9F5F9630A9F7EF3F09F408956A
:101180000E2E000CFF0BE258FE4FE6CFA3E0B0E0BE
:10119000ECECF8E00C9444282091380230913902AC
:1011A00028173907A1F09093390280933802E09113
:1011B0003602F0913702309751F024E029839B8367
:1011C0008A830084F185E02DCE010196099523964E
:1011D000E2E00C946028A3E0B0E0E1EFF8E00C94CA
:1011E0004428209134023091350228173907A1F0A4
:1011F0009093350280933402E0913602F0913702E9
:10120000309751F023E029839B838A830084F18502
:10121000E02DCE01019609952396E2E00C9460281A
:10122000E0913602F0913702309729F00190F08179
:10123000E02D0995089580E008958091290280FDB0
:1012400016C081FD16C082FD16C080912802882339
:10125000A1F0883280F428E0829FC001112468E266
:1012600070E00E947728862F672B39F0089582E07E
:10127000089584E0089588E0089581E008958091BC
:10128000290280FD14C081FD14C082FD16C080912A
:101290002702882381F08E3180F420E5829FC001EF
:1012A00011246EE170E00E947728862F089584E172
:1012B000089588E2089588E0089580E50895282F2C
:1012C00035EB2303C001112497FF04C08058910916
:1012D000892F089580589F4FFBCFCF93DF932091A4
:1012E0009D0230919E022F593240A901460F571F8F
:1012F0004130524020F060E072E0621B730B40917D
:101300009B0250919C02FC01C901620F731FC1E056
:10131000D0E08617970738F050939C0240939B02C9
:10132000DF91CF9108952491DC01A156BD4F3C91EE
:10133000321781F02C939C01A5E036952795AA954C
:10134000E1F7DE0102C0AA0FBB1F2A95E2F79D015B
:101350004A2B532B01963196DCCF2091A60436E020
:10136000839FC0011124629F800D911D112481155E
:1013700022E0920714F090E080E081569D4F909318
:101380009E0280939D02089580E00895F894E82FCE
:10139000E295EF70F0E031A1282F2F7081E090E00E
:1013A00001C0880F2A95EAF7982F9095932391A36F
:1013B00092A1892B82A37894089590913A0292FF8A
:1013C00010C041E0282F2471243009F040E031E0C2
:1013D000282F2871283009F030E0431711F02CE055
:1013E000822793FF10C041E0282F2471243109F097
:1013F00040E031E0282F2871283109F030E0431710
:1014000011F02CE0822730913B0230FF10C051E0F8
:10141000282F2171213009F050E041E0282F287158
:10142000283009F040E0541711F029E0822731FFFD
:1014300010C041E0282F2171213109F040E031E056
:10144000282F2871283109F030E0431711F029E0E6
:10145000822794FD877E089582389105B9F1B0F412
:101460008133910509F47DC048F48932910509F46E
:101470006DC08A32910509F47BC0089585339105CA
:1014800009F45FC08933910509F10895833E910500
:10149000D9F138F4803E910529F1823E910579F128
:1014A0000895863E9105D9F1873E910509F43EC025
:1014B000843E910541F520913B0221FF24C080919B
:1014C0003A0284FD19C087EE90E0089520913A0217
:1014D000237009F05AC020913B0223FF14C089E217
:1014E00090E0089520913A0220FD38C030913B02EF
:1014F00030FF09C024FF43C090E080E008952091B0
:101500003A0222FDF7CF089520913A0222FD3AC017
:1015100030913B0230FD39C024FFF5CFEDCF209153
:101520003A0223FFF0CF24FDE7CFCDCF20913A023E
:1015300023FD2EC030913B0231FFEECF84EE90E0D0
:10154000089520913A0225FFDECFC9CF20913A02BB
:1015500025FD21C020913B0223FFD5CF89E390E0F8
:10156000D2CF20913A0226FFCECF8AE290E00895B2
:1015700020913A0226FFC7CF81E390E0089583EEE1
:1015800090E0089582EE90E0089580EE90E0089556
:1015900086EE90E0089585E390E008951F93CF9341
:1015A000DF930E942C0AEC01C11580E5D807F0F505
:1015B000C11580E4D80708F09CC0C03ED10520F5D5
:1015C000CD3CD10508F082C0C83AD10578F4C53ABF
:1015D000D10508F073C0C130D10519F1209709F188
:1015E000C430D105F0F4D0E0C0E01BC0C33CD1054D
:1015F000D0F7C85AD0E0CC0FDD1FCB5EDE4F09908C
:10160000D881C02DD4640DC0C11580E2D80708F080
:10161000D1C0C11581E0D80708F05AC0C83ED10535
:1016200010F7CE01DF91CF911F910895C03682E56A
:10163000D80718F5C03482E5D80708F06BC0C0326F
:1016400082E5D80708F05FC0C11582E5D80708F425
:1016500097C02C2F2695269580E2289F9001112473
:101660008C2F8370C1E0D0E002C0CC0FDD1F8A95C3
:10167000E2F7C22BD32BDD68D4CFC03A82E5D8077E
:1016800060F4C03882E5D80708F459C0CF71D0E0C3
:10169000DC2FCC27C46FD06AC4CFC03C82E5D8070A
:1016A00008F462C0C03E82E5D80708F09CCFDC2F6A
:1016B000CC27CC27DF71C06FD06AB3CFC55AD0E03A
:1016C000CE5EDE4FC881D0E0D064ABCFD065A9CF6D
:1016D0008D2F0E94DD09182FCE0199270E942C0A18
:1016E000C12FD0E0DC2FCC27CC27DF71C82BD92B22
:1016F00098CFCE0199270E942C0ACC27DF70C82BE7
:10170000D92BD06A8ECFCF71D0E0DC2FCC27C16F20
:10171000D06A87CF2C2F26952695277080E2289FA8
:10172000900111248C2F8370C1E0D0E002C0CC0F57
:10173000DD1F8A95E2F7C22BD32BDC6872CF2C2FEA
:1017400026952695277080E2289F900111248C2FE2
:101750008370C1E0D0E002C0CC0FDD1F8A95E2F7B4
:10176000C22BD32BDA685DCF8C2F8F710E94DD09DD
:10177000C82FD0E0DC2FCC27CC27DF71D06251CF2F
:101780008C2F8F710E94DD0955E0D695C7955A952B
:10179000E1F7CF70D0E0DC2FCC27282F30E084FF9A
:1017A00005C044E0220F331F4A95E1F7C22BD32B2B
:1017B000D06937CF8D2F8F710E94DD09182FCE0190
:1017C00099270E942C0AC12FD0E0DC2FCC27CC27F0
:1017D000DF71C82BD92BD2CF80959091E901982346
:1017E0009093E90108958091E9019091C001892BBE
:1017F0009091BF01992391F0892B90911101992328
:1018000071F090913A0297FF0AC09EE128E831E01A
:1018100040E0915040F441111092BF01089596E0CC
:1018200020E831E0F5CFF90151919F01552389F36B
:101830004F5FEFCF8091910290915802981301C0B1
:1018400008958F5F8770FACFA82FA77023E0969531
:1018500087952A95E1F7FC01EE0FFF1FE80FF91FAE
:10186000E60FF71F50E040E080E0219130E00A2EC3
:1018700002C0369527950A94E2F721703327042E8B
:1018800001C0220F0A94EAF7822B4F5F5F4F43306B
:10189000510559F70895292F953068F4853090F453
:1018A00090E06BEA71E035E0239F800D911D1124DB
:1018B0000E94240C08952C5F223020F468EA71E025
:1018C00090E0F6CF80E00895262F277091E001C0C8
:1018D000990F2A95EAF723E0769567952A95E1F71F
:1018E000FB01EE0FFF1FE60FF71FE40FF51F50E09F
:1018F00040E0682F70E08191DF0111979B01042E79
:1019000002C0369527950A94E2F721702195282781
:10191000292328272C934F5F5F4F4330510559F7F8
:101920000895282F862F953070F4253058F4622FB3
:1019300070E025E0929F600D711D11244BEA51E08B
:101940000E94640C08959C5F9230E0F7622F70E073
:1019500048EA51E0F5CF809306020895909106027F
:1019600021E030E0F90101C0EE0F8A95EAF7D901D4
:1019700002C0AA0FBB1F6A95E2F7EA2B01C0220F33
:101980004A95EAF7892F8E23E81305C0292B822F69
:101990000E94AB0C089520952923F9CF21E030E077
:1019A00001C0220F8A95EAF72095809106028223D2
:1019B0000E94AB0C08959091BE018095892380937D
:1019C000BE01282F277069F4891759F090913B02C6
:1019D00092FF07C08695869586950E94CE0C109240
:1019E000BE01089521E030E001C0220F8A95EAF798
:1019F00080910602822B0E94AB0C08958093F40123
:101A00000895982F92959F7011F0892F94E0282FB8
:101A10002695269511F09E5F822F869509F09F5F8F
:101A2000892F0895CF93DF93682F81E06A3019F0F2
:101A30006D3031F480E00E94920DDF91CF910895D6
:101A400080919D0290919E0226E0FC01A5E9B2E002
:101A500001900D922A95E1F7603E08F458C026E007
:101A6000FC0111922A95E9F7C0919D02D0919E0246
:101A700046E050E0BE0185E992E00E94A1289E0167
:101A80002F593240892B41F1C90145E09695879540
:101A90004A95E1F741E050E0BA0102C0660F771FB6
:101AA0008A95E2F7CB0160919B0270919C02862B94
:101AB000972BB9016B5F7F4FE5E076956795EA95C7
:101AC000E1F702C0440F551F6A95E2F7842B952B6E
:101AD00090939C0280939B022A5F3F4F4091A60403
:101AE000642F70E0C9010E942028481B463010F482
:101AF000240F311D211572E0370710F030E020E08F
:101B000021563D4F30939E0220939D0296CFF6E0E2
:101B10006F9FB00111246550784F46E050E00E945D
:101B20009828A2CFCF93382FE0919D02F0919E028A
:101B3000EF59F2402091A604622F70E0CF010E947D
:101B40002028281B822F332361F066E00E946B2837
:101B5000C82FC15010F4CF91089580E20E94120D59
:101B6000F8CF9F01280F311D2115324018F080E079
:101B7000F0E0E0E08E0F9F2F911D81569D4F9093D6
:101B80009E0280939D02E7CFCF93DF93EC01FE018D
:101B90008491811106C081E00E94920DDF91CF9166
:101BA00008950E94120D2196F2CF80911101882391
:101BB00059F180913A0287FF27C00E94F30B80936E
:101BC000870140E250E061EC71E086E891E00E941C
:101BD000A128892BC1F080E2E6E8F1E0A1ECB1E0B8
:101BE00001900D928A95E1F7E0913602F09137026B
:101BF000309749F086E0809386010480F581E02DDE
:101C000086E891E0099508950E94F30B80937E0188
:101C100048E050E061EE71E08EE791E00E94A1287B
:101C2000892B89F388E0EEE7F1E0A1EEB1E00190C5
:101C30000D928A95E1F7E0913602F09137023097E4
:101C400011F30280F381E02D8EE791E0DBCF882352
:101C500021F00E94EC0B0E94D50D0895882339F0E5
:101C60009091E901982B9093E9010E94D50D089578
:101C70000F931F93CF93DF938B01EA0190914E0254
:101C8000943061F58093E9008FEF9091E8008150E6
:101C900095FD06C095ED9A95F1F700008111F5CFFD
:101CA0008091E80085FF1AC00E940C07811111C0C5
:101CB0008091E80085FD06C08091E8008E778093D2
:101CC000E800F2CFF80181918F018093F100219714
:101CD00079F78091E8008E778093E800DF91CF91CB
:101CE0001F910F91089543E050E0BC0184E00E94F1
:101CF000380E089546E050E0BC0184E00E94380EA2
:101D0000089540E250E0BC0184E00E94380E08953E
:101D1000CF93DF93EC0148E050E0BC0181E00E94EA
:101D2000380E88E0FE01A4E4B2E001900D928A959D
:101D3000E1F7DF91CF910895CF93C82F6FEF811115
:101D400063E285E290E00E94CC286FEFC11162E16E
:101D500086E290E00E94CC286FEFC11160E387E239
:101D600090E00E94CC28CF910895CF93DF93C1E0FB
:101D7000D1E060E0CE010E94CC282196C11584E01C
:101D8000D807B9F7DF91CF9108950F931F93CF93A1
:101D9000DF93142F022F8430F0F461111CC094E003
:101DA000899FE0011124CF50DF4F82E090E044236F
:101DB00011F090E080E0632F8C0F9D1F0E94CC28D3
:101DC00083E090E0112311F081E090E0602F8C0F10
:101DD0009D1F0E94CC28DF91CF911F910F910895F4
:101DE0001F93CF93DF93122F8430E0F46530D0F44B
:101DF0004530C0F4C42FD0E0CC0FDD1F9AE0699FBE
:101E0000C00DD11D112492E3899FC00DD11D112455
:101E1000632FCE0189960E94CC28612FCE018A962D
:101E20000E94CC28DF91CF911F9108958F929F92AD
:101E3000AF92BF92CF92DF92FF920F931F93CF93F7
:101E4000DF9302E617E08AE9C82E86E0D82EC0E0CC
:101E50005601D0E015C0F401259134914F2D6D2F1E
:101E60008C2F0E94F00E82E0880E911CF39485E086
:101E7000F812F1CF8AE0A80EB11CDF5FD53019F05F
:101E80004501F12CE8CFF8012591349141E060E063
:101E90008C2F0E94C50EF80132962591349140E0B6
:101EA00060E08C2F0E94C50E0C5F1F4FCF5F82E356
:101EB000C80ED11CC43009F0CBCFDF91CF911F9158
:101EC0000F91FF90DF90CF90BF90AF909F908F9039
:101ED000089580E00E949C0E60E088E290E00E94FD
:101EE000CC280E94160F0E94B50E81E00E949C0E25
:101EF000089585E290E00E94AE28833289F486E25C
:101F000090E00E94AE28823159F487E290E00E946E
:101F1000AE2891E0803309F090E0892F8170089518
:101F200080E0FCCFFF920F931F93CF93DF93F42EAB
:101F3000843040F5611126C024E0829F8001112485
:101F40000F501F4F82E090E0442311F090E080E0BA
:101F5000800F911F0E94AE28C82FD0E0DC2FCC2725
:101F600083E090E0FF2011F081E090E0800F911F6E
:101F70000E94AE289E01282BC901CDB7DEB7E5E04F
:101F80000C945D2890E080E0F8CF0F931F93CF93DF
:101F9000DF93843030F5653020F5453010F5C42FDF
:101FA000D0E0CC0FDD1F2AE0629FC00DD11D1124AF
:101FB00032E3839FC00DD11D1124CE0189960E946A
:101FC000AE28082F10E0102F0027CE018A960E941D
:101FD000AE289801282BC901DF91CF911F910F9155
:101FE000089590E080E0F8CF462F672F753038F4E1
:101FF000453060F4843050F40E94C50F08957D3F51
:1020000041F4411103C041E0843048F090E080E0A9
:1020100008957C3FD9F74111F9CF8430B8F760E0DB
:102020000E94920F0895CF92DF92FF920F931F9319
:10203000CF93DF936C01009106028091F401082B8D
:10204000C3E0D0E010E0FC2EC8010C2E02C0959534
:1020500087950A94E2F780FD0CC02197A0F7F12C38
:102060008F2DDF91CF911F910F91FF90DF90CF9037
:102070000895B6018C2F0E94F40F0E94CE0A01979A
:1020800061F3EECFCF93DF93EC010E941310BE01FA
:102090000E94F40F0E94CE0ADF91CF910895FC01B7
:1020A00024812223C1F0808191810E944210929567
:1020B0009F70963091F058F4925F9F70923058F470
:1020C000803F19F030F4883E30F481E008959A5F43
:1020D000F4CF843FD1F380E00895883EB0F3813F90
:1020E000D1F7F3CFA6E0B0E0E8E7F0E10C944328A5
:1020F00049835A8349815A819923A1F0222391F07F
:10210000CA010E941310182F682F89819A810E949A
:10211000910C69817A81812F0E94F40F2696E3E069
:102120000C945F28CA010E944B0C182FF2CFB0E02C
:10213000A0E0EDE9F0E10C943E286C017B0164E63F
:1021400070E088E70E943A278C01E601EC0CFD1C48
:1021500017FD0BC0FE01849164E670E00E94A62783
:102160008C012196CE15DF0599F70E941C2881E08D
:102170000115110509F080E0CDB7DEB7E8E00C9459
:102180005A28CF9381E08093A70480E28093A6042D
:102190000E9434276BE070E082E59DE00E9497107A
:1021A000811104C0C0E08C2FCF9108958091A704C5
:1021B00065E070E081FD39C08DE49DE00E949710DC
:1021C000882381F36DE070E08BE39DE00E9497101F
:1021D000C82F882339F30E945B08605A75418F4FDE
:1021E0009F4F6093A2047093A3048093A4049093E0
:1021F000A504EFE9F2E080E092E0DF019C011D928E
:1022000021503040E1F7F0939E02E0939D028FEF62
:102210009FEF90939C0280939B0281E08093A104A6
:102220008093A00410929F04BECF88E49DE0C6CFA7
:102230008091A0049091A104911103C091E089279D
:102240000895882369F062E070E08AE792E00E94D6
:102250009710811103C08091A00408951092A004EA
:102260008091A004EBCFCF93C091A0048091A104F2
:102270008823D1F00E945B08605A75418F4F9F4FB1
:102280006093A2047093A3048093A4049093A50484
:10229000C11108C062E070E088E792E00E949710E8
:1022A000811105C0C091A0048C2FCF91089581E0C9
:1022B0008093A004F7CF2F923F925F926F927F920C
:1022C0008F929F92AF92BF92CF92DF92EF92FF9246
:1022D0000F931F93CF93DF938091A104882309F478
:1022E00057C060E080E00E94AD09809106020E9424
:1022F000010D813009F45EC0882349F0823009F471
:102300006AC0833009F478C08CE796E010C060E0C2
:1023100080E00E94AD0960EA70E08CE792E00E94E4
:102320006D0965E081E00E94AD0985E996E00E94B3
:10233000C40D6BE080E00E94AD098091050260EC65
:1023400070E0882309F469C08CEF94E00E946D0965
:1023500080919B0290919C02892B09F061C0809131
:10236000A0048823A9F00E945B080091A2041091A8
:10237000A3042091A4043091A504601B710B820B6F
:10238000930B6F3F7F4F8F4F9F4710F40E941811A0
:10239000DF91CF911F910F91FF90EF90DF90CF9041
:1023A000BF90AF909F908F907F906F905F903F9085
:1023B0002F90089560E080E00E94AD0960EA70E02F
:1023C0008CE193E00E946D0965E081E00E94AD0917
:1023D00080E996E0ACCF60E080E00E94AD0960EA61
:1023E00070E08CEB93E00E946D0965E081E00E9453
:1023F000AD098BE896E09BCF60E080E00E94AD09DC
:1024000060EA70E08CE594E00E946D0965E081E08F
:102410000E94AD0986E896E08ACF8CEB95E096CFD6
:102420008091A104882309F49ACF80919F0481119F
:1024300096CF0E94331120919B0230919C0221156E
:10244000310509F48CCF80E041E050E0082F10E026
:102450001A01082E02C0220C331C0A94E2F7B101C3
:1024600062237323672B11F48F5FF0CF9091A70441
:1024700090FF95C0880F880F880F80930C011092F1
:102480000F01895F80930D0183E08093100124E6A2
:1024900030E047E050E06AE071E088E70E94D4272E
:1024A000892B09F05CCFA80125E0440F551F2A9520
:1024B000E1F78091A70480FF84C0E7E0F2E080E2CA
:1024C000DF011D928A95E9F7A9E6B1E005E611E082
:1024D0008DE6C82E81E0D82E97E0592E772473948C
:1024E0008D91E80129918E01240F352F311D215640
:1024F0003D4FE82FF0E0E95FFD4F90E080E0652C74
:10250000681A872C082E01C0880C0A94EAF7790112
:10251000A12CE701B9907E01B820662D6A19677079
:10252000962E062E000C770BDB2D01C0DD0F9A9442
:10253000EAF77195619571096770772701C0B694C4
:102540006A95EAF7BD2A6081962E9B289082A39413
:1025500068E0A612DECF019631968830910579F6B3
:10256000CA16DB0609F0BCCF04E610E020E230E03A
:1025700047E052E060E488E70E94F527892B09F0E4
:10258000EECEE101C095D09580919B0290919C0286
:10259000C823D923D0939C02C0939B02E0CE82959E
:1025A000880F807680930C01980136952795369593
:1025B000279520930F01815E80930D0120931001D8
:1025C00066CF41565D4F04E610E020E230E0D2CF06
:1025D00090913B0292FB222720F9281779F080FB8B
:1025E00092F990933B0260913A0270913B0284E031
:1025F00090E00E94EA2882E00E94DB0C08951F927E
:102600000F920FB60F9211242F933F934F935F9326
:102610006F937F938F939F93AF93BF93EF93FF93AA
:102620008091E10082FF09C08091E20082FF05C035
:102630008091E1008B7F8093E1008091DA0080FF40
:1026400024C08091D80080FF20C08091DA008E7F66
:102650008093DA008091D90080FF9DC080E189BD20
:1026600082E189BD09B400FEFDCF81E080934E0276
:1026700080914102811109C00E94ED060E948E07DF
:102680008091E20084608093E2008091E10080FF0D
:1026900017C08091E20080FF13C08091E2008E7F1E
:1026A0008093E2008091E20080618093E20080915B
:1026B000D80080628093D80019BC85E080934E02D8
:1026C0008091E10084FF2BC08091E20084FF27C04D
:1026D00080E189BD82E189BD89B5982F917080FF25
:1026E000FBCF8091D8008F7D8093D8008091E1004E
:1026F0008F7E8093E1008091E2008F7E8093E200E4
:102700008091E20081608093E20080914F028823F3
:1027100009F447C084E080934E0280914E0280917C
:10272000E10083FF27C08091E20083FF23C08091F6
:10273000E100877F8093E10082E080934E02109257
:102740004F028091E1008E7F8093E1008091E20052
:102750008E7F8093E2008091E20080618093E200AE
:1027600042E060E080E00E945C078091F0008860B9
:102770008093F000FF91EF91BF91AF919F918F9166
:102780007F916F915F914F913F912F910F900FBE6D
:102790000F901F90189519BC10924E021092410292
:1027A00074CF8091E30087FD93E090934E02B5CF04
:1027B00078941F921FB61F9211248F939F93AF930B
:1027C000BF9380913D0290913E02A0913F02B09153
:1027D00040020196A11DB11D80933D0290933E02DF
:1027E000A0933F02B0934002BF91AF919F918F9110
:1027F0001F901FBE1F9018959C014FB7F8948091B1
:102800003D0290913E02A0913F02B09140024FBF25
:10281000821B930B08952FB7F89480913D029091FD
:102820003E02A0913F02B09140022FBF08950E9446
:102830000B149C019091300280913102982B21F071
:1028400030932D0220932C0290913202809133021A
:10285000982B21F030932B0220932A02E09136022C
:10286000F0913702309749F082E080932E02068083
:10287000F781E02D8EE292E0099508951092E9012A
:1028800080911101882339F180913A0287FF23C09A
:10289000E8E8F1E08EE1DF011D928A95E9F790E02A
:1028A00080E00E94EB0890E080E00E94C608109251
:1028B000C0010E94D50D86E0EEE2F2E0DF011D923C
:1028C0008A95E9F7109227021092280210922902A5
:1028D0000E9417140895E0E8F1E086E0DCCFAAE258
:1028E000B0E0E5E7F4E10C94432880E592E0209124
:1028F000F100DC012D93CD01B2E088359B07B9F7DB
:1029000080915102833009F472C0B8F4813009F427
:1029100049C0823009F4B3C08091E80083FF8BC2C4
:1029200080915002909151029A3008F084C2E92FB0
:10293000F0E0EE5FF64D0C948B288A3009F48EC0DF
:102940008B3009F471C0893039F78091500281329F
:1029500019F78091540290915502009711F0029757
:10296000D9F68091E800877F8093E8008091E800A5
:1029700082FF38C09091F3008091F200029731F409
:102980008091F100813011F0863021F48091F100C6
:10299000809343028091E8008B778093E8000E9447
:1029A0003D07BACF80915002813A09F0B5CF8091AE
:1029B000E800877F8093E80080915402909155024F
:1029C000892B61F468E084E492E070E00E94E907FA
:1029D0008091E8008B778093E8009ECF60E090E0E4
:1029E00080E0F3CF80914E028111C0CF95CF8091CE
:1029F0005002813A09F090CF809154029091550293
:102A0000892B09F089CF8091E800877F8093E800C7
:102A10008091E80080FFFCCF809111018093F1004C
:102A20008091E8008E77B9CF80915002813209F011
:102A300073CF8091540290915502892B09F06CCF8D
:102A40008091E800877F8093E8000E943D07809195
:102A50005202809311010E943E145ECF8091500279
:102A6000813209F059CF8091E800877F8093E80098
:102A70000E943D0780915302809342024DCF809186
:102A80005002813A09F048CF8091E800877F809317
:102A9000E8008091E80080FFFCCF80914202BECF29
:102AA000803899F0823809F0C6C1809154028F7045
:102AB000873008F0C0C18093E9008091EB0085FB6E
:102AC000882780F91092E90006C080914C0290910D
:102AD0004D02911182609091E800977F9093E800F9
:102AE0008093F1001092F1008091E8008E779FC1F1
:102AF000882309F48DC1823009F09DC18091520272
:102B0000811190C1809154028F702FEF280F2630D1
:102B100008F091C18093E9002091EB0020FF82C171
:102B2000933031F48091EB0080628093EB007AC1A6
:102B30009091EB0090619093EB0021E030E001C0B8
:102B4000220F8A95EAF72093EA001092EA0080911A
:102B5000EB008860EACF81116EC1109152021F779D
:102B60008091E3008078812B8093E3008091E800DE
:102B7000877F8093E8000E943D078091E80080FFF6
:102B8000FCCF8091E30080688093E30082E0111124
:102B900083E080934E024FC18058823008F04BC1D1
:102BA00020915202309153022C3DE3E03E07A1F503
:102BB00083E08A838AE289834FB7F894DE01139613
:102BC00020E03EE051E2E32FF0E050935700E49123
:102BD00020FF03C0E295EF703F5FEF708E2F90E013
:102BE000EA30C0F0C7968D939D932F5F243159F73B
:102BF0004FBF8091E800877F8093E8006AE270E031
:102C0000CE0101960E94E9078091E8008B778093BE
:102C1000E80011C1C096E7CF80915402909155020F
:102C2000432F55274330510509F44AC078F5413008
:102C3000510509F47AC08BE590E0E2E7F7E0423015
:102C4000510509F0F8C02091E800277F2093E800A3
:102C500020915602309157028217930708F49C0185
:102C600040E02115310509F065C0411163C0809134
:102C7000E80082FDC9CF80914E02882329F2853079
:102C800019F28091E80083FFF2CFBECF41325105A7
:102C900009F43CC04232510509F0CDC083309105A2
:102CA00008F0C9C0FC01EE0FFF1FE059FE4F019074
:102CB000F081E02D83599E4FDC018C9190E01AC089
:102CC000332721303105D1F02115310561F0223053
:102CD000310509F0B0C0EFEDF7E0E4918E2F90E000
:102CE000EFEDF7E007C0E7EFF7E0E4918E2F90E01B
:102CF000E7EFF7E0009709F49EC0A5CFEDEEF7E00F
:102D0000E4918E2F90E0EDEEF7E0F4CF8330910563
:102D100008F091C0880F991FFC01EA58FE4F0190FE
:102D2000F081E02D89E090E08ECF82E190E0EDEC43
:102D3000F7E089CF80914E02882309F465CF853072
:102D400009F462CF8091E80083FD5ECF8091E800B6
:102D500082FD8DCF8091E80080FF83CF9091F300BA
:102D60008091F2002115310519F08830910550F05D
:102D700041E0089709F040E08091E8008E77809369
:102D8000E8006FCF44914093F10031962150310912
:102D90000196E8CF803809F04EC08091E800877F27
:102DA0008093E80080914F028093F1009DCE8111C5
:102DB00042C0109152021230F0F58091E800877FF6
:102DC0008093E80010934F020E943D07112311F0F9
:102DD00084E005C08091E30087FDFACF81E0809315
:102DE0004E0242E061EC81E00E945C0742E261EC4D
:102DF00084E00E945C0742E261EC82E00E945C0792
:102E000042E260EC83E00E945C0780914E0213C0B6
:102E100080915202813079F481E0933009F080E0B2
:102E200080934D021092E9008091E800877F8093A3
:102E3000E8000E943D078091E80083FF0AC080916E
:102E4000E800877F8093E8008091EB0080628093A8
:102E5000EB00AA96E3E00C945F281F920F920FB646
:102E60000F9211242F933F934F935F936F937F9310
:102E70008F939F93AF93BF93CF93DF93EF93FF9382
:102E8000D091E900DF708091EC00C82FC17080FD07
:102E9000C0E81092E9008091F000877F8093F000F5
:102EA00078940E946F141092E9008091F00088607D
:102EB0008093F000CD2BCF70C093E900FF91EF918C
:102EC000DF91CF91BF91AF919F918F917F916F9142
:102ED0005F914F913F912F910F900FBE0F901F90D8
:102EE00018950E943E142FEF84E39CE0215080400F
:102EF0009040E1F700C0000088E19AE00FB6F89436
:102F0000A895809360000FBE90936000FFCF409122
:102F100030029091320220913302662309F469C095
:102F2000942B922B20913102922B31F098E09093C8
:102F3000270291E0909328028D3C41F40E943F09C2
:102F40008195809331020E94171408958E3C19F4E4
:102F50000E943F09F6CF8F3C31F40E943F098195D2
:102F600080933002F0CF803D19F40E943F09F8CFE2
:102F7000893D29F40E941D0980933202E4CF8A3DE5
:102F800021F40E941D098195F7CF8B3D31F40E94F9
:102F90001D09819580933302D6CF8C3D19F40E9490
:102FA0001D09F8CF9FE2980F983070F4815D990B5E
:102FB00021E030E001C0220F8A95EAF780912F02CC
:102FC000822B80932F02BFCF8D3D31F48091290257
:102FD000816080932902B7CF8E3D21F48091290230
:102FE0008260F7CF8F3D09F0AECF809129028460D7
:102FF000F0CF8D3C59F48091310287FF0DC01092C3
:10300000310241110BC01092270208C08E3C81F49E
:103010008091310218169CF3442381F08091320292
:1030200090913302892B09F08ECF109228028BCF1A
:103030008F3C49F447FFF0CF10923002809131026B
:103040008111ECCFE0CF803D19F41416ACF3E4CF3E
:10305000893D29F4191604F710923202DDCF8A3D1A
:1030600019F497FFD9CFF8CF8B3D29F427FFD4CFA0
:1030700010923302D1CF8C3D19F41216CCF3CCCF81
:103080009FE2980F983090F4815D990B21E030E039
:10309000B90102C0660F771F8A95E2F7CB018095D0
:1030A00090912F02892380932F02B6CF8D3D31F46A
:1030B000809129028E7F80932902AECF8E3D21F42C
:1030C000809129028D7FF7CF8F3D09F0A5CF8091A8
:1030D00029028B7FF0CF882381F19CEF980F913AE2
:1030E00028F40E9467080E94D50D089590E2980F79
:1030F000983050F4877091E001C0990F8A95EAF7F3
:10310000892F0E94EC0BEFCF9BE5980F933028F4AA
:1031100090E080E00E94EB08089598E5980F9B31BD
:1031200028F490E080E00E94C608089593E3980F89
:10313000933118F460E00E9487170895CF93C82F49
:103140008823B1F18CEF8C0F813AA0F580911101A9
:10315000882301F180913A0287FF1CC0EC2FE6958D
:10316000E695E695F0E0EA57FE4F828190E04C2F1D
:10317000477021E030E002C0220F331F4A95E2F78A
:1031800082239323892B79F08C2F0E9467080E9459
:10319000D50D09C0E0E8F1E08191C817A9F381E0FD
:1031A000E638F807C9F78C2F0E9492080E94D50DC7
:1031B000CF91089580E28C0F883068F4C77021E0C9
:1031C00030E001C0220FCA95EAF78091E901822B15
:1031D0008093E901EBCFEBE5EC0FE33040F4F0E056
:1031E000EE5EFE4F808190E00E94EB08E1CFE8E5C3
:1031F000EC0FEB3150F4F0E0EE0FFF1FEB5EFE4FF3
:10320000808191810E94C608D3CF83E38C0F8331E4
:1032100078F661E08C2F0E948717CACF1F93CF9357
:10322000DF93182FD0E0C0E0893311F4C0E5D0E07F
:10323000812F0E949E18209739F4812F0E946B18CD
:10324000DF91CF911F9108958FE99FE00197F1F7EA
:1032500000C000002197EFCF0F931F93CF93DF9310
:10326000C62FD42F022FFC0185818823A9F06093FB
:1032700094020E940B149093930280939202C77061
:1032800081E001C0880FCA95EAF70E942E0EDF91F7
:10329000CF911F910F91089580919402681332C0CD
:1032A00080919202909193020E94FC13883C9105B8
:1032B00048F510E21D0FCD17B9F080E28C0F883071
:1032C00040F4C77081E001C0880FCA95EAF70E94F8
:1032D000270E183048F481E09D2F977001C0880FA9
:1032E0009A95EAF70E942E0E802F0E940E19183030
:1032F00070F6D77081E001C0880FDA95EAF70E9476
:10330000270EC5CFC77081E001C0880FCA95EAF7C4
:10331000F6CFA8E0B0E0EFE8F9E10C9436288C0194
:10332000DC0114968C911497882309F4B7C021E02E
:103330004C9111965C91119712966C91129713967D
:103340007C91139715969C910E9472107C01F80154
:103350008581882309F4FCC4C701975780389105FB
:1033600008F035C1FFE0FE1508F488C08FEF93E048
:103370000E94AE28811182C0AA24A394BA2CE11025
:1033800047C0FE01339686E0DF011D928A95E9F77A
:103390005AE0452E7501BFEFEB1AFB0AC5010E94EA
:1033A000AE2889831A82882309F468C0813009F025
:1033B00079C06501E2E0CE0ED11CC7010E94AE28A3
:1033C0008A83882309F45AC09FEF980F933070F5D1
:1033D000F3E0AF0EB11CC6010E94AE288B83882398
:1033E00009F44CC01C82DE0111967D01F701208199
:1033F000222381F2213009F095C0918182819130A0
:1034000009F052C0F2E0EF0EF11C0E940E1953C0F9
:10341000A11424E0B20691F1C5010E94AE288111E9
:1034200001C0EA943FEFA31AB30AA9CF5601843032
:10343000D1F642E0E42EF12C56012FEFA21AB20A87
:10344000C6010E94AE28E1E0F0E0EC0FFD1FEE0D9A
:10345000FF1D8083882391F08C3741F4E2E0F0E097
:10346000EC0FFD1FEE0DFF1D1082BDCF3FEFE31AE5
:10347000F30A650187E0E816F104F1F68091BE01D8
:10348000877061F0D80115968C91882339F080916E
:103490003B0282FF03C082E00E94DB0C2896E0E141
:1034A0000C94522857019FCF923049F422E0E20E4B
:1034B000F11C0E949E18EFEFEE1AFE0A97CF933090
:1034C00031F432E0E30EF11C0E946B18F4CF94301B
:1034D00021F08FEFE81AF80AEECF92E0E90EF11C26
:1034E00030E020E0B7016F5F7F4FD70111964C911C
:1034F0008053990B8A30910550F021503109D8F250
:10350000EFE9FFE03197F1F700C00000F6CF429EEF
:10351000F001439EF00D11249C012E0F3F1F842FBC
:103520007B01E0CFE22FF0E0E850FE4F5490822F75
:1035300086958695869590E0FC01E851FE4F649053
:103540002770712C022E02C0759467940A94E2F7DA
:1035500031E063227724FC01E852FE4F8490912CE5
:10356000022E02C0959487940A94E2F7A1E08A2281
:103570009924FC01E853FE4FC490D12C02C0D5948D
:10358000C7942A95E2F7B1E0CB22DD2461147104DF
:1035900019F081EE0E949E188114910419F086EEB4
:1035A0000E949E18852D0E940E198114910419F015
:1035B00086EE0E946B186114710419F081EE0E946E
:1035C0006B18C114D10409F476CF8CE21ECF809120
:1035D000050291E0892780930502F701E851FC4735
:1035E000E730F10510F5E45FF64D0C948B2826E2E8
:1035F00041EE61EEC8010E942C1940CF27E245EE52
:1036000065EEF8CF26E241EE60EEF4CF27E245EE1C
:1036100064EEF0CF26E241EE62EEECCF27E245EE1B
:1036200066EEE8CF28E241E0EBCF10929402C701AA
:103630009057839708F0A0C384E090E00E94B628DA
:1036400090933B0280933A02F701E150F047E23257
:10365000F10520F4ED5EF64D0C948B2880913A0232
:10366000816080933A0295C080913B02886080938C
:103670003B028FC080913A028260F3CF80913A0280
:103680008460EFCF80913A028860EBCF80913B025B
:103690008160EDCF80913B028260E9CF80913A0258
:1036A0008061DFCF80913A028062DBCF80913A0265
:1036B0008064D7CF0E943E1480913A028068D1CFB7
:1036C00080913A028C60CDCF80913B028360CFCF56
:1036D00080913A028E7FC5CF80913B02877FC7CF12
:1036E00080913A028D7FBDCF80913A028B7FB9CF16
:1036F00080913A02877FB5CF80913B028E7FB7CF12
:1037000080913B028D7FB3CF80913A028F7EA9CF0B
:1037100080913A028F7DA5CF80913A028F7BA1CF15
:103720000E943E1480913A028F779BCF80913A029B
:10373000837F97CF80913B028C7F99CF80913A0213
:1037400082FB992790F921E0922790FB82F990FB68
:1037500083F987CF80913B02982F909591708E7F4F
:10376000892B90FB81F983CF90913A02892F8F7B2F
:1037700096FF806476CF0E943E1490913A02892F82
:1037800097FB87F980586DCF61E08EE090E00E9452
:10379000CC2860913A0270913B0284E090E00E9454
:1037A000EA280E943E146ACE60E0EFCF90913A0280
:1037B000892F8F7E94FF806154CF90913A02892F98
:1037C0008E7F90FF81604DCF90913B02892F877F44
:1037D00093FF88604CCF85E3E0C285E3CAC227E748
:1037E000E2162CE7F20609F46DC038E7E3163CE771
:1037F000F30609F474C083E0E8168CE7F80609F4D0
:103800008FC008F06EC0E114ACE7FA0609F47BC083
:10381000B1E0EB16BCE7FB0609F488C0F80185812E
:10382000E080F180882309F48FC0C7010E94131043
:10383000D82E682FC7010E94910CB7018D2D0E94D0
:10384000F40F0E94CE0A7C01882ED8011596AC9008
:10385000159716969C9092943FE093228091BE011A
:10386000877009F1DA2CAA20F9F08F2D807F80343F
:1038700069F080E28E0D8830B0F08F2D807E80322E
:1038800029F4B1E0BE1578F4992069F080913B02EB
:1038900082FF09C082E00E94DB0C8091BE0187702C
:1038A000DD24D3948111D12CCF2CC2942FE0C222DD
:1038B000EBE0EC1508F4B0C0EC2DF0E0EB5CF64D5D
:1038C0000C948B2881E00E94F20C43E062E081E0DE
:1038D0000E94AE0CD3CD81E00E94CE0CF6CF82E0E8
:1038E000F2CFEBE5EE16ECE7FE0661F1FCE5EF1634
:1038F000FCE7FF06E9F02AE5E2162CE7F20609F0FC
:103900008DCF81E01CC00E943E143FEF84E39CE019
:10391000315080409040E1F700C000000E944A080A
:103920006FEF7FEF90E080E00E94EA280E9471171D
:1039300080913B0282FB882780F991E089270E94D1
:10394000E8126CCF80E0FBCFC7010E944B0CD82E51
:1039500074CFFF2DFF70BF2E8F2D807F19F0B29492
:1039600090EFB922AA20B9F0BB2069F080E28E0D59
:10397000883010F0811009C08091E901B82AB09216
:10398000E9010E94D50D8E2D45C08091C001B82A55
:10399000B092C001F6CF8E2D0E946B18BB20E1F1D2
:1039A00080E28E0D883010F0811004C08B2D0E94B3
:1039B000EC0B06C0B0948091C001B822B092C00157
:1039C0000E94D50D29C02F2D2F70B22E8F2D807FF4
:1039D000803219F0B29480EFB822882059F031E09B
:1039E000831609F482C0AA2009F48EC0992009F434
:1039F0004FC0C9CF80913B0282FD46C0AA20F1F1A1
:103A0000BB2039F08091E9018B298093E9010E9464
:103A1000D50D80E00E949E18AC2DA850BB0B1497CA
:103A200010F40E941009DD20A9F08091BE0180FDF4
:103A300011C0F80115828695869586950E94F20C34
:103A4000C8010E9489198091BE0186958695869548
:103A50000E94CE0C20E0D8014C9111965C911197F8
:103A600012966C91129713967C91139714968C91E1
:103A7000149715969C910E94721010CD80E00E94C0
:103A80006B18BB2049F292CFAA20A1F0911004C07C
:103A90008B2D0E942E0EC0CF81E09812BDCF809159
:103AA000BF019B2D9823B91609F4B6CF8B298093BB
:103AB000BF01B2CF9110B0CF8B2D0E94270E9091F5
:103AC000BF018B2D892329F08B2D8095892380932D
:103AD000BF019091A7018B2D892309F49DCF8B2DD8
:103AE000809589238093A70197CFAA2029F095E09C
:103AF000991508F491CFCCCFA4E0A91508F48CCF88
:103B00008B2D0E94270E88CF9920D1F3B9E38B1219
:103B100018C1EFEFF7EE23E0E150F0402040E1F76D
:103B200000C000000EC18F2D86958695837061F0D0
:103B3000813009F071CFC7019370A11002C080E0FD
:103B400090E00E94C60868CFC7019370A11002C020
:103B500080E090E00E94EB085FCF6A2D8E2D0E94DE
:103B600087175ACF8F2D837091F5A11055CF4E2D09
:103B7000429546954770440F440F8E2D8F70042E4A
:103B800001C0880F0A94EAF72E2D2071E4FE07C0C9
:103B90002FE030E001C0220F4A95EAF720953F2D33
:103BA000369536953370323069F050F44091F40117
:103BB000313029F0822B84230E94FE0C2DCF842BE0
:103BC000822BFACF282B8091F4018227F5CF86959E
:103BD000AA2011F08F2D8170882309F41DCF4E2D5E
:103BE000429546954770440F440F8E2D8F70042EDA
:103BF00001C0880F0A94EAF72E2D2071E4FE07C059
:103C00002FE030E001C0220F4A95EAF720953F2DC2
:103C1000369536953370323069F050F44091060293
:103C2000313029F0822B84230E94AB0CF5CE842BFB
:103C3000822BFACF282B809106028227F5CF3F2DC9
:103C40003F70F32EAA2029F0832F0E94F20C8E2DB4
:103C500020CF8E2D0E94270E8F2D0E94CE0CDCCE01
:103C60008E2D92EF8916B1F1981570F0A0EF8A169B
:103C7000D1F0B1EF8B1691F0AA2009F45DC091103C
:103C800082CE8F2D8F712AC0E3EF8E1651F1F4EFA3
:103C90008F12F2CF80913B0282FD2FC08F2D8F714A
:103CA000AA20D9F21BC0AA2081F024E0291508F42B
:103CB000B3CE2F2D2F7181E090E001C0880F2A959F
:103CC000EAF7909106028927AFCF35E0391508F45D
:103CD000A3CEEFCF8F2D8F71A110BFCF0E94F20C1A
:103CE0009BCE80E0AA2009F49FCF9F2D9F7181E099
:103CF00001C0880F9A95EAF797CFAA2091F08F2DEF
:103D00008F71F82E0E94F20C80913B0282FF07C057
:103D1000A8E0FA9EC001112483608093BE018F2D1C
:103D2000DDCF81E00E94DB0CB1E0B91508F074CE64
:103D300082E00E94DB0C70CE992039F0893309F4BF
:103D4000E8CE8E2D0E946B1867CE8F2D8F7185CF98
:103D5000F701E851FC47E730F10508F444CCF6E1FF
:103D6000EF16FCE7FF06F1F48091A601811135CD35
:103D700089E20E94670813C0B6E1EB16BCE7FB06B8
:103D800009F02DCD8091E9018A7A91E009F490E063
:103D90009093A60181111FCD89E20E9492080E9492
:103DA000D50D6CCBE7E7EE16ECE7FE0609F493CDF4
:103DB00082E0F8E7EF16FCE7FF0609F48DCD2ECD83
:103DC000CF93DF938091BD01807F09F04DC080913A
:103DD000BC01882309F448C0E09191025091580237
:103DE000C091B801D091B7016091B9017091BA0149
:103DF00047E05E17C9F18E2F90E0E49FF001112497
:103E0000E75AFD4F2481222391F1489FF001499FF9
:103E1000F00D1124DF01A75ABD4F11962C91119777
:103E20002C1325C02C912D1322C015962C9115977B
:103E300021111DC012962D913C91261B370B283C59
:103E40003105A8F48091BD018F7080618093BD0120
:103E5000E15AFD4F80818F708061808387EB91E014
:103E60000E9489190E941A0CDF91CF910895FC01DC
:103E70003196E770BECFA4E1B0E0E1E4FFE10C943D
:103E80003A288C0186E0F801DE011F9601900D9220
:103E90008A95E1F7F8018481E58097EBA92E91E0FE
:103EA000B92E9091BB01911128C0882319F1EE2001
:103EB000F1F0C8010E944F10F82E8823C1F087E06E
:103EC000F801D50101900D928A95E1F78091BB012F
:103ED000813031F48091B7019091B8010E94421075
:103EE0000E94E01E8F2D6496ECE00C945628C801C9
:103EF0000E948919FF24F394F5CFD080C18082807D
:103F00009380F090BC012091B9013091BA01A401D5
:103F1000421B530BFF2009F4D9C0483C510508F05F
:103F200092C08823F9F29091B8018091BD01282FA9
:103F3000207F09F056C0C91214C09091B701D91260
:103F400010C0E11048C08F7080618093BD0187EB85
:103F500091E00E9489198091BD01F8018683F12CBE
:103F6000C1CFE11038C06C2D8D2D0E94CE066C2D76
:103F70008D2D0E94CE06E82E8111F1CFDF86C88AF2
:103F80008F8598890E944210292F22952F70243006
:103F900058F49F70223088F0992399F0F8019681A7
:103FA000907F79F4FE2C9ECF2A5F2F70223068F02C
:103FB000C8010E948919EF2CF5CF992311F08823AD
:103FC00089F3805E883070F3F3CF803F58F3815FD0
:103FD000833070F7E7CF8091BD0181608093BD0190
:103FE000BECFC91207C09091B701D91203C0EE200D
:103FF00009F48DC0C8010E944F10882309F477CFBF
:10400000EE2009F474CF8091BD01803288F02091B8
:10401000B7013091B801398728879B868A869091AD
:10402000BB019C871D868E87CE0108960E94891948
:1040300087E0F801A7EBB1E001900D928A95E1F7D6
:104040000E94E01E57CF9091BD01292F207F51F48F
:1040500087EB91E00E94891987E0F50111928A951A
:10406000E9F77DCF882309F43DCF8091B8018C1109
:1040700010C08091B701D8120CC0E1100AC096831D
:10408000C8010E94891987E0F50111928A95E9F724
:1040900029CFC8010E944F10882309F428CFEE20B1
:1040A00009F425CF8091BD01803210F22091B70133
:1040B0003091B8013A8329839C828B829091BB0115
:1040C0009D831E828F83CE010196B0CF483C51055F
:1040D000D0F6882309F40ECFFE2CEE2009F407CF8A
:1040E0008091B8018C1120C08091B701D8121CC0FA
:1040F0008091BD0180FD0FC0982F907F61F0868375
:10410000903F31F0982F907F905F8F70892B86833E
:10411000C8010E94891987E0F801A7EBB1E001907E
:104120000D928A95E1F7DECEC8010E944F108111F1
:104130007FCF8091BD0181608093BD01C8010E9445
:104140008919D0CEABE1B0E0E8EAF0E20C94422865
:104150004E8B5F8B688F798F8A8F9B8F192F911170
:104160001092C0011D8A86E0FE017696DE011F9640
:1041700001900D928A95E1F70A8D002341F021E02C
:104180004F85588969897A89C8010E9472100B8B02
:104190001C8B87E0FE013F96DE01189601900D9280
:1041A0008A95E1F7CE0108960E943B1F81110CC051
:1041B00087E0FE013896DE01119601900D928A95F6
:1041C000E1F78C8581110BC017E0809191029091ED
:1041D0005802891331C06B96E4E00C945E2820915C
:1041E000580230E0C90101968770992740919102E9
:1041F0004817190699F097E0929FD001939FB00D50
:104200001124A75ABD4FFE01319601900D929A9547
:10421000E1F7809358020E941A0CD6CF0E943E14F8
:10422000109258021092910287E0E7EBF1E0DF0173
:104230001D928A95E9F7C8CF819FC0011124875A42
:104240009D4F0E943B1F882331F28091910290E0A4
:1042500001968770992780939102B7CFA5E0B0E0CF
:10426000E4E3F1E20C943B288E010F5F1F4F85E0E1
:10427000F80111928A95E9F78BE4C82E81E0D82ED7
:10428000F12CE12CAA24A394B12CF60181916F01A9
:104290008F3F09F443C0F894E82FE295EF70F0E007
:1042A00021A18F70A50102C0440F551F8A95E2F726
:1042B000CA01922F982B91A392A18095892382A362
:1042C000789400C0E0E5F1E0912C31E021912F3F9E
:1042D00009F44CC0A22FA295AF70B0E090968C91DB
:1042E00090E02F7002C0959587952A95E2F780FDA2
:1042F0003DC0832F982A330F51E0E535F50731F79C
:10430000F601319780818F3F11F00E94C60980EA43
:104310008A95F1F7F801EE0DFF1D9082EFEFEE1A8E
:10432000FE0AF5E0EF16F10409F0AFCF45E050E0EA
:10433000B8018FEE91E00E94A128892BD9F085E089
:10434000F801AFEEB1E001900D928A95E1F781E0BE
:104350008093EE010E940B149093ED018093EC0189
:1043600010E0812F2596EBE00C94572880E0C2CF17
:1043700010E01FC01091EE01112391F38091EC0128
:104380009091ED010E94FC13059750F345E050E039
:104390006FEE71E080E092E00E94A128892B41F34A
:1043A00085E0EFEEF1E0A0E0B2E001900D928A9599
:1043B000E1F71092EE01D5CFA6E0B0E0E2EEF1E237
:1043C0000C9442280E940B148C018091EA01909178
:1043D000EB018017910781F019821A820E940B1459
:1043E000682F49815A81792F80E090E00E94A220B5
:1043F0001093EB010093EA012696E4E00C945E280A
:104400001F921FB61F9211248F939F93AF93BF9358
:1044100080913C02811113C080913D0290913E0237
:10442000A0913F02B09140024196A11DB11D809321
:104430003D0290933E02A0933F02B0934002BF9191
:10444000AF919F918F911F901FBE1F901895CDB770
:10445000DEB7EF970FB6F894DEBF0FBECDBF85B7BE
:10446000806885BF85B7806885BF84B7877F84BF34
:104470000FB6F894A89580916000886180936000E1
:10448000109260000FBE80E890E00FB6F894809321
:104490006100909361000FBE84EC99E090937D01E0
:1044A00080937C010E94ED060E948E078091E200BD
:1044B00084608093E200789480914E028823A1F07A
:1044C0001091E9001F709091EC00892F817090FD90
:1044D00080E8182B1092E9008091E80083FD0E948B
:1044E0006F141F701093E90082E084BD93E095BDC6
:1044F0009AEF97BD80936E000E94790F811102C0E0
:104500000E94690F81E08093FD0185988D9A8498BF
:104510008C9A8FE891E00197F1F700C0000020919C
:10452000FD014EEF51E0FA018E2F841B821708F433
:10453000C2C00BE411E0D8018D918D018F3F11F0C5
:104540000E94C609B1E000351B07A9F700E511E09C
:10455000F80181918F018F3F11F00E94C609F1E0AF
:1045600005351F07A9F785E0E0E0F2E0DF01282F1D
:104570001D922A95E9F7EFEEF1E0DF011D928A9591
:10458000E9F790E080E00E94B628863E9E4F21F435
:104590000E94790F811168C066EE7EEF90E080E0A6
:1045A0000E94EA2860E082E090E00E94CC2881E04E
:1045B0008093F40161E083E090E00E94CC2860E009
:1045C00074E184E090E00E94EA2860E086E090E0F8
:1045D0000E94CC286FEF87E090E00E94CC2840E05A
:1045E00050E0BA0188E090E00E94DE2860E084E2BA
:1045F00090E00E94CC2860E087E190E00E94CC2807
:1046000060E08CE090E00E94CC2860E08DE090E0DB
:104610000E94CC2819821A821B821C821D821E8253
:104620001F82188648E050E068E170E0CE010196F4
:104630000E94BC2840E050E0BA0180E290E00E9475
:10464000DE2880E00E949C0E0E94690F40E050E04E
:10465000BA018FE090E00E94DE2840E050E0BA010D
:1046600083E190E00E94DE2882E090E00E94AE2884
:104670008093F50184E090E00E94B62890933B027D
:1046800080933A020E942E21EFEFF6E721E0E150FD
:10469000F0402040E1F700C000000E942E218091F0
:1046A000000280FF14C06FEF7FEF90E080E00E9477
:1046B000EA280E944A088FB185FB882780F97C99F7
:1046C00004C090E0892B81932FCF92E0FBCF83E051
:1046D00090E00E94AE280E94FE0C0E94C1108FEF55
:1046E00097EAA1E681509040A040E1F700C00000A9
:1046F0000E94C11080E091E09093370280933602CF
:1047000078E1A72EB12C80E092E0B5E0B80FBFAF02
:10471000E4E08E2E912C80914E0260E4F62E00E1B2
:1047200012E1853009F480C00E942E2146EFE42E6C
:1047300041E0F42E50E0C52E52E0D52ED601F7010F
:1047400091918D9121E0EB3FF20709F477C0981722
:10475000B9F310E044244394D6010D916D01F701A3
:1047600051907F01501619F15026712C66246394E4
:10477000852D8621A1F079AE1AAF0E940B149CAF53
:104780008BAF4DAE91E0802F862109F490E09EAF73
:1047900049AD5AAD6BAD7CAD8DAD0E94A220739436
:1047A000660CF5E07F12E4CFF701319700831F5FBD
:1047B000153091F60E945B087724739444C0809171
:1047C0004E02843019F10E94181110923C020FB66B
:1047D000F894A895A09260000FBEF092600083B795
:1047E000817F846083BF83B7816083BF789488951D
:1047F00083B78E7F83BF0FB6F894A8958091600031
:10480000886180936000109260000FBE80914D021D
:10481000882351F00E942E21E0E0F2E08191811185
:10482000F5C22FAD2E13FACF80914E02853009F4D8
:10483000C6CF0E943E140E94100976CF981389CFEC
:104840000E94DC21712C10E000E082E0682E9DEFD8
:10485000592E442443942CEF322E33E0232E8091A2
:10486000FD01181750F0002309F48FC00E945B0867
:104870000E945B110E9433118CC0E12EF12CEFB12C
:10488000E5FBEE27E0F97C997EC080E08E2BD70116
:10489000A250BE4FEC919E2F9370891709F471C0FE
:1048A000EE0FEE0FE82BEC93EF70F0E0EB5AFE4FBB
:1048B000C70184509E4F6C018081D6019C91890F65
:1048C0008C9320E084303CF1F701E550FE4F80816D
:1048D0008F5F80830E940B141DA73EA6682F8FA7B1
:1048E00098AB29AA4AAA412F5CEF792F83E091E087
:1048F0000E94A2200E940B141BAB3CAA682F8DAB18
:104900009EAB2FAA18AE412F5CEF792F83E090E089
:104910000E94A22021E0F60180818D3F3CF5F70145
:10492000E550FE4F8081815080830E940B1419A3B3
:104930005AA2682F8BA39CA36DA24EA2412F5DEFBC
:10494000792F82E091E00E94A2200E940B141FA305
:1049500058A6682F89A79AA76BA61CA6412F5DEFC2
:10496000792F82E090E00E94A22021E0D6018C9174
:10497000082E000C990BB4010E947728F601808361
:10498000022B1F5F6CCF82E081CF0E945B11711000
:1049900071CF86E0EEE2F2E0DE01119601900D9219
:1049A0008A95E1F7D0902F02F090300210913102F9
:1049B000E0903202009133021092300210923102E4
:1049C0001092320210923302812F8F2909F445C0D0
:1049D00080912C0290912D020E94FC139C019091D9
:1049E0002702992309F43BC225313105B0F19F3FDD
:1049F00019F09F5F90932702FF2059F00E943F0912
:104A00009FEF1F140CF491E0899F802D1124809357
:104A10003002112359F00E943F0991E011160CF069
:104A20009FEF899F802D1124809331028091300265
:104A3000882399F0C0903102CC2079F00E945F0960
:104A4000882309F4AAC0809330028C2D0E945F094C
:104A5000882309F4A4C0809331028E2D802B09F4A1
:104A600045C080912A0290912B020E94FC139C0168
:104A700090912802992309F4EDC121353105B0F157
:104A80009F3F19F09F5F90932802EE2059F00E94FB
:104A90001D099FEF1E140CF491E0899F802D1124B5
:104AA00080933202002359F00E941D0991E01016F4
:104AB0000CF09FEF899F802D112480933302809109
:104AC0003202882399F0E0903302EE2079F00E94C0
:104AD0005F09882309F465C0809332028E2D0E94FD
:104AE0005F09882309F45FC08093330280912F020D
:104AF0008D1117C080913002882311F08F1111C0E1
:104B000020913102222311F012130BC09091330235
:104B1000992311F0091305C030913202332309F4AF
:104B20008BC10E94171486E0FE013196AEE2B2E01E
:104B300001900D928A95E1F70E9410099091FF0172
:104B4000891721F08093FF010E945B0880914E023B
:104B5000843009F0E0CD83E08093E9008091E800A3
:104B600082FFD9CD8091E80090E085FF05C00E94CA
:104B70000C078823D1F091E08091E8008B77809337
:104B8000E800992309F4C7CDE981E150E531A0F5AA
:104B9000F0E0EF5BF64D0C948B2881E054CF81E080
:104BA0005ACF81E099CF81E09FCF00E210E0CE01A3
:104BB00001967C018091E80085FD0AC08091E800A3
:104BC0008B778093E8000E940C07882399F3D3CF5A
:104BD0008091F100D7018D937D010150110951F7AA
:104BE000CACF1A828CE08B831BC08A81823009F481
:104BF00028C128F4813061F08FEF898311C08330A0
:104C0000C1F08430C9F71B821C821D821E8208C03D
:104C10000E945B080E9491286B837C838D839E8316
:104C200040E250E0BE016F5F7F4F82E00E94380E8D
:104C300072CD2B81822F90E0FE013496245E853068
:104C4000910570F7DC01A050BE4F3C913193019665
:104C50002813F5CFE5CF8A81823019F0853001F332
:104C6000CBCF6B817C818D819E810E94912888E2CF
:104C700090E00E94CC28D4CF4C816B818A810E9425
:104C8000C50F9827892798279E838D83C9CF2D81AB
:104C90003E813227232732274C816B818A810E94F3
:104CA000F00EBECF0E94160FBBCF80E18A83B8CF33
:104CB00082E08A838FEF97CF0A811B81102701271B
:104CC0001027FE0131966F01EC80CF018E0D911DF2
:104CD0007C01C8018F5F9E4FCE14DF0409F4A0CF82
:104CE0000F3FA2E01A0750F40E94AE28F601848319
:104CF0000F5F1F4FBFEFCB1ADB0AEBCFD601149625
:104D00001C92F6CF0A811B81102701271027FE0174
:104D100031966F01EC80E00EF12EF11CC8018F5F1F
:104D20009E4FE016F10609F47BCF0F3FF2E01F071C
:104D300028F4D60114966C910E94CC28BFEFCB1AB0
:104D4000DB0A0F5F1F4FEACF0E94B50E69CF84E0E8
:104D5000ADCF0A811B81102701271027FE01319654
:104D60006F01EC80CF018E0D911D7C01C8018996E9
:104D7000EC14FD0409F454CF083C110558F40E94CA
:104D8000AE28D60114968C930F5F1F4FFFEFCF1AFA
:104D9000DF0AECCFF6011482F7CF0A811B811027BE
:104DA00001271027CE0101966C01EC80E00EF12E58
:104DB000F11CC8018996E016F10609F431CF083CD0
:104DC000110528F4D60114966C910E94CC28BFEFEF
:104DD000CB1ADB0A0F5F1F4FECCF41E08C818111B2
:104DE00001C040E06B818A810E94920F4ACF2D81E1
:104DF0003E8132272327322741E08C81811101C077
:104E000040E06B818A810E94C50E0ACF09BD19BDA1
:104E100009B400FEFDCF8091D8008F7D8093D8002B
:104E20008091E00082608093E0008091E00081FD4D
:104E3000FCCF0E943E14F8CC822B892B09F473CE50
:104E400070CE88E290E00E94AE281B821C821D82F8
:104E50008E83E6CE2B30310508F014CE47CE2B30B2
:104E6000310508F0C6CDF9CD1092B9008CE08093E1
:104E7000B8000895B0E0A0E0E0E4F7E20C943B282D
:104E8000B82EEB010E940B146C01EE24E394F12C7C
:104E9000C431D10560F025E0E22EF12CCF3FDC07D4
:104EA00031F0CE0164E170E00E9420287B0184EAA9
:104EB000A82E94E8992E1092BC00A092BC000E94EB
:104EC0000B148C018091BC0087FF0DC08091B9004C
:104ED000887F8830F9F08091B900887F8031D1F0E7
:104EE0000FEF1FEF08C0C8010E94FC13E816F90677
:104EF00048F70EEF1FEFCF3FDC07E9F2C6010E9433
:104F0000FC13C817D907B8F6C801CDB7DEB7EBE078
:104F10000C945728B092BB009092BC000E940B14D6
:104F20008C018091BC0087FF0AC08091B900887F06
:104F3000883111F08034A1F610E000E0E5CFC8011F
:104F40000E94FC13E816F90660F7D3CF0F931F9366
:104F5000CF93DF93EB018093BB0084E88093BC0088
:104F60000E940B148C018091BC0087FF11C020911E
:104F7000B900287F81E090E0283211F490E080E0D1
:104F8000919581959109DF91CF911F910F9108958E
:104F9000CF3FDC0741F3C8010E94FC13C817D907B3
:104FA00010F78EEF9FEFEFCFB0E0A0E0EAEDF7E271
:104FB0000C943E286B018A017901B9010E943A27BD
:104FC000E6010C0D1D1DC017D10711F097FF08C099
:104FD00024E92093BC00CDB7DEB7E8E00C945A2852
:104FE000B70189910E94A627EECFB0E0A0E0EBEFD9
:104FF000F7E20C943E28C62F6A017901B8010E949D
:105000003A2797FD0CC0B8018C2F0E94A627E60115
:10501000EC0CFD1CCE15DF0511F097FF08C024E94C
:105020002093BC00CDB7DEB7E8E00C945A28B80155
:1050300089910E94A627EECF84E98093BC00089551
:10504000AA1BBB1B51E107C0AA1FBB1FA617B707AE
:1050500010F0A61BB70B881F991F5A95A9F78095CA
:105060009095BC01CD0108952F923F924F925F928F
:105070006F927F928F929F92AF92BF92CF92DF9268
:10508000EF92FF920F931F93CF93DF93CDB7DEB7CD
:10509000CA1BDB0B0FB6F894DEBF0FBECDBF099461
:1050A0002A88398848885F846E847D848C849B84B8
:1050B000AA84B984C884DF80EE80FD800C811B81C6
:1050C000AA81B981CE0FD11D0FB6F894DEBF0FBEF5
:1050D000CDBFED010895991B79E004C0991F961783
:1050E00008F0961B881F7A95C9F78095089597FB5D
:1050F000072E16F4009407D077FD09D00E942028CF
:1051000007FC05D03EF4909581959F4F08957095CA
:1051100061957F4F0895EE0FFF1F0590F491E02DEC
:10512000099469279627692778278727782708957C
:10513000FB01DC0102C005900D9241505040D8F7B0
:105140000895FB01DC0104C08D910190801921F4C8
:1051500041505040C8F7881B990B0895F999FECF2C
:1051600092BD81BDF89A992780B50895A8E1B0E075
:1051700042E050E00C94F228DC01A40FB51F41502E
:10518000504048F0CB01840F951F2E910E94CD28EE
:1051900041505040D0F70895262FF999FECF92BD87
:1051A00081BDF89A019700B4021639F01FBA20BDEC
:1051B0000FB6F894FA9AF99A0FBE08950396272F1E
:1051C0000E94CD280E94CC28252F0E94CD28242F74
:1051D0000C94CD280196272F0E94CD280C94CC2822
:1051E000DC01CB01FC01F999FECF06C0F2BDE1BDA7
:1051F000F89A319600B40D9241505040B8F7089596
:10520000F894FFCF501578151B1778151B17AB15A1
:10521000CC151B17CA16D716021B061BF71AFE1A47
:105220000A1B0E1B121B681BDD1B701B3A1B3E1B4F
:10523000741B421B781B841B4E1BD61B521B881BE6
:10524000561B8C1BB41B5A1B901BBB1B601B961B55
:105250009E1B461B7C1B4A1B801B641B9A1BAA1BA4
:10526000C41BD41B341B6C1BE41BA91CA91CE31C12
:10527000E31C931DAD1D0C1D0C1DB21D1F1E301E09
:10528000301EF125F5252B263C2647265226FC25E7
:10529000FC25FC25FC25FC25552658265C26822667
:0C52A000A426A726A926CD26ED26F72679
:1052AC004708880E810E7A0E730E0021007F2200B3
:1052BC000301818283E200E900EA00B500B600B781
:1052CC0000CD008301CC008A0192019401210223BC
:1052DC000224022502260227022A02B300B4006F20
:1052EC000070009F01CB019F02A00236323331F7D0
:1052FC0097946634C600FF0100010000FFFF000018
:10530C00010001FF0000081018181008004422B614
:0C531C0084016201AC0084079D07BD07FE
:00000001FF
